{
	"data": {
		"bytecode": {
			"linkReferences": {},
			"object": "608060405260068054736ec37f8fb02a69a12bdef5632cdcf66e25bcc6f36001600160a01b0319918216179091556007805473d38d2c9af3d610735099832d1a5cc30369f36479921691909117905560016008819055693b4ad496106b7f000000600981905562000080906000199062000192602090811b62000cee17901c565b6200008c9190620001e2565b620000b2693b4ad496106b7f0000006000196200019260201b62000cee1790919060201c565b620000be9190620001be565b600a556013600c55600c54600d556011600e55600e54600f5560146010556010546011556014601255601254601355348015620000fa57600080fd5b50600080546001600160a01b031916339081178255604051909182917f8be0079c531659141344cd1fd0a4f28419497f9722a3daafe3b4186f6b6457e0908290a350600a54336000818152600160209081526040808320949094556008549351938452919290917fddf252ad1be2c89b69c2b068fc378daa952ba7f163c4a11628f55a4df523b3ef910160405180910390a36200020f565b6000620001a08284620001a7565b9392505050565b600082620001b957620001b9620001f9565b500490565b600082821015620001dd57634e487b7160e01b81526011600452602481fd5b500390565b600082620001f457620001f4620001f9565b500690565b634e487b7160e01b600052601260045260246000fd5b611e85806200021f6000396000f3fe608060405234801561001057600080fd5b50600436106101e55760003560e01c80638da5cb5b1161010f578063c94656f6116100a2578063eca1442d11610071578063eca1442d14610437578063f2cc0c1814610440578063f2fde38b14610453578063f84354f11461046657600080fd5b8063c94656f6146103b6578063cba0e996146103bf578063dd62ed3e146103eb578063df8408fe1461042457600080fd5b8063a0aaee9d116100de578063a0aaee9d1461037e578063a457c2d714610387578063a9059cbb1461039a578063c6312d9f146103ad57600080fd5b80638da5cb5b1461030a57806391b04b2a1461032557806395d89b4114610348578063a0712d681461036b57600080fd5b80632d838119116101875780635345ef04116101565780635345ef04146102db57806370a08231146102e4578063715018a6146102f75780638bf2f9811461030157600080fd5b80632d83811914610288578063313ce5671461029b57806339509351146102b55780634549b039146102c857600080fd5b806318160ddd116101c357806318160ddd1461025b5780631fe0371e14610263578063236367201461026c57806323b872dd1461027557600080fd5b806306fdde03146101ea578063095ea7b31461022657806313114a9d14610249575b600080fd5b610210604051806040016040528060078152602001660546561537761760cc1b81525081565b60405161021d9190611cbb565b60405180910390f35b610239610234366004611c58565b610479565b604051901515815260200161021d565b600b545b60405190815260200161021d565b60085461024d565b61024d60125481565b61024d60115481565b610239610283366004611bf4565b610490565b61024d610296366004611c81565b6104f9565b6102a3601281565b60405160ff909116815260200161021d565b6102396102c3366004611c58565b610582565b61024d6102d6366004611c99565b6105b8565b61024d600c5481565b61024d6102f2366004611ba8565b610643565b6102ff6106a2565b005b61024d60105481565b6000546040516001600160a01b03909116815260200161021d565b610239610333366004611ba8565b60146020526000908152604090205460ff1681565b610210604051806040016040528060048152602001631352539560e21b81525081565b6102ff610379366004611c81565b610716565b61024d600f5481565b610239610395366004611c58565b6107c0565b6102396103a8366004611c58565b61080f565b61024d600d5481565b61024d600e5481565b6102396103cd366004611ba8565b6001600160a01b031660009081526004602052604090205460ff1690565b61024d6103f9366004611bc2565b6001600160a01b03918216600090815260036020908152604080832093909416825291909152205490565b6102ff610432366004611c2f565b61086d565b61024d60135481565b6102ff61044e366004611ba8565b6108c2565b6102ff610461366004611ba8565b610a15565b6102ff610474366004611ba8565b610aff565b6000610486338484610cfa565b5060015b92915050565b600061049d848484610e1f565b6104ef84336104ea85604051806060016040528060288152602001611de3602891396001600160a01b038a166000908152600360209081526040808320338452909152902054919061109b565b610cfa565b5060019392505050565b6000600a548211156105655760405162461bcd60e51b815260206004820152602a60248201527f416d6f756e74206d757374206265206c657373207468616e20746f74616c207260448201526965666c656374696f6e7360b01b60648201526084015b60405180910390fd5b600061056f6110c7565b905061057b8382610cee565b9392505050565b3360008181526003602090815260408083206001600160a01b038716845290915281205490916104869185906104ea90866110ea565b600060085483111561060c5760405162461bcd60e51b815260206004820152601f60248201527f416d6f756e74206d757374206265206c657373207468616e20737570706c7900604482015260640161055c565b8161062a57600061061c846110f6565b5092945061048a9350505050565b6000610635846110f6565b5091945061048a9350505050565b6001600160a01b03811660009081526004602052604081205460ff161561068057506001600160a01b031660009081526002602052604090205490565b6001600160a01b03821660009081526001602052604090205461048a906104f9565b6000546001600160a01b031633146106cc5760405162461bcd60e51b815260040161055c90611d0e565b600080546040516001600160a01b03909116907f8be0079c531659141344cd1fd0a4f28419497f9722a3daafe3b4186f6b6457e0908390a3600080546001600160a01b0319169055565b6000546001600160a01b031633146107405760405162461bcd60e51b815260040161055c90611d0e565b6009546008546107509083611d43565b111561078e5760405162461bcd60e51b815260206004820152600d60248201526c6361702065786365656465642160981b604482015260640161055c565b61079781611123565b6040518181523390600090600080516020611e0b8339815191529060200160405180910390a350565b600061048633846104ea85604051806060016040528060258152602001611e2b602591393360009081526003602090815260408083206001600160a01b038d168452909152902054919061109b565b3360009081526014602052604081205460ff16151560011415610845576108456000600c819055600e8190556010819055601255565b610850338484610e1f565b610486600d54600c55600f54600e55601154601055601354601255565b6000546001600160a01b031633146108975760405162461bcd60e51b815260040161055c90611d0e565b6001600160a01b03919091166000908152601460205260409020805460ff1916911515919091179055565b6000546001600160a01b031633146108ec5760405162461bcd60e51b815260040161055c90611d0e565b6001600160a01b03811660009081526004602052604090205460ff16156109555760405162461bcd60e51b815260206004820152601b60248201527f4163636f756e7420697320616c7265616479206578636c756465640000000000604482015260640161055c565b6001600160a01b038116600090815260016020526040902054156109af576001600160a01b038116600090815260016020526040902054610995906104f9565b6001600160a01b0382166000908152600260205260409020555b6001600160a01b03166000818152600460205260408120805460ff191660019081179091556005805491820181559091527f036b6384b5eca791c62761152d0c79bb0604c104a5fb6f4eb0703f3154bb3db00180546001600160a01b0319169091179055565b6000546001600160a01b03163314610a3f5760405162461bcd60e51b815260040161055c90611d0e565b6001600160a01b038116610aa45760405162461bcd60e51b815260206004820152602660248201527f4f776e61626c653a206e6577206f776e657220697320746865207a65726f206160448201526564647265737360d01b606482015260840161055c565b600080546040516001600160a01b03808516939216917f8be0079c531659141344cd1fd0a4f28419497f9722a3daafe3b4186f6b6457e091a3600080546001600160a01b0319166001600160a01b0392909216919091179055565b6000546001600160a01b03163314610b295760405162461bcd60e51b815260040161055c90611d0e565b6001600160a01b03811660009081526004602052604090205460ff16610b915760405162461bcd60e51b815260206004820152601b60248201527f4163636f756e7420697320616c7265616479206578636c756465640000000000604482015260640161055c565b60005b600554811015610cea57816001600160a01b031660058281548110610bc957634e487b7160e01b600052603260045260246000fd5b6000918252602090912001546001600160a01b03161415610cd85760058054610bf490600190611d9a565b81548110610c1257634e487b7160e01b600052603260045260246000fd5b600091825260209091200154600580546001600160a01b039092169183908110610c4c57634e487b7160e01b600052603260045260246000fd5b600091825260208083209190910180546001600160a01b0319166001600160a01b039485161790559184168152600282526040808220829055600490925220805460ff191690556005805480610cb257634e487b7160e01b600052603160045260246000fd5b600082815260209020810160001990810180546001600160a01b03191690550190555050565b80610ce281611db1565b915050610b94565b5050565b600061057b8284611d5b565b6001600160a01b038316610d5c5760405162461bcd60e51b8152602060048201526024808201527f45524332303a20617070726f76652066726f6d20746865207a65726f206164646044820152637265737360e01b606482015260840161055c565b6001600160a01b038216610dbd5760405162461bcd60e51b815260206004820152602260248201527f45524332303a20617070726f766520746f20746865207a65726f206164647265604482015261737360f01b606482015260840161055c565b6001600160a01b0383811660008181526003602090815260408083209487168084529482529182902085905590518481527f8c5be1e5ebec7d5bd14f71427d1e84f3dd0314c0f7b2291e5b200ac8c7c3b92591015b60405180910390a3505050565b6001600160a01b038316610e835760405162461bcd60e51b815260206004820152602560248201527f45524332303a207472616e736665722066726f6d20746865207a65726f206164604482015264647265737360d81b606482015260840161055c565b6001600160a01b038216610ee55760405162461bcd60e51b815260206004820152602360248201527f45524332303a207472616e7366657220746f20746865207a65726f206164647260448201526265737360e81b606482015260840161055c565b60008111610f475760405162461bcd60e51b815260206004820152602960248201527f5472616e7366657220616d6f756e74206d7573742062652067726561746572206044820152687468616e207a65726f60b81b606482015260840161055c565b6001600160a01b03831660009081526004602052604090205460ff168015610f8857506001600160a01b03821660009081526004602052604090205460ff16155b15610f9d57610f9883838361118d565b505050565b6001600160a01b03831660009081526004602052604090205460ff16158015610fde57506001600160a01b03821660009081526004602052604090205460ff165b15610fee57610f9883838361126d565b6001600160a01b03831660009081526004602052604090205460ff1615801561103057506001600160a01b03821660009081526004602052604090205460ff16155b1561104057610f98838383611358565b6001600160a01b03831660009081526004602052604090205460ff16801561108057506001600160a01b03821660009081526004602052604090205460ff165b1561109057610f988383836113ab565b610f98838383611358565b600081848411156110bf5760405162461bcd60e51b815260040161055c9190611cbb565b505050900390565b60008060006110d4611430565b90925090506110e38282610cee565b9250505090565b600061057b8284611d43565b60008060008060008060008060008061110e8b6115ea565b9f939e50919c509a5098509650505050505050565b600061112d6110c7565b9050600061113b8383611634565b600a5490915061114b90826110ea565b600a5560085461115b90846110ea565b6008553360009081526001602052604090205461117890826110ea565b33600090815260016020526040902055505050565b60008060008061119c856110f6565b9450945094509450506000806111b58787878787611640565b5050506001600160a01b038b1660009081526002602052604090205491935091506111e090886116c6565b6001600160a01b038a1660009081526002602090815260408083209390935560019052205461120f90836116c6565b6001600160a01b03808b1660009081526001602052604080822093909355908a168152205461123e90826110ea565b6001600160a01b0389166000908152600160205260409020556112628989896116d2565b505050505050505050565b600080600080600061127e866110f6565b945094509450945094506000806112988887878787611640565b5050506001600160a01b038c1660009081526001602052604090205491935091506112c390836116c6565b6001600160a01b03808c16600090815260016020908152604080832094909455918c168152600290915220546112f990886110ea565b6001600160a01b038a1660009081526002602090815260408083209390935560019052205461132890826110ea565b6001600160a01b038a1660009081526001602052604090205561134c8a8a8a6116d2565b50505050505050505050565b600080600080611367856110f6565b9450945094509450506000806113808787878787611640565b5050506001600160a01b038b16600090815260016020526040902054919350915061120f90836116c6565b60008060008060006113bc866110f6565b945094509450945094506000806113d68887878787611640565b5050506001600160a01b038c16600090815260026020526040902054919350915061140190896116c6565b6001600160a01b038b166000908152600260209081526040808320939093556001905220546112c390836116c6565b600a546008546000918291825b6005548110156115ba5782600160006005848154811061146d57634e487b7160e01b600052603260045260246000fd5b60009182526020808320909101546001600160a01b0316835282019290925260400190205411806114e657508160026000600584815481106114bf57634e487b7160e01b600052603260045260246000fd5b60009182526020808320909101546001600160a01b03168352820192909252604001902054115b156114fc57600a54600854945094505050509091565b611550600160006005848154811061152457634e487b7160e01b600052603260045260246000fd5b60009182526020808320909101546001600160a01b0316835282019290925260400190205484906116c6565b92506115a6600260006005848154811061157a57634e487b7160e01b600052603260045260246000fd5b60009182526020808320909101546001600160a01b0316835282019290925260400190205483906116c6565b9150806115b281611db1565b91505061143d565b50600854600a546115ca91610cee565b8210156115e157600a546008549350935050509091565b90939092509050565b6000806000806000806000806115ff89611779565b92509250925060006116108a6117ec565b905060006116218b86868686611810565b949b939a50919850965091945092505050565b600061057b8284611d7b565b6000806000806000806116516110c7565b9050600061165f8c83611836565b9050600061166d8c84611836565b9050600061167b8c85611836565b905060006116898c86611836565b905060006116978c87611836565b905060006116a88686868686611810565b959b5094995092975090955093505050509550955095509550959050565b600061057b8284611d9a565b60008060008060006116e3866110f6565b9450945094509450945060008060006116ff8988888888611640565b9450945094505050611711838861184b565b61171c8b878461186f565b6117278b868361198a565b6117318b85611aa5565b896001600160a01b03168b6001600160a01b0316600080516020611e0b8339815191528a60405161176491815260200190565b60405180910390a35050505050505050505050565b6000806000806117a06103e861179a6010548861163490919063ffffffff16565b90610cee565b905060006117bf6103e861179a600c548961163490919063ffffffff16565b905060006117de6103e861179a600e548a61163490919063ffffffff16565b929791965091945092505050565b60008061057b60125461180a61271086610cee90919063ffffffff16565b90611634565b60008061182b83611825868189818d8d6116c6565b906116c6565b979650505050505050565b6000806118438484611634565b949350505050565b600a5461185890836116c6565b600a55600b5461186890826110ea565b600b555050565b8115610f98576007546001600160a01b031660009081526004602052604090205460ff1615611919576007546001600160a01b03166000908152600260205260409020546118bd90836110ea565b600780546001600160a01b0390811660009081526002602090815260408083209590955592549091168152600190915220546118f990826110ea565b6007546001600160a01b031660009081526001602052604090205561195a565b6007546001600160a01b031660009081526001602052604090205461193e90826110ea565b6007546001600160a01b03166000908152600160205260409020555b6007546040518381526001600160a01b0391821691851690600080516020611e0b83398151915290602001610e12565b8115610f98576006546001600160a01b031660009081526004602052604090205460ff1615611a34576006546001600160a01b03166000908152600260205260409020546119d890836110ea565b600680546001600160a01b039081166000908152600260209081526040808320959095559254909116815260019091522054611a1490826110ea565b6006546001600160a01b0316600090815260016020526040902055611a75565b6006546001600160a01b0316600090815260016020526040902054611a5990826110ea565b6006546001600160a01b03166000908152600160205260409020555b6006546040518381526001600160a01b0391821691851690600080516020611e0b83398151915290602001610e12565b6001600160a01b038216611b055760405162461bcd60e51b815260206004820152602160248201527f45524332303a206275726e2066726f6d20746865207a65726f206164647265736044820152607360f81b606482015260840161055c565b6000611b0f6110c7565b90506000611b1d8383611634565b600854909150611b2d90846116c6565b600855600a54611b3d90826116c6565b600a558215611b76576040518381526000906001600160a01b03861690600080516020611e0b8339815191529060200160405180910390a35b50505050565b80356001600160a01b0381168114611b9357600080fd5b919050565b80358015158114611b9357600080fd5b600060208284031215611bb9578081fd5b61057b82611b7c565b60008060408385031215611bd4578081fd5b611bdd83611b7c565b9150611beb60208401611b7c565b90509250929050565b600080600060608486031215611c08578081fd5b611c1184611b7c565b9250611c1f60208501611b7c565b9150604084013590509250925092565b60008060408385031215611c41578182fd5b611c4a83611b7c565b9150611beb60208401611b98565b60008060408385031215611c6a578182fd5b611c7383611b7c565b946020939093013593505050565b600060208284031215611c92578081fd5b5035919050565b60008060408385031215611cab578182fd5b82359150611beb60208401611b98565b6000602080835283518082850152825b81811015611ce757858101830151858201604001528201611ccb565b81811115611cf85783604083870101525b50601f01601f1916929092016040019392505050565b6020808252818101527f4f776e61626c653a2063616c6c6572206973206e6f7420746865206f776e6572604082015260600190565b60008219821115611d5657611d56611dcc565b500190565b600082611d7657634e487b7160e01b81526012600452602481fd5b500490565b6000816000190483118215151615611d9557611d95611dcc565b500290565b600082821015611dac57611dac611dcc565b500390565b6000600019821415611dc557611dc5611dcc565b5060010190565b634e487b7160e01b600052601160045260246000fdfe45524332303a207472616e7366657220616d6f756e74206578636565647320616c6c6f77616e6365ddf252ad1be2c89b69c2b068fc378daa952ba7f163c4a11628f55a4df523b3ef45524332303a2064656372656173656420616c6c6f77616e63652062656c6f77207a65726fa2646970667358221220cf70a23e51eef7795b5b4b732ae0f302a8a39e462c3b31f0b6acedd8e2a15d0464736f6c63430008040033",
			"opcodes": "PUSH1 0x80 PUSH1 0x40 MSTORE PUSH1 0x6 DUP1 SLOAD PUSH20 0x6EC37F8FB02A69A12BDEF5632CDCF66E25BCC6F3 PUSH1 0x1 PUSH1 0x1 PUSH1 0xA0 SHL SUB NOT SWAP2 DUP3 AND OR SWAP1 SWAP2 SSTORE PUSH1 0x7 DUP1 SLOAD PUSH20 0xD38D2C9AF3D610735099832D1A5CC30369F36479 SWAP3 AND SWAP2 SWAP1 SWAP2 OR SWAP1 SSTORE PUSH1 0x1 PUSH1 0x8 DUP2 SWAP1 SSTORE PUSH10 0x3B4AD496106B7F000000 PUSH1 0x9 DUP2 SWAP1 SSTORE PUSH3 0x80 SWAP1 PUSH1 0x0 NOT SWAP1 PUSH3 0x192 PUSH1 0x20 SWAP1 DUP2 SHL PUSH3 0xCEE OR SWAP1 SHR JUMP JUMPDEST PUSH3 0x8C SWAP2 SWAP1 PUSH3 0x1E2 JUMP JUMPDEST PUSH3 0xB2 PUSH10 0x3B4AD496106B7F000000 PUSH1 0x0 NOT PUSH3 0x192 PUSH1 0x20 SHL PUSH3 0xCEE OR SWAP1 SWAP2 SWAP1 PUSH1 0x20 SHR JUMP JUMPDEST PUSH3 0xBE SWAP2 SWAP1 PUSH3 0x1BE JUMP JUMPDEST PUSH1 0xA SSTORE PUSH1 0x13 PUSH1 0xC SSTORE PUSH1 0xC SLOAD PUSH1 0xD SSTORE PUSH1 0x11 PUSH1 0xE SSTORE PUSH1 0xE SLOAD PUSH1 0xF SSTORE PUSH1 0x14 PUSH1 0x10 SSTORE PUSH1 0x10 SLOAD PUSH1 0x11 SSTORE PUSH1 0x14 PUSH1 0x12 SSTORE PUSH1 0x12 SLOAD PUSH1 0x13 SSTORE CALLVALUE DUP1 ISZERO PUSH3 0xFA JUMPI PUSH1 0x0 DUP1 REVERT JUMPDEST POP PUSH1 0x0 DUP1 SLOAD PUSH1 0x1 PUSH1 0x1 PUSH1 0xA0 SHL SUB NOT AND CALLER SWAP1 DUP2 OR DUP3 SSTORE PUSH1 0x40 MLOAD SWAP1 SWAP2 DUP3 SWAP2 PUSH32 0x8BE0079C531659141344CD1FD0A4F28419497F9722A3DAAFE3B4186F6B6457E0 SWAP1 DUP3 SWAP1 LOG3 POP PUSH1 0xA SLOAD CALLER PUSH1 0x0 DUP2 DUP2 MSTORE PUSH1 0x1 PUSH1 0x20 SWAP1 DUP2 MSTORE PUSH1 0x40 DUP1 DUP4 KECCAK256 SWAP5 SWAP1 SWAP5 SSTORE PUSH1 0x8 SLOAD SWAP4 MLOAD SWAP4 DUP5 MSTORE SWAP2 SWAP3 SWAP1 SWAP2 PUSH32 0xDDF252AD1BE2C89B69C2B068FC378DAA952BA7F163C4A11628F55A4DF523B3EF SWAP2 ADD PUSH1 0x40 MLOAD DUP1 SWAP2 SUB SWAP1 LOG3 PUSH3 0x20F JUMP JUMPDEST PUSH1 0x0 PUSH3 0x1A0 DUP3 DUP5 PUSH3 0x1A7 JUMP JUMPDEST SWAP4 SWAP3 POP POP POP JUMP JUMPDEST PUSH1 0x0 DUP3 PUSH3 0x1B9 JUMPI PUSH3 0x1B9 PUSH3 0x1F9 JUMP JUMPDEST POP DIV SWAP1 JUMP JUMPDEST PUSH1 0x0 DUP3 DUP3 LT ISZERO PUSH3 0x1DD JUMPI PUSH4 0x4E487B71 PUSH1 0xE0 SHL DUP2 MSTORE PUSH1 0x11 PUSH1 0x4 MSTORE PUSH1 0x24 DUP2 REVERT JUMPDEST POP SUB SWAP1 JUMP JUMPDEST PUSH1 0x0 DUP3 PUSH3 0x1F4 JUMPI PUSH3 0x1F4 PUSH3 0x1F9 JUMP JUMPDEST POP MOD SWAP1 JUMP JUMPDEST PUSH4 0x4E487B71 PUSH1 0xE0 SHL PUSH1 0x0 MSTORE PUSH1 0x12 PUSH1 0x4 MSTORE PUSH1 0x24 PUSH1 0x0 REVERT JUMPDEST PUSH2 0x1E85 DUP1 PUSH3 0x21F PUSH1 0x0 CODECOPY PUSH1 0x0 RETURN INVALID PUSH1 0x80 PUSH1 0x40 MSTORE CALLVALUE DUP1 ISZERO PUSH2 0x10 JUMPI PUSH1 0x0 DUP1 REVERT JUMPDEST POP PUSH1 0x4 CALLDATASIZE LT PUSH2 0x1E5 JUMPI PUSH1 0x0 CALLDATALOAD PUSH1 0xE0 SHR DUP1 PUSH4 0x8DA5CB5B GT PUSH2 0x10F JUMPI DUP1 PUSH4 0xC94656F6 GT PUSH2 0xA2 JUMPI DUP1 PUSH4 0xECA1442D GT PUSH2 0x71 JUMPI DUP1 PUSH4 0xECA1442D EQ PUSH2 0x437 JUMPI DUP1 PUSH4 0xF2CC0C18 EQ PUSH2 0x440 JUMPI DUP1 PUSH4 0xF2FDE38B EQ PUSH2 0x453 JUMPI DUP1 PUSH4 0xF84354F1 EQ PUSH2 0x466 JUMPI PUSH1 0x0 DUP1 REVERT JUMPDEST DUP1 PUSH4 0xC94656F6 EQ PUSH2 0x3B6 JUMPI DUP1 PUSH4 0xCBA0E996 EQ PUSH2 0x3BF JUMPI DUP1 PUSH4 0xDD62ED3E EQ PUSH2 0x3EB JUMPI DUP1 PUSH4 0xDF8408FE EQ PUSH2 0x424 JUMPI PUSH1 0x0 DUP1 REVERT JUMPDEST DUP1 PUSH4 0xA0AAEE9D GT PUSH2 0xDE JUMPI DUP1 PUSH4 0xA0AAEE9D EQ PUSH2 0x37E JUMPI DUP1 PUSH4 0xA457C2D7 EQ PUSH2 0x387 JUMPI DUP1 PUSH4 0xA9059CBB EQ PUSH2 0x39A JUMPI DUP1 PUSH4 0xC6312D9F EQ PUSH2 0x3AD JUMPI PUSH1 0x0 DUP1 REVERT JUMPDEST DUP1 PUSH4 0x8DA5CB5B EQ PUSH2 0x30A JUMPI DUP1 PUSH4 0x91B04B2A EQ PUSH2 0x325 JUMPI DUP1 PUSH4 0x95D89B41 EQ PUSH2 0x348 JUMPI DUP1 PUSH4 0xA0712D68 EQ PUSH2 0x36B JUMPI PUSH1 0x0 DUP1 REVERT JUMPDEST DUP1 PUSH4 0x2D838119 GT PUSH2 0x187 JUMPI DUP1 PUSH4 0x5345EF04 GT PUSH2 0x156 JUMPI DUP1 PUSH4 0x5345EF04 EQ PUSH2 0x2DB JUMPI DUP1 PUSH4 0x70A08231 EQ PUSH2 0x2E4 JUMPI DUP1 PUSH4 0x715018A6 EQ PUSH2 0x2F7 JUMPI DUP1 PUSH4 0x8BF2F981 EQ PUSH2 0x301 JUMPI PUSH1 0x0 DUP1 REVERT JUMPDEST DUP1 PUSH4 0x2D838119 EQ PUSH2 0x288 JUMPI DUP1 PUSH4 0x313CE567 EQ PUSH2 0x29B JUMPI DUP1 PUSH4 0x39509351 EQ PUSH2 0x2B5 JUMPI DUP1 PUSH4 0x4549B039 EQ PUSH2 0x2C8 JUMPI PUSH1 0x0 DUP1 REVERT JUMPDEST DUP1 PUSH4 0x18160DDD GT PUSH2 0x1C3 JUMPI DUP1 PUSH4 0x18160DDD EQ PUSH2 0x25B JUMPI DUP1 PUSH4 0x1FE0371E EQ PUSH2 0x263 JUMPI DUP1 PUSH4 0x23636720 EQ PUSH2 0x26C JUMPI DUP1 PUSH4 0x23B872DD EQ PUSH2 0x275 JUMPI PUSH1 0x0 DUP1 REVERT JUMPDEST DUP1 PUSH4 0x6FDDE03 EQ PUSH2 0x1EA JUMPI DUP1 PUSH4 0x95EA7B3 EQ PUSH2 0x226 JUMPI DUP1 PUSH4 0x13114A9D EQ PUSH2 0x249 JUMPI JUMPDEST PUSH1 0x0 DUP1 REVERT JUMPDEST PUSH2 0x210 PUSH1 0x40 MLOAD DUP1 PUSH1 0x40 ADD PUSH1 0x40 MSTORE DUP1 PUSH1 0x7 DUP2 MSTORE PUSH1 0x20 ADD PUSH7 0x5465615377617 PUSH1 0xCC SHL DUP2 MSTORE POP DUP2 JUMP JUMPDEST PUSH1 0x40 MLOAD PUSH2 0x21D SWAP2 SWAP1 PUSH2 0x1CBB JUMP JUMPDEST PUSH1 0x40 MLOAD DUP1 SWAP2 SUB SWAP1 RETURN JUMPDEST PUSH2 0x239 PUSH2 0x234 CALLDATASIZE PUSH1 0x4 PUSH2 0x1C58 JUMP JUMPDEST PUSH2 0x479 JUMP JUMPDEST PUSH1 0x40 MLOAD SWAP1 ISZERO ISZERO DUP2 MSTORE PUSH1 0x20 ADD PUSH2 0x21D JUMP JUMPDEST PUSH1 0xB SLOAD JUMPDEST PUSH1 0x40 MLOAD SWAP1 DUP2 MSTORE PUSH1 0x20 ADD PUSH2 0x21D JUMP JUMPDEST PUSH1 0x8 SLOAD PUSH2 0x24D JUMP JUMPDEST PUSH2 0x24D PUSH1 0x12 SLOAD DUP2 JUMP JUMPDEST PUSH2 0x24D PUSH1 0x11 SLOAD DUP2 JUMP JUMPDEST PUSH2 0x239 PUSH2 0x283 CALLDATASIZE PUSH1 0x4 PUSH2 0x1BF4 JUMP JUMPDEST PUSH2 0x490 JUMP JUMPDEST PUSH2 0x24D PUSH2 0x296 CALLDATASIZE PUSH1 0x4 PUSH2 0x1C81 JUMP JUMPDEST PUSH2 0x4F9 JUMP JUMPDEST PUSH2 0x2A3 PUSH1 0x12 DUP2 JUMP JUMPDEST PUSH1 0x40 MLOAD PUSH1 0xFF SWAP1 SWAP2 AND DUP2 MSTORE PUSH1 0x20 ADD PUSH2 0x21D JUMP JUMPDEST PUSH2 0x239 PUSH2 0x2C3 CALLDATASIZE PUSH1 0x4 PUSH2 0x1C58 JUMP JUMPDEST PUSH2 0x582 JUMP JUMPDEST PUSH2 0x24D PUSH2 0x2D6 CALLDATASIZE PUSH1 0x4 PUSH2 0x1C99 JUMP JUMPDEST PUSH2 0x5B8 JUMP JUMPDEST PUSH2 0x24D PUSH1 0xC SLOAD DUP2 JUMP JUMPDEST PUSH2 0x24D PUSH2 0x2F2 CALLDATASIZE PUSH1 0x4 PUSH2 0x1BA8 JUMP JUMPDEST PUSH2 0x643 JUMP JUMPDEST PUSH2 0x2FF PUSH2 0x6A2 JUMP JUMPDEST STOP JUMPDEST PUSH2 0x24D PUSH1 0x10 SLOAD DUP2 JUMP JUMPDEST PUSH1 0x0 SLOAD PUSH1 0x40 MLOAD PUSH1 0x1 PUSH1 0x1 PUSH1 0xA0 SHL SUB SWAP1 SWAP2 AND DUP2 MSTORE PUSH1 0x20 ADD PUSH2 0x21D JUMP JUMPDEST PUSH2 0x239 PUSH2 0x333 CALLDATASIZE PUSH1 0x4 PUSH2 0x1BA8 JUMP JUMPDEST PUSH1 0x14 PUSH1 0x20 MSTORE PUSH1 0x0 SWAP1 DUP2 MSTORE PUSH1 0x40 SWAP1 KECCAK256 SLOAD PUSH1 0xFF AND DUP2 JUMP JUMPDEST PUSH2 0x210 PUSH1 0x40 MLOAD DUP1 PUSH1 0x40 ADD PUSH1 0x40 MSTORE DUP1 PUSH1 0x4 DUP2 MSTORE PUSH1 0x20 ADD PUSH4 0x13525395 PUSH1 0xE2 SHL DUP2 MSTORE POP DUP2 JUMP JUMPDEST PUSH2 0x2FF PUSH2 0x379 CALLDATASIZE PUSH1 0x4 PUSH2 0x1C81 JUMP JUMPDEST PUSH2 0x716 JUMP JUMPDEST PUSH2 0x24D PUSH1 0xF SLOAD DUP2 JUMP JUMPDEST PUSH2 0x239 PUSH2 0x395 CALLDATASIZE PUSH1 0x4 PUSH2 0x1C58 JUMP JUMPDEST PUSH2 0x7C0 JUMP JUMPDEST PUSH2 0x239 PUSH2 0x3A8 CALLDATASIZE PUSH1 0x4 PUSH2 0x1C58 JUMP JUMPDEST PUSH2 0x80F JUMP JUMPDEST PUSH2 0x24D PUSH1 0xD SLOAD DUP2 JUMP JUMPDEST PUSH2 0x24D PUSH1 0xE SLOAD DUP2 JUMP JUMPDEST PUSH2 0x239 PUSH2 0x3CD CALLDATASIZE PUSH1 0x4 PUSH2 0x1BA8 JUMP JUMPDEST PUSH1 0x1 PUSH1 0x1 PUSH1 0xA0 SHL SUB AND PUSH1 0x0 SWAP1 DUP2 MSTORE PUSH1 0x4 PUSH1 0x20 MSTORE PUSH1 0x40 SWAP1 KECCAK256 SLOAD PUSH1 0xFF AND SWAP1 JUMP JUMPDEST PUSH2 0x24D PUSH2 0x3F9 CALLDATASIZE PUSH1 0x4 PUSH2 0x1BC2 JUMP JUMPDEST PUSH1 0x1 PUSH1 0x1 PUSH1 0xA0 SHL SUB SWAP2 DUP3 AND PUSH1 0x0 SWAP1 DUP2 MSTORE PUSH1 0x3 PUSH1 0x20 SWAP1 DUP2 MSTORE PUSH1 0x40 DUP1 DUP4 KECCAK256 SWAP4 SWAP1 SWAP5 AND DUP3 MSTORE SWAP2 SWAP1 SWAP2 MSTORE KECCAK256 SLOAD SWAP1 JUMP JUMPDEST PUSH2 0x2FF PUSH2 0x432 CALLDATASIZE PUSH1 0x4 PUSH2 0x1C2F JUMP JUMPDEST PUSH2 0x86D JUMP JUMPDEST PUSH2 0x24D PUSH1 0x13 SLOAD DUP2 JUMP JUMPDEST PUSH2 0x2FF PUSH2 0x44E CALLDATASIZE PUSH1 0x4 PUSH2 0x1BA8 JUMP JUMPDEST PUSH2 0x8C2 JUMP JUMPDEST PUSH2 0x2FF PUSH2 0x461 CALLDATASIZE PUSH1 0x4 PUSH2 0x1BA8 JUMP JUMPDEST PUSH2 0xA15 JUMP JUMPDEST PUSH2 0x2FF PUSH2 0x474 CALLDATASIZE PUSH1 0x4 PUSH2 0x1BA8 JUMP JUMPDEST PUSH2 0xAFF JUMP JUMPDEST PUSH1 0x0 PUSH2 0x486 CALLER DUP5 DUP5 PUSH2 0xCFA JUMP JUMPDEST POP PUSH1 0x1 JUMPDEST SWAP3 SWAP2 POP POP JUMP JUMPDEST PUSH1 0x0 PUSH2 0x49D DUP5 DUP5 DUP5 PUSH2 0xE1F JUMP JUMPDEST PUSH2 0x4EF DUP5 CALLER PUSH2 0x4EA DUP6 PUSH1 0x40 MLOAD DUP1 PUSH1 0x60 ADD PUSH1 0x40 MSTORE DUP1 PUSH1 0x28 DUP2 MSTORE PUSH1 0x20 ADD PUSH2 0x1DE3 PUSH1 0x28 SWAP2 CODECOPY PUSH1 0x1 PUSH1 0x1 PUSH1 0xA0 SHL SUB DUP11 AND PUSH1 0x0 SWAP1 DUP2 MSTORE PUSH1 0x3 PUSH1 0x20 SWAP1 DUP2 MSTORE PUSH1 0x40 DUP1 DUP4 KECCAK256 CALLER DUP5 MSTORE SWAP1 SWAP2 MSTORE SWAP1 KECCAK256 SLOAD SWAP2 SWAP1 PUSH2 0x109B JUMP JUMPDEST PUSH2 0xCFA JUMP JUMPDEST POP PUSH1 0x1 SWAP4 SWAP3 POP POP POP JUMP JUMPDEST PUSH1 0x0 PUSH1 0xA SLOAD DUP3 GT ISZERO PUSH2 0x565 JUMPI PUSH1 0x40 MLOAD PUSH3 0x461BCD PUSH1 0xE5 SHL DUP2 MSTORE PUSH1 0x20 PUSH1 0x4 DUP3 ADD MSTORE PUSH1 0x2A PUSH1 0x24 DUP3 ADD MSTORE PUSH32 0x416D6F756E74206D757374206265206C657373207468616E20746F74616C2072 PUSH1 0x44 DUP3 ADD MSTORE PUSH10 0x65666C656374696F6E73 PUSH1 0xB0 SHL PUSH1 0x64 DUP3 ADD MSTORE PUSH1 0x84 ADD JUMPDEST PUSH1 0x40 MLOAD DUP1 SWAP2 SUB SWAP1 REVERT JUMPDEST PUSH1 0x0 PUSH2 0x56F PUSH2 0x10C7 JUMP JUMPDEST SWAP1 POP PUSH2 0x57B DUP4 DUP3 PUSH2 0xCEE JUMP JUMPDEST SWAP4 SWAP3 POP POP POP JUMP JUMPDEST CALLER PUSH1 0x0 DUP2 DUP2 MSTORE PUSH1 0x3 PUSH1 0x20 SWAP1 DUP2 MSTORE PUSH1 0x40 DUP1 DUP4 KECCAK256 PUSH1 0x1 PUSH1 0x1 PUSH1 0xA0 SHL SUB DUP8 AND DUP5 MSTORE SWAP1 SWAP2 MSTORE DUP2 KECCAK256 SLOAD SWAP1 SWAP2 PUSH2 0x486 SWAP2 DUP6 SWAP1 PUSH2 0x4EA SWAP1 DUP7 PUSH2 0x10EA JUMP JUMPDEST PUSH1 0x0 PUSH1 0x8 SLOAD DUP4 GT ISZERO PUSH2 0x60C JUMPI PUSH1 0x40 MLOAD PUSH3 0x461BCD PUSH1 0xE5 SHL DUP2 MSTORE PUSH1 0x20 PUSH1 0x4 DUP3 ADD MSTORE PUSH1 0x1F PUSH1 0x24 DUP3 ADD MSTORE PUSH32 0x416D6F756E74206D757374206265206C657373207468616E20737570706C7900 PUSH1 0x44 DUP3 ADD MSTORE PUSH1 0x64 ADD PUSH2 0x55C JUMP JUMPDEST DUP2 PUSH2 0x62A JUMPI PUSH1 0x0 PUSH2 0x61C DUP5 PUSH2 0x10F6 JUMP JUMPDEST POP SWAP3 SWAP5 POP PUSH2 0x48A SWAP4 POP POP POP POP JUMP JUMPDEST PUSH1 0x0 PUSH2 0x635 DUP5 PUSH2 0x10F6 JUMP JUMPDEST POP SWAP2 SWAP5 POP PUSH2 0x48A SWAP4 POP POP POP POP JUMP JUMPDEST PUSH1 0x1 PUSH1 0x1 PUSH1 0xA0 SHL SUB DUP2 AND PUSH1 0x0 SWAP1 DUP2 MSTORE PUSH1 0x4 PUSH1 0x20 MSTORE PUSH1 0x40 DUP2 KECCAK256 SLOAD PUSH1 0xFF AND ISZERO PUSH2 0x680 JUMPI POP PUSH1 0x1 PUSH1 0x1 PUSH1 0xA0 SHL SUB AND PUSH1 0x0 SWAP1 DUP2 MSTORE PUSH1 0x2 PUSH1 0x20 MSTORE PUSH1 0x40 SWAP1 KECCAK256 SLOAD SWAP1 JUMP JUMPDEST PUSH1 0x1 PUSH1 0x1 PUSH1 0xA0 SHL SUB DUP3 AND PUSH1 0x0 SWAP1 DUP2 MSTORE PUSH1 0x1 PUSH1 0x20 MSTORE PUSH1 0x40 SWAP1 KECCAK256 SLOAD PUSH2 0x48A SWAP1 PUSH2 0x4F9 JUMP JUMPDEST PUSH1 0x0 SLOAD PUSH1 0x1 PUSH1 0x1 PUSH1 0xA0 SHL SUB AND CALLER EQ PUSH2 0x6CC JUMPI PUSH1 0x40 MLOAD PUSH3 0x461BCD PUSH1 0xE5 SHL DUP2 MSTORE PUSH1 0x4 ADD PUSH2 0x55C SWAP1 PUSH2 0x1D0E JUMP JUMPDEST PUSH1 0x0 DUP1 SLOAD PUSH1 0x40 MLOAD PUSH1 0x1 PUSH1 0x1 PUSH1 0xA0 SHL SUB SWAP1 SWAP2 AND SWAP1 PUSH32 0x8BE0079C531659141344CD1FD0A4F28419497F9722A3DAAFE3B4186F6B6457E0 SWAP1 DUP4 SWAP1 LOG3 PUSH1 0x0 DUP1 SLOAD PUSH1 0x1 PUSH1 0x1 PUSH1 0xA0 SHL SUB NOT AND SWAP1 SSTORE JUMP JUMPDEST PUSH1 0x0 SLOAD PUSH1 0x1 PUSH1 0x1 PUSH1 0xA0 SHL SUB AND CALLER EQ PUSH2 0x740 JUMPI PUSH1 0x40 MLOAD PUSH3 0x461BCD PUSH1 0xE5 SHL DUP2 MSTORE PUSH1 0x4 ADD PUSH2 0x55C SWAP1 PUSH2 0x1D0E JUMP JUMPDEST PUSH1 0x9 SLOAD PUSH1 0x8 SLOAD PUSH2 0x750 SWAP1 DUP4 PUSH2 0x1D43 JUMP JUMPDEST GT ISZERO PUSH2 0x78E JUMPI PUSH1 0x40 MLOAD PUSH3 0x461BCD PUSH1 0xE5 SHL DUP2 MSTORE PUSH1 0x20 PUSH1 0x4 DUP3 ADD MSTORE PUSH1 0xD PUSH1 0x24 DUP3 ADD MSTORE PUSH13 0x63617020657863656564656421 PUSH1 0x98 SHL PUSH1 0x44 DUP3 ADD MSTORE PUSH1 0x64 ADD PUSH2 0x55C JUMP JUMPDEST PUSH2 0x797 DUP2 PUSH2 0x1123 JUMP JUMPDEST PUSH1 0x40 MLOAD DUP2 DUP2 MSTORE CALLER SWAP1 PUSH1 0x0 SWAP1 PUSH1 0x0 DUP1 MLOAD PUSH1 0x20 PUSH2 0x1E0B DUP4 CODECOPY DUP2 MLOAD SWAP2 MSTORE SWAP1 PUSH1 0x20 ADD PUSH1 0x40 MLOAD DUP1 SWAP2 SUB SWAP1 LOG3 POP JUMP JUMPDEST PUSH1 0x0 PUSH2 0x486 CALLER DUP5 PUSH2 0x4EA DUP6 PUSH1 0x40 MLOAD DUP1 PUSH1 0x60 ADD PUSH1 0x40 MSTORE DUP1 PUSH1 0x25 DUP2 MSTORE PUSH1 0x20 ADD PUSH2 0x1E2B PUSH1 0x25 SWAP2 CODECOPY CALLER PUSH1 0x0 SWAP1 DUP2 MSTORE PUSH1 0x3 PUSH1 0x20 SWAP1 DUP2 MSTORE PUSH1 0x40 DUP1 DUP4 KECCAK256 PUSH1 0x1 PUSH1 0x1 PUSH1 0xA0 SHL SUB DUP14 AND DUP5 MSTORE SWAP1 SWAP2 MSTORE SWAP1 KECCAK256 SLOAD SWAP2 SWAP1 PUSH2 0x109B JUMP JUMPDEST CALLER PUSH1 0x0 SWAP1 DUP2 MSTORE PUSH1 0x14 PUSH1 0x20 MSTORE PUSH1 0x40 DUP2 KECCAK256 SLOAD PUSH1 0xFF AND ISZERO ISZERO PUSH1 0x1 EQ ISZERO PUSH2 0x845 JUMPI PUSH2 0x845 PUSH1 0x0 PUSH1 0xC DUP2 SWAP1 SSTORE PUSH1 0xE DUP2 SWAP1 SSTORE PUSH1 0x10 DUP2 SWAP1 SSTORE PUSH1 0x12 SSTORE JUMP JUMPDEST PUSH2 0x850 CALLER DUP5 DUP5 PUSH2 0xE1F JUMP JUMPDEST PUSH2 0x486 PUSH1 0xD SLOAD PUSH1 0xC SSTORE PUSH1 0xF SLOAD PUSH1 0xE SSTORE PUSH1 0x11 SLOAD PUSH1 0x10 SSTORE PUSH1 0x13 SLOAD PUSH1 0x12 SSTORE JUMP JUMPDEST PUSH1 0x0 SLOAD PUSH1 0x1 PUSH1 0x1 PUSH1 0xA0 SHL SUB AND CALLER EQ PUSH2 0x897 JUMPI PUSH1 0x40 MLOAD PUSH3 0x461BCD PUSH1 0xE5 SHL DUP2 MSTORE PUSH1 0x4 ADD PUSH2 0x55C SWAP1 PUSH2 0x1D0E JUMP JUMPDEST PUSH1 0x1 PUSH1 0x1 PUSH1 0xA0 SHL SUB SWAP2 SWAP1 SWAP2 AND PUSH1 0x0 SWAP1 DUP2 MSTORE PUSH1 0x14 PUSH1 0x20 MSTORE PUSH1 0x40 SWAP1 KECCAK256 DUP1 SLOAD PUSH1 0xFF NOT AND SWAP2 ISZERO ISZERO SWAP2 SWAP1 SWAP2 OR SWAP1 SSTORE JUMP JUMPDEST PUSH1 0x0 SLOAD PUSH1 0x1 PUSH1 0x1 PUSH1 0xA0 SHL SUB AND CALLER EQ PUSH2 0x8EC JUMPI PUSH1 0x40 MLOAD PUSH3 0x461BCD PUSH1 0xE5 SHL DUP2 MSTORE PUSH1 0x4 ADD PUSH2 0x55C SWAP1 PUSH2 0x1D0E JUMP JUMPDEST PUSH1 0x1 PUSH1 0x1 PUSH1 0xA0 SHL SUB DUP2 AND PUSH1 0x0 SWAP1 DUP2 MSTORE PUSH1 0x4 PUSH1 0x20 MSTORE PUSH1 0x40 SWAP1 KECCAK256 SLOAD PUSH1 0xFF AND ISZERO PUSH2 0x955 JUMPI PUSH1 0x40 MLOAD PUSH3 0x461BCD PUSH1 0xE5 SHL DUP2 MSTORE PUSH1 0x20 PUSH1 0x4 DUP3 ADD MSTORE PUSH1 0x1B PUSH1 0x24 DUP3 ADD MSTORE PUSH32 0x4163636F756E7420697320616C7265616479206578636C756465640000000000 PUSH1 0x44 DUP3 ADD MSTORE PUSH1 0x64 ADD PUSH2 0x55C JUMP JUMPDEST PUSH1 0x1 PUSH1 0x1 PUSH1 0xA0 SHL SUB DUP2 AND PUSH1 0x0 SWAP1 DUP2 MSTORE PUSH1 0x1 PUSH1 0x20 MSTORE PUSH1 0x40 SWAP1 KECCAK256 SLOAD ISZERO PUSH2 0x9AF JUMPI PUSH1 0x1 PUSH1 0x1 PUSH1 0xA0 SHL SUB DUP2 AND PUSH1 0x0 SWAP1 DUP2 MSTORE PUSH1 0x1 PUSH1 0x20 MSTORE PUSH1 0x40 SWAP1 KECCAK256 SLOAD PUSH2 0x995 SWAP1 PUSH2 0x4F9 JUMP JUMPDEST PUSH1 0x1 PUSH1 0x1 PUSH1 0xA0 SHL SUB DUP3 AND PUSH1 0x0 SWAP1 DUP2 MSTORE PUSH1 0x2 PUSH1 0x20 MSTORE PUSH1 0x40 SWAP1 KECCAK256 SSTORE JUMPDEST PUSH1 0x1 PUSH1 0x1 PUSH1 0xA0 SHL SUB AND PUSH1 0x0 DUP2 DUP2 MSTORE PUSH1 0x4 PUSH1 0x20 MSTORE PUSH1 0x40 DUP2 KECCAK256 DUP1 SLOAD PUSH1 0xFF NOT AND PUSH1 0x1 SWAP1 DUP2 OR SWAP1 SWAP2 SSTORE PUSH1 0x5 DUP1 SLOAD SWAP2 DUP3 ADD DUP2 SSTORE SWAP1 SWAP2 MSTORE PUSH32 0x36B6384B5ECA791C62761152D0C79BB0604C104A5FB6F4EB0703F3154BB3DB0 ADD DUP1 SLOAD PUSH1 0x1 PUSH1 0x1 PUSH1 0xA0 SHL SUB NOT AND SWAP1 SWAP2 OR SWAP1 SSTORE JUMP JUMPDEST PUSH1 0x0 SLOAD PUSH1 0x1 PUSH1 0x1 PUSH1 0xA0 SHL SUB AND CALLER EQ PUSH2 0xA3F JUMPI PUSH1 0x40 MLOAD PUSH3 0x461BCD PUSH1 0xE5 SHL DUP2 MSTORE PUSH1 0x4 ADD PUSH2 0x55C SWAP1 PUSH2 0x1D0E JUMP JUMPDEST PUSH1 0x1 PUSH1 0x1 PUSH1 0xA0 SHL SUB DUP2 AND PUSH2 0xAA4 JUMPI PUSH1 0x40 MLOAD PUSH3 0x461BCD PUSH1 0xE5 SHL DUP2 MSTORE PUSH1 0x20 PUSH1 0x4 DUP3 ADD MSTORE PUSH1 0x26 PUSH1 0x24 DUP3 ADD MSTORE PUSH32 0x4F776E61626C653A206E6577206F776E657220697320746865207A65726F2061 PUSH1 0x44 DUP3 ADD MSTORE PUSH6 0x646472657373 PUSH1 0xD0 SHL PUSH1 0x64 DUP3 ADD MSTORE PUSH1 0x84 ADD PUSH2 0x55C JUMP JUMPDEST PUSH1 0x0 DUP1 SLOAD PUSH1 0x40 MLOAD PUSH1 0x1 PUSH1 0x1 PUSH1 0xA0 SHL SUB DUP1 DUP6 AND SWAP4 SWAP3 AND SWAP2 PUSH32 0x8BE0079C531659141344CD1FD0A4F28419497F9722A3DAAFE3B4186F6B6457E0 SWAP2 LOG3 PUSH1 0x0 DUP1 SLOAD PUSH1 0x1 PUSH1 0x1 PUSH1 0xA0 SHL SUB NOT AND PUSH1 0x1 PUSH1 0x1 PUSH1 0xA0 SHL SUB SWAP3 SWAP1 SWAP3 AND SWAP2 SWAP1 SWAP2 OR SWAP1 SSTORE JUMP JUMPDEST PUSH1 0x0 SLOAD PUSH1 0x1 PUSH1 0x1 PUSH1 0xA0 SHL SUB AND CALLER EQ PUSH2 0xB29 JUMPI PUSH1 0x40 MLOAD PUSH3 0x461BCD PUSH1 0xE5 SHL DUP2 MSTORE PUSH1 0x4 ADD PUSH2 0x55C SWAP1 PUSH2 0x1D0E JUMP JUMPDEST PUSH1 0x1 PUSH1 0x1 PUSH1 0xA0 SHL SUB DUP2 AND PUSH1 0x0 SWAP1 DUP2 MSTORE PUSH1 0x4 PUSH1 0x20 MSTORE PUSH1 0x40 SWAP1 KECCAK256 SLOAD PUSH1 0xFF AND PUSH2 0xB91 JUMPI PUSH1 0x40 MLOAD PUSH3 0x461BCD PUSH1 0xE5 SHL DUP2 MSTORE PUSH1 0x20 PUSH1 0x4 DUP3 ADD MSTORE PUSH1 0x1B PUSH1 0x24 DUP3 ADD MSTORE PUSH32 0x4163636F756E7420697320616C7265616479206578636C756465640000000000 PUSH1 0x44 DUP3 ADD MSTORE PUSH1 0x64 ADD PUSH2 0x55C JUMP JUMPDEST PUSH1 0x0 JUMPDEST PUSH1 0x5 SLOAD DUP2 LT ISZERO PUSH2 0xCEA JUMPI DUP2 PUSH1 0x1 PUSH1 0x1 PUSH1 0xA0 SHL SUB AND PUSH1 0x5 DUP3 DUP2 SLOAD DUP2 LT PUSH2 0xBC9 JUMPI PUSH4 0x4E487B71 PUSH1 0xE0 SHL PUSH1 0x0 MSTORE PUSH1 0x32 PUSH1 0x4 MSTORE PUSH1 0x24 PUSH1 0x0 REVERT JUMPDEST PUSH1 0x0 SWAP2 DUP3 MSTORE PUSH1 0x20 SWAP1 SWAP2 KECCAK256 ADD SLOAD PUSH1 0x1 PUSH1 0x1 PUSH1 0xA0 SHL SUB AND EQ ISZERO PUSH2 0xCD8 JUMPI PUSH1 0x5 DUP1 SLOAD PUSH2 0xBF4 SWAP1 PUSH1 0x1 SWAP1 PUSH2 0x1D9A JUMP JUMPDEST DUP2 SLOAD DUP2 LT PUSH2 0xC12 JUMPI PUSH4 0x4E487B71 PUSH1 0xE0 SHL PUSH1 0x0 MSTORE PUSH1 0x32 PUSH1 0x4 MSTORE PUSH1 0x24 PUSH1 0x0 REVERT JUMPDEST PUSH1 0x0 SWAP2 DUP3 MSTORE PUSH1 0x20 SWAP1 SWAP2 KECCAK256 ADD SLOAD PUSH1 0x5 DUP1 SLOAD PUSH1 0x1 PUSH1 0x1 PUSH1 0xA0 SHL SUB SWAP1 SWAP3 AND SWAP2 DUP4 SWAP1 DUP2 LT PUSH2 0xC4C JUMPI PUSH4 0x4E487B71 PUSH1 0xE0 SHL PUSH1 0x0 MSTORE PUSH1 0x32 PUSH1 0x4 MSTORE PUSH1 0x24 PUSH1 0x0 REVERT JUMPDEST PUSH1 0x0 SWAP2 DUP3 MSTORE PUSH1 0x20 DUP1 DUP4 KECCAK256 SWAP2 SWAP1 SWAP2 ADD DUP1 SLOAD PUSH1 0x1 PUSH1 0x1 PUSH1 0xA0 SHL SUB NOT AND PUSH1 0x1 PUSH1 0x1 PUSH1 0xA0 SHL SUB SWAP5 DUP6 AND OR SWAP1 SSTORE SWAP2 DUP5 AND DUP2 MSTORE PUSH1 0x2 DUP3 MSTORE PUSH1 0x40 DUP1 DUP3 KECCAK256 DUP3 SWAP1 SSTORE PUSH1 0x4 SWAP1 SWAP3 MSTORE KECCAK256 DUP1 SLOAD PUSH1 0xFF NOT AND SWAP1 SSTORE PUSH1 0x5 DUP1 SLOAD DUP1 PUSH2 0xCB2 JUMPI PUSH4 0x4E487B71 PUSH1 0xE0 SHL PUSH1 0x0 MSTORE PUSH1 0x31 PUSH1 0x4 MSTORE PUSH1 0x24 PUSH1 0x0 REVERT JUMPDEST PUSH1 0x0 DUP3 DUP2 MSTORE PUSH1 0x20 SWAP1 KECCAK256 DUP2 ADD PUSH1 0x0 NOT SWAP1 DUP2 ADD DUP1 SLOAD PUSH1 0x1 PUSH1 0x1 PUSH1 0xA0 SHL SUB NOT AND SWAP1 SSTORE ADD SWAP1 SSTORE POP POP JUMP JUMPDEST DUP1 PUSH2 0xCE2 DUP2 PUSH2 0x1DB1 JUMP JUMPDEST SWAP2 POP POP PUSH2 0xB94 JUMP JUMPDEST POP POP JUMP JUMPDEST PUSH1 0x0 PUSH2 0x57B DUP3 DUP5 PUSH2 0x1D5B JUMP JUMPDEST PUSH1 0x1 PUSH1 0x1 PUSH1 0xA0 SHL SUB DUP4 AND PUSH2 0xD5C JUMPI PUSH1 0x40 MLOAD PUSH3 0x461BCD PUSH1 0xE5 SHL DUP2 MSTORE PUSH1 0x20 PUSH1 0x4 DUP3 ADD MSTORE PUSH1 0x24 DUP1 DUP3 ADD MSTORE PUSH32 0x45524332303A20617070726F76652066726F6D20746865207A65726F20616464 PUSH1 0x44 DUP3 ADD MSTORE PUSH4 0x72657373 PUSH1 0xE0 SHL PUSH1 0x64 DUP3 ADD MSTORE PUSH1 0x84 ADD PUSH2 0x55C JUMP JUMPDEST PUSH1 0x1 PUSH1 0x1 PUSH1 0xA0 SHL SUB DUP3 AND PUSH2 0xDBD JUMPI PUSH1 0x40 MLOAD PUSH3 0x461BCD PUSH1 0xE5 SHL DUP2 MSTORE PUSH1 0x20 PUSH1 0x4 DUP3 ADD MSTORE PUSH1 0x22 PUSH1 0x24 DUP3 ADD MSTORE PUSH32 0x45524332303A20617070726F766520746F20746865207A65726F206164647265 PUSH1 0x44 DUP3 ADD MSTORE PUSH2 0x7373 PUSH1 0xF0 SHL PUSH1 0x64 DUP3 ADD MSTORE PUSH1 0x84 ADD PUSH2 0x55C JUMP JUMPDEST PUSH1 0x1 PUSH1 0x1 PUSH1 0xA0 SHL SUB DUP4 DUP2 AND PUSH1 0x0 DUP2 DUP2 MSTORE PUSH1 0x3 PUSH1 0x20 SWAP1 DUP2 MSTORE PUSH1 0x40 DUP1 DUP4 KECCAK256 SWAP5 DUP8 AND DUP1 DUP5 MSTORE SWAP5 DUP3 MSTORE SWAP2 DUP3 SWAP1 KECCAK256 DUP6 SWAP1 SSTORE SWAP1 MLOAD DUP5 DUP2 MSTORE PUSH32 0x8C5BE1E5EBEC7D5BD14F71427D1E84F3DD0314C0F7B2291E5B200AC8C7C3B925 SWAP2 ADD JUMPDEST PUSH1 0x40 MLOAD DUP1 SWAP2 SUB SWAP1 LOG3 POP POP POP JUMP JUMPDEST PUSH1 0x1 PUSH1 0x1 PUSH1 0xA0 SHL SUB DUP4 AND PUSH2 0xE83 JUMPI PUSH1 0x40 MLOAD PUSH3 0x461BCD PUSH1 0xE5 SHL DUP2 MSTORE PUSH1 0x20 PUSH1 0x4 DUP3 ADD MSTORE PUSH1 0x25 PUSH1 0x24 DUP3 ADD MSTORE PUSH32 0x45524332303A207472616E736665722066726F6D20746865207A65726F206164 PUSH1 0x44 DUP3 ADD MSTORE PUSH5 0x6472657373 PUSH1 0xD8 SHL PUSH1 0x64 DUP3 ADD MSTORE PUSH1 0x84 ADD PUSH2 0x55C JUMP JUMPDEST PUSH1 0x1 PUSH1 0x1 PUSH1 0xA0 SHL SUB DUP3 AND PUSH2 0xEE5 JUMPI PUSH1 0x40 MLOAD PUSH3 0x461BCD PUSH1 0xE5 SHL DUP2 MSTORE PUSH1 0x20 PUSH1 0x4 DUP3 ADD MSTORE PUSH1 0x23 PUSH1 0x24 DUP3 ADD MSTORE PUSH32 0x45524332303A207472616E7366657220746F20746865207A65726F2061646472 PUSH1 0x44 DUP3 ADD MSTORE PUSH3 0x657373 PUSH1 0xE8 SHL PUSH1 0x64 DUP3 ADD MSTORE PUSH1 0x84 ADD PUSH2 0x55C JUMP JUMPDEST PUSH1 0x0 DUP2 GT PUSH2 0xF47 JUMPI PUSH1 0x40 MLOAD PUSH3 0x461BCD PUSH1 0xE5 SHL DUP2 MSTORE PUSH1 0x20 PUSH1 0x4 DUP3 ADD MSTORE PUSH1 0x29 PUSH1 0x24 DUP3 ADD MSTORE PUSH32 0x5472616E7366657220616D6F756E74206D757374206265206772656174657220 PUSH1 0x44 DUP3 ADD MSTORE PUSH9 0x7468616E207A65726F PUSH1 0xB8 SHL PUSH1 0x64 DUP3 ADD MSTORE PUSH1 0x84 ADD PUSH2 0x55C JUMP JUMPDEST PUSH1 0x1 PUSH1 0x1 PUSH1 0xA0 SHL SUB DUP4 AND PUSH1 0x0 SWAP1 DUP2 MSTORE PUSH1 0x4 PUSH1 0x20 MSTORE PUSH1 0x40 SWAP1 KECCAK256 SLOAD PUSH1 0xFF AND DUP1 ISZERO PUSH2 0xF88 JUMPI POP PUSH1 0x1 PUSH1 0x1 PUSH1 0xA0 SHL SUB DUP3 AND PUSH1 0x0 SWAP1 DUP2 MSTORE PUSH1 0x4 PUSH1 0x20 MSTORE PUSH1 0x40 SWAP1 KECCAK256 SLOAD PUSH1 0xFF AND ISZERO JUMPDEST ISZERO PUSH2 0xF9D JUMPI PUSH2 0xF98 DUP4 DUP4 DUP4 PUSH2 0x118D JUMP JUMPDEST POP POP POP JUMP JUMPDEST PUSH1 0x1 PUSH1 0x1 PUSH1 0xA0 SHL SUB DUP4 AND PUSH1 0x0 SWAP1 DUP2 MSTORE PUSH1 0x4 PUSH1 0x20 MSTORE PUSH1 0x40 SWAP1 KECCAK256 SLOAD PUSH1 0xFF AND ISZERO DUP1 ISZERO PUSH2 0xFDE JUMPI POP PUSH1 0x1 PUSH1 0x1 PUSH1 0xA0 SHL SUB DUP3 AND PUSH1 0x0 SWAP1 DUP2 MSTORE PUSH1 0x4 PUSH1 0x20 MSTORE PUSH1 0x40 SWAP1 KECCAK256 SLOAD PUSH1 0xFF AND JUMPDEST ISZERO PUSH2 0xFEE JUMPI PUSH2 0xF98 DUP4 DUP4 DUP4 PUSH2 0x126D JUMP JUMPDEST PUSH1 0x1 PUSH1 0x1 PUSH1 0xA0 SHL SUB DUP4 AND PUSH1 0x0 SWAP1 DUP2 MSTORE PUSH1 0x4 PUSH1 0x20 MSTORE PUSH1 0x40 SWAP1 KECCAK256 SLOAD PUSH1 0xFF AND ISZERO DUP1 ISZERO PUSH2 0x1030 JUMPI POP PUSH1 0x1 PUSH1 0x1 PUSH1 0xA0 SHL SUB DUP3 AND PUSH1 0x0 SWAP1 DUP2 MSTORE PUSH1 0x4 PUSH1 0x20 MSTORE PUSH1 0x40 SWAP1 KECCAK256 SLOAD PUSH1 0xFF AND ISZERO JUMPDEST ISZERO PUSH2 0x1040 JUMPI PUSH2 0xF98 DUP4 DUP4 DUP4 PUSH2 0x1358 JUMP JUMPDEST PUSH1 0x1 PUSH1 0x1 PUSH1 0xA0 SHL SUB DUP4 AND PUSH1 0x0 SWAP1 DUP2 MSTORE PUSH1 0x4 PUSH1 0x20 MSTORE PUSH1 0x40 SWAP1 KECCAK256 SLOAD PUSH1 0xFF AND DUP1 ISZERO PUSH2 0x1080 JUMPI POP PUSH1 0x1 PUSH1 0x1 PUSH1 0xA0 SHL SUB DUP3 AND PUSH1 0x0 SWAP1 DUP2 MSTORE PUSH1 0x4 PUSH1 0x20 MSTORE PUSH1 0x40 SWAP1 KECCAK256 SLOAD PUSH1 0xFF AND JUMPDEST ISZERO PUSH2 0x1090 JUMPI PUSH2 0xF98 DUP4 DUP4 DUP4 PUSH2 0x13AB JUMP JUMPDEST PUSH2 0xF98 DUP4 DUP4 DUP4 PUSH2 0x1358 JUMP JUMPDEST PUSH1 0x0 DUP2 DUP5 DUP5 GT ISZERO PUSH2 0x10BF JUMPI PUSH1 0x40 MLOAD PUSH3 0x461BCD PUSH1 0xE5 SHL DUP2 MSTORE PUSH1 0x4 ADD PUSH2 0x55C SWAP2 SWAP1 PUSH2 0x1CBB JUMP JUMPDEST POP POP POP SWAP1 SUB SWAP1 JUMP JUMPDEST PUSH1 0x0 DUP1 PUSH1 0x0 PUSH2 0x10D4 PUSH2 0x1430 JUMP JUMPDEST SWAP1 SWAP3 POP SWAP1 POP PUSH2 0x10E3 DUP3 DUP3 PUSH2 0xCEE JUMP JUMPDEST SWAP3 POP POP POP SWAP1 JUMP JUMPDEST PUSH1 0x0 PUSH2 0x57B DUP3 DUP5 PUSH2 0x1D43 JUMP JUMPDEST PUSH1 0x0 DUP1 PUSH1 0x0 DUP1 PUSH1 0x0 DUP1 PUSH1 0x0 DUP1 PUSH1 0x0 DUP1 PUSH2 0x110E DUP12 PUSH2 0x15EA JUMP JUMPDEST SWAP16 SWAP4 SWAP15 POP SWAP2 SWAP13 POP SWAP11 POP SWAP9 POP SWAP7 POP POP POP POP POP POP POP JUMP JUMPDEST PUSH1 0x0 PUSH2 0x112D PUSH2 0x10C7 JUMP JUMPDEST SWAP1 POP PUSH1 0x0 PUSH2 0x113B DUP4 DUP4 PUSH2 0x1634 JUMP JUMPDEST PUSH1 0xA SLOAD SWAP1 SWAP2 POP PUSH2 0x114B SWAP1 DUP3 PUSH2 0x10EA JUMP JUMPDEST PUSH1 0xA SSTORE PUSH1 0x8 SLOAD PUSH2 0x115B SWAP1 DUP5 PUSH2 0x10EA JUMP JUMPDEST PUSH1 0x8 SSTORE CALLER PUSH1 0x0 SWAP1 DUP2 MSTORE PUSH1 0x1 PUSH1 0x20 MSTORE PUSH1 0x40 SWAP1 KECCAK256 SLOAD PUSH2 0x1178 SWAP1 DUP3 PUSH2 0x10EA JUMP JUMPDEST CALLER PUSH1 0x0 SWAP1 DUP2 MSTORE PUSH1 0x1 PUSH1 0x20 MSTORE PUSH1 0x40 SWAP1 KECCAK256 SSTORE POP POP POP JUMP JUMPDEST PUSH1 0x0 DUP1 PUSH1 0x0 DUP1 PUSH2 0x119C DUP6 PUSH2 0x10F6 JUMP JUMPDEST SWAP5 POP SWAP5 POP SWAP5 POP SWAP5 POP POP PUSH1 0x0 DUP1 PUSH2 0x11B5 DUP8 DUP8 DUP8 DUP8 DUP8 PUSH2 0x1640 JUMP JUMPDEST POP POP POP PUSH1 0x1 PUSH1 0x1 PUSH1 0xA0 SHL SUB DUP12 AND PUSH1 0x0 SWAP1 DUP2 MSTORE PUSH1 0x2 PUSH1 0x20 MSTORE PUSH1 0x40 SWAP1 KECCAK256 SLOAD SWAP2 SWAP4 POP SWAP2 POP PUSH2 0x11E0 SWAP1 DUP9 PUSH2 0x16C6 JUMP JUMPDEST PUSH1 0x1 PUSH1 0x1 PUSH1 0xA0 SHL SUB DUP11 AND PUSH1 0x0 SWAP1 DUP2 MSTORE PUSH1 0x2 PUSH1 0x20 SWAP1 DUP2 MSTORE PUSH1 0x40 DUP1 DUP4 KECCAK256 SWAP4 SWAP1 SWAP4 SSTORE PUSH1 0x1 SWAP1 MSTORE KECCAK256 SLOAD PUSH2 0x120F SWAP1 DUP4 PUSH2 0x16C6 JUMP JUMPDEST PUSH1 0x1 PUSH1 0x1 PUSH1 0xA0 SHL SUB DUP1 DUP12 AND PUSH1 0x0 SWAP1 DUP2 MSTORE PUSH1 0x1 PUSH1 0x20 MSTORE PUSH1 0x40 DUP1 DUP3 KECCAK256 SWAP4 SWAP1 SWAP4 SSTORE SWAP1 DUP11 AND DUP2 MSTORE KECCAK256 SLOAD PUSH2 0x123E SWAP1 DUP3 PUSH2 0x10EA JUMP JUMPDEST PUSH1 0x1 PUSH1 0x1 PUSH1 0xA0 SHL SUB DUP10 AND PUSH1 0x0 SWAP1 DUP2 MSTORE PUSH1 0x1 PUSH1 0x20 MSTORE PUSH1 0x40 SWAP1 KECCAK256 SSTORE PUSH2 0x1262 DUP10 DUP10 DUP10 PUSH2 0x16D2 JUMP JUMPDEST POP POP POP POP POP POP POP POP POP JUMP JUMPDEST PUSH1 0x0 DUP1 PUSH1 0x0 DUP1 PUSH1 0x0 PUSH2 0x127E DUP7 PUSH2 0x10F6 JUMP JUMPDEST SWAP5 POP SWAP5 POP SWAP5 POP SWAP5 POP SWAP5 POP PUSH1 0x0 DUP1 PUSH2 0x1298 DUP9 DUP8 DUP8 DUP8 DUP8 PUSH2 0x1640 JUMP JUMPDEST POP POP POP PUSH1 0x1 PUSH1 0x1 PUSH1 0xA0 SHL SUB DUP13 AND PUSH1 0x0 SWAP1 DUP2 MSTORE PUSH1 0x1 PUSH1 0x20 MSTORE PUSH1 0x40 SWAP1 KECCAK256 SLOAD SWAP2 SWAP4 POP SWAP2 POP PUSH2 0x12C3 SWAP1 DUP4 PUSH2 0x16C6 JUMP JUMPDEST PUSH1 0x1 PUSH1 0x1 PUSH1 0xA0 SHL SUB DUP1 DUP13 AND PUSH1 0x0 SWAP1 DUP2 MSTORE PUSH1 0x1 PUSH1 0x20 SWAP1 DUP2 MSTORE PUSH1 0x40 DUP1 DUP4 KECCAK256 SWAP5 SWAP1 SWAP5 SSTORE SWAP2 DUP13 AND DUP2 MSTORE PUSH1 0x2 SWAP1 SWAP2 MSTORE KECCAK256 SLOAD PUSH2 0x12F9 SWAP1 DUP9 PUSH2 0x10EA JUMP JUMPDEST PUSH1 0x1 PUSH1 0x1 PUSH1 0xA0 SHL SUB DUP11 AND PUSH1 0x0 SWAP1 DUP2 MSTORE PUSH1 0x2 PUSH1 0x20 SWAP1 DUP2 MSTORE PUSH1 0x40 DUP1 DUP4 KECCAK256 SWAP4 SWAP1 SWAP4 SSTORE PUSH1 0x1 SWAP1 MSTORE KECCAK256 SLOAD PUSH2 0x1328 SWAP1 DUP3 PUSH2 0x10EA JUMP JUMPDEST PUSH1 0x1 PUSH1 0x1 PUSH1 0xA0 SHL SUB DUP11 AND PUSH1 0x0 SWAP1 DUP2 MSTORE PUSH1 0x1 PUSH1 0x20 MSTORE PUSH1 0x40 SWAP1 KECCAK256 SSTORE PUSH2 0x134C DUP11 DUP11 DUP11 PUSH2 0x16D2 JUMP JUMPDEST POP POP POP POP POP POP POP POP POP POP JUMP JUMPDEST PUSH1 0x0 DUP1 PUSH1 0x0 DUP1 PUSH2 0x1367 DUP6 PUSH2 0x10F6 JUMP JUMPDEST SWAP5 POP SWAP5 POP SWAP5 POP SWAP5 POP POP PUSH1 0x0 DUP1 PUSH2 0x1380 DUP8 DUP8 DUP8 DUP8 DUP8 PUSH2 0x1640 JUMP JUMPDEST POP POP POP PUSH1 0x1 PUSH1 0x1 PUSH1 0xA0 SHL SUB DUP12 AND PUSH1 0x0 SWAP1 DUP2 MSTORE PUSH1 0x1 PUSH1 0x20 MSTORE PUSH1 0x40 SWAP1 KECCAK256 SLOAD SWAP2 SWAP4 POP SWAP2 POP PUSH2 0x120F SWAP1 DUP4 PUSH2 0x16C6 JUMP JUMPDEST PUSH1 0x0 DUP1 PUSH1 0x0 DUP1 PUSH1 0x0 PUSH2 0x13BC DUP7 PUSH2 0x10F6 JUMP JUMPDEST SWAP5 POP SWAP5 POP SWAP5 POP SWAP5 POP SWAP5 POP PUSH1 0x0 DUP1 PUSH2 0x13D6 DUP9 DUP8 DUP8 DUP8 DUP8 PUSH2 0x1640 JUMP JUMPDEST POP POP POP PUSH1 0x1 PUSH1 0x1 PUSH1 0xA0 SHL SUB DUP13 AND PUSH1 0x0 SWAP1 DUP2 MSTORE PUSH1 0x2 PUSH1 0x20 MSTORE PUSH1 0x40 SWAP1 KECCAK256 SLOAD SWAP2 SWAP4 POP SWAP2 POP PUSH2 0x1401 SWAP1 DUP10 PUSH2 0x16C6 JUMP JUMPDEST PUSH1 0x1 PUSH1 0x1 PUSH1 0xA0 SHL SUB DUP12 AND PUSH1 0x0 SWAP1 DUP2 MSTORE PUSH1 0x2 PUSH1 0x20 SWAP1 DUP2 MSTORE PUSH1 0x40 DUP1 DUP4 KECCAK256 SWAP4 SWAP1 SWAP4 SSTORE PUSH1 0x1 SWAP1 MSTORE KECCAK256 SLOAD PUSH2 0x12C3 SWAP1 DUP4 PUSH2 0x16C6 JUMP JUMPDEST PUSH1 0xA SLOAD PUSH1 0x8 SLOAD PUSH1 0x0 SWAP2 DUP3 SWAP2 DUP3 JUMPDEST PUSH1 0x5 SLOAD DUP2 LT ISZERO PUSH2 0x15BA JUMPI DUP3 PUSH1 0x1 PUSH1 0x0 PUSH1 0x5 DUP5 DUP2 SLOAD DUP2 LT PUSH2 0x146D JUMPI PUSH4 0x4E487B71 PUSH1 0xE0 SHL PUSH1 0x0 MSTORE PUSH1 0x32 PUSH1 0x4 MSTORE PUSH1 0x24 PUSH1 0x0 REVERT JUMPDEST PUSH1 0x0 SWAP2 DUP3 MSTORE PUSH1 0x20 DUP1 DUP4 KECCAK256 SWAP1 SWAP2 ADD SLOAD PUSH1 0x1 PUSH1 0x1 PUSH1 0xA0 SHL SUB AND DUP4 MSTORE DUP3 ADD SWAP3 SWAP1 SWAP3 MSTORE PUSH1 0x40 ADD SWAP1 KECCAK256 SLOAD GT DUP1 PUSH2 0x14E6 JUMPI POP DUP2 PUSH1 0x2 PUSH1 0x0 PUSH1 0x5 DUP5 DUP2 SLOAD DUP2 LT PUSH2 0x14BF JUMPI PUSH4 0x4E487B71 PUSH1 0xE0 SHL PUSH1 0x0 MSTORE PUSH1 0x32 PUSH1 0x4 MSTORE PUSH1 0x24 PUSH1 0x0 REVERT JUMPDEST PUSH1 0x0 SWAP2 DUP3 MSTORE PUSH1 0x20 DUP1 DUP4 KECCAK256 SWAP1 SWAP2 ADD SLOAD PUSH1 0x1 PUSH1 0x1 PUSH1 0xA0 SHL SUB AND DUP4 MSTORE DUP3 ADD SWAP3 SWAP1 SWAP3 MSTORE PUSH1 0x40 ADD SWAP1 KECCAK256 SLOAD GT JUMPDEST ISZERO PUSH2 0x14FC JUMPI PUSH1 0xA SLOAD PUSH1 0x8 SLOAD SWAP5 POP SWAP5 POP POP POP POP SWAP1 SWAP2 JUMP JUMPDEST PUSH2 0x1550 PUSH1 0x1 PUSH1 0x0 PUSH1 0x5 DUP5 DUP2 SLOAD DUP2 LT PUSH2 0x1524 JUMPI PUSH4 0x4E487B71 PUSH1 0xE0 SHL PUSH1 0x0 MSTORE PUSH1 0x32 PUSH1 0x4 MSTORE PUSH1 0x24 PUSH1 0x0 REVERT JUMPDEST PUSH1 0x0 SWAP2 DUP3 MSTORE PUSH1 0x20 DUP1 DUP4 KECCAK256 SWAP1 SWAP2 ADD SLOAD PUSH1 0x1 PUSH1 0x1 PUSH1 0xA0 SHL SUB AND DUP4 MSTORE DUP3 ADD SWAP3 SWAP1 SWAP3 MSTORE PUSH1 0x40 ADD SWAP1 KECCAK256 SLOAD DUP5 SWAP1 PUSH2 0x16C6 JUMP JUMPDEST SWAP3 POP PUSH2 0x15A6 PUSH1 0x2 PUSH1 0x0 PUSH1 0x5 DUP5 DUP2 SLOAD DUP2 LT PUSH2 0x157A JUMPI PUSH4 0x4E487B71 PUSH1 0xE0 SHL PUSH1 0x0 MSTORE PUSH1 0x32 PUSH1 0x4 MSTORE PUSH1 0x24 PUSH1 0x0 REVERT JUMPDEST PUSH1 0x0 SWAP2 DUP3 MSTORE PUSH1 0x20 DUP1 DUP4 KECCAK256 SWAP1 SWAP2 ADD SLOAD PUSH1 0x1 PUSH1 0x1 PUSH1 0xA0 SHL SUB AND DUP4 MSTORE DUP3 ADD SWAP3 SWAP1 SWAP3 MSTORE PUSH1 0x40 ADD SWAP1 KECCAK256 SLOAD DUP4 SWAP1 PUSH2 0x16C6 JUMP JUMPDEST SWAP2 POP DUP1 PUSH2 0x15B2 DUP2 PUSH2 0x1DB1 JUMP JUMPDEST SWAP2 POP POP PUSH2 0x143D JUMP JUMPDEST POP PUSH1 0x8 SLOAD PUSH1 0xA SLOAD PUSH2 0x15CA SWAP2 PUSH2 0xCEE JUMP JUMPDEST DUP3 LT ISZERO PUSH2 0x15E1 JUMPI PUSH1 0xA SLOAD PUSH1 0x8 SLOAD SWAP4 POP SWAP4 POP POP POP SWAP1 SWAP2 JUMP JUMPDEST SWAP1 SWAP4 SWAP1 SWAP3 POP SWAP1 POP JUMP JUMPDEST PUSH1 0x0 DUP1 PUSH1 0x0 DUP1 PUSH1 0x0 DUP1 PUSH1 0x0 DUP1 PUSH2 0x15FF DUP10 PUSH2 0x1779 JUMP JUMPDEST SWAP3 POP SWAP3 POP SWAP3 POP PUSH1 0x0 PUSH2 0x1610 DUP11 PUSH2 0x17EC JUMP JUMPDEST SWAP1 POP PUSH1 0x0 PUSH2 0x1621 DUP12 DUP7 DUP7 DUP7 DUP7 PUSH2 0x1810 JUMP JUMPDEST SWAP5 SWAP12 SWAP4 SWAP11 POP SWAP2 SWAP9 POP SWAP7 POP SWAP2 SWAP5 POP SWAP3 POP POP POP JUMP JUMPDEST PUSH1 0x0 PUSH2 0x57B DUP3 DUP5 PUSH2 0x1D7B JUMP JUMPDEST PUSH1 0x0 DUP1 PUSH1 0x0 DUP1 PUSH1 0x0 DUP1 PUSH2 0x1651 PUSH2 0x10C7 JUMP JUMPDEST SWAP1 POP PUSH1 0x0 PUSH2 0x165F DUP13 DUP4 PUSH2 0x1836 JUMP JUMPDEST SWAP1 POP PUSH1 0x0 PUSH2 0x166D DUP13 DUP5 PUSH2 0x1836 JUMP JUMPDEST SWAP1 POP PUSH1 0x0 PUSH2 0x167B DUP13 DUP6 PUSH2 0x1836 JUMP JUMPDEST SWAP1 POP PUSH1 0x0 PUSH2 0x1689 DUP13 DUP7 PUSH2 0x1836 JUMP JUMPDEST SWAP1 POP PUSH1 0x0 PUSH2 0x1697 DUP13 DUP8 PUSH2 0x1836 JUMP JUMPDEST SWAP1 POP PUSH1 0x0 PUSH2 0x16A8 DUP7 DUP7 DUP7 DUP7 DUP7 PUSH2 0x1810 JUMP JUMPDEST SWAP6 SWAP12 POP SWAP5 SWAP10 POP SWAP3 SWAP8 POP SWAP1 SWAP6 POP SWAP4 POP POP POP POP SWAP6 POP SWAP6 POP SWAP6 POP SWAP6 POP SWAP6 SWAP1 POP JUMP JUMPDEST PUSH1 0x0 PUSH2 0x57B DUP3 DUP5 PUSH2 0x1D9A JUMP JUMPDEST PUSH1 0x0 DUP1 PUSH1 0x0 DUP1 PUSH1 0x0 PUSH2 0x16E3 DUP7 PUSH2 0x10F6 JUMP JUMPDEST SWAP5 POP SWAP5 POP SWAP5 POP SWAP5 POP SWAP5 POP PUSH1 0x0 DUP1 PUSH1 0x0 PUSH2 0x16FF DUP10 DUP9 DUP9 DUP9 DUP9 PUSH2 0x1640 JUMP JUMPDEST SWAP5 POP SWAP5 POP SWAP5 POP POP POP PUSH2 0x1711 DUP4 DUP9 PUSH2 0x184B JUMP JUMPDEST PUSH2 0x171C DUP12 DUP8 DUP5 PUSH2 0x186F JUMP JUMPDEST PUSH2 0x1727 DUP12 DUP7 DUP4 PUSH2 0x198A JUMP JUMPDEST PUSH2 0x1731 DUP12 DUP6 PUSH2 0x1AA5 JUMP JUMPDEST DUP10 PUSH1 0x1 PUSH1 0x1 PUSH1 0xA0 SHL SUB AND DUP12 PUSH1 0x1 PUSH1 0x1 PUSH1 0xA0 SHL SUB AND PUSH1 0x0 DUP1 MLOAD PUSH1 0x20 PUSH2 0x1E0B DUP4 CODECOPY DUP2 MLOAD SWAP2 MSTORE DUP11 PUSH1 0x40 MLOAD PUSH2 0x1764 SWAP2 DUP2 MSTORE PUSH1 0x20 ADD SWAP1 JUMP JUMPDEST PUSH1 0x40 MLOAD DUP1 SWAP2 SUB SWAP1 LOG3 POP POP POP POP POP POP POP POP POP POP POP JUMP JUMPDEST PUSH1 0x0 DUP1 PUSH1 0x0 DUP1 PUSH2 0x17A0 PUSH2 0x3E8 PUSH2 0x179A PUSH1 0x10 SLOAD DUP9 PUSH2 0x1634 SWAP1 SWAP2 SWAP1 PUSH4 0xFFFFFFFF AND JUMP JUMPDEST SWAP1 PUSH2 0xCEE JUMP JUMPDEST SWAP1 POP PUSH1 0x0 PUSH2 0x17BF PUSH2 0x3E8 PUSH2 0x179A PUSH1 0xC SLOAD DUP10 PUSH2 0x1634 SWAP1 SWAP2 SWAP1 PUSH4 0xFFFFFFFF AND JUMP JUMPDEST SWAP1 POP PUSH1 0x0 PUSH2 0x17DE PUSH2 0x3E8 PUSH2 0x179A PUSH1 0xE SLOAD DUP11 PUSH2 0x1634 SWAP1 SWAP2 SWAP1 PUSH4 0xFFFFFFFF AND JUMP JUMPDEST SWAP3 SWAP8 SWAP2 SWAP7 POP SWAP2 SWAP5 POP SWAP3 POP POP POP JUMP JUMPDEST PUSH1 0x0 DUP1 PUSH2 0x57B PUSH1 0x12 SLOAD PUSH2 0x180A PUSH2 0x2710 DUP7 PUSH2 0xCEE SWAP1 SWAP2 SWAP1 PUSH4 0xFFFFFFFF AND JUMP JUMPDEST SWAP1 PUSH2 0x1634 JUMP JUMPDEST PUSH1 0x0 DUP1 PUSH2 0x182B DUP4 PUSH2 0x1825 DUP7 DUP2 DUP10 DUP2 DUP14 DUP14 PUSH2 0x16C6 JUMP JUMPDEST SWAP1 PUSH2 0x16C6 JUMP JUMPDEST SWAP8 SWAP7 POP POP POP POP POP POP POP JUMP JUMPDEST PUSH1 0x0 DUP1 PUSH2 0x1843 DUP5 DUP5 PUSH2 0x1634 JUMP JUMPDEST SWAP5 SWAP4 POP POP POP POP JUMP JUMPDEST PUSH1 0xA SLOAD PUSH2 0x1858 SWAP1 DUP4 PUSH2 0x16C6 JUMP JUMPDEST PUSH1 0xA SSTORE PUSH1 0xB SLOAD PUSH2 0x1868 SWAP1 DUP3 PUSH2 0x10EA JUMP JUMPDEST PUSH1 0xB SSTORE POP POP JUMP JUMPDEST DUP2 ISZERO PUSH2 0xF98 JUMPI PUSH1 0x7 SLOAD PUSH1 0x1 PUSH1 0x1 PUSH1 0xA0 SHL SUB AND PUSH1 0x0 SWAP1 DUP2 MSTORE PUSH1 0x4 PUSH1 0x20 MSTORE PUSH1 0x40 SWAP1 KECCAK256 SLOAD PUSH1 0xFF AND ISZERO PUSH2 0x1919 JUMPI PUSH1 0x7 SLOAD PUSH1 0x1 PUSH1 0x1 PUSH1 0xA0 SHL SUB AND PUSH1 0x0 SWAP1 DUP2 MSTORE PUSH1 0x2 PUSH1 0x20 MSTORE PUSH1 0x40 SWAP1 KECCAK256 SLOAD PUSH2 0x18BD SWAP1 DUP4 PUSH2 0x10EA JUMP JUMPDEST PUSH1 0x7 DUP1 SLOAD PUSH1 0x1 PUSH1 0x1 PUSH1 0xA0 SHL SUB SWAP1 DUP2 AND PUSH1 0x0 SWAP1 DUP2 MSTORE PUSH1 0x2 PUSH1 0x20 SWAP1 DUP2 MSTORE PUSH1 0x40 DUP1 DUP4 KECCAK256 SWAP6 SWAP1 SWAP6 SSTORE SWAP3 SLOAD SWAP1 SWAP2 AND DUP2 MSTORE PUSH1 0x1 SWAP1 SWAP2 MSTORE KECCAK256 SLOAD PUSH2 0x18F9 SWAP1 DUP3 PUSH2 0x10EA JUMP JUMPDEST PUSH1 0x7 SLOAD PUSH1 0x1 PUSH1 0x1 PUSH1 0xA0 SHL SUB AND PUSH1 0x0 SWAP1 DUP2 MSTORE PUSH1 0x1 PUSH1 0x20 MSTORE PUSH1 0x40 SWAP1 KECCAK256 SSTORE PUSH2 0x195A JUMP JUMPDEST PUSH1 0x7 SLOAD PUSH1 0x1 PUSH1 0x1 PUSH1 0xA0 SHL SUB AND PUSH1 0x0 SWAP1 DUP2 MSTORE PUSH1 0x1 PUSH1 0x20 MSTORE PUSH1 0x40 SWAP1 KECCAK256 SLOAD PUSH2 0x193E SWAP1 DUP3 PUSH2 0x10EA JUMP JUMPDEST PUSH1 0x7 SLOAD PUSH1 0x1 PUSH1 0x1 PUSH1 0xA0 SHL SUB AND PUSH1 0x0 SWAP1 DUP2 MSTORE PUSH1 0x1 PUSH1 0x20 MSTORE PUSH1 0x40 SWAP1 KECCAK256 SSTORE JUMPDEST PUSH1 0x7 SLOAD PUSH1 0x40 MLOAD DUP4 DUP2 MSTORE PUSH1 0x1 PUSH1 0x1 PUSH1 0xA0 SHL SUB SWAP2 DUP3 AND SWAP2 DUP6 AND SWAP1 PUSH1 0x0 DUP1 MLOAD PUSH1 0x20 PUSH2 0x1E0B DUP4 CODECOPY DUP2 MLOAD SWAP2 MSTORE SWAP1 PUSH1 0x20 ADD PUSH2 0xE12 JUMP JUMPDEST DUP2 ISZERO PUSH2 0xF98 JUMPI PUSH1 0x6 SLOAD PUSH1 0x1 PUSH1 0x1 PUSH1 0xA0 SHL SUB AND PUSH1 0x0 SWAP1 DUP2 MSTORE PUSH1 0x4 PUSH1 0x20 MSTORE PUSH1 0x40 SWAP1 KECCAK256 SLOAD PUSH1 0xFF AND ISZERO PUSH2 0x1A34 JUMPI PUSH1 0x6 SLOAD PUSH1 0x1 PUSH1 0x1 PUSH1 0xA0 SHL SUB AND PUSH1 0x0 SWAP1 DUP2 MSTORE PUSH1 0x2 PUSH1 0x20 MSTORE PUSH1 0x40 SWAP1 KECCAK256 SLOAD PUSH2 0x19D8 SWAP1 DUP4 PUSH2 0x10EA JUMP JUMPDEST PUSH1 0x6 DUP1 SLOAD PUSH1 0x1 PUSH1 0x1 PUSH1 0xA0 SHL SUB SWAP1 DUP2 AND PUSH1 0x0 SWAP1 DUP2 MSTORE PUSH1 0x2 PUSH1 0x20 SWAP1 DUP2 MSTORE PUSH1 0x40 DUP1 DUP4 KECCAK256 SWAP6 SWAP1 SWAP6 SSTORE SWAP3 SLOAD SWAP1 SWAP2 AND DUP2 MSTORE PUSH1 0x1 SWAP1 SWAP2 MSTORE KECCAK256 SLOAD PUSH2 0x1A14 SWAP1 DUP3 PUSH2 0x10EA JUMP JUMPDEST PUSH1 0x6 SLOAD PUSH1 0x1 PUSH1 0x1 PUSH1 0xA0 SHL SUB AND PUSH1 0x0 SWAP1 DUP2 MSTORE PUSH1 0x1 PUSH1 0x20 MSTORE PUSH1 0x40 SWAP1 KECCAK256 SSTORE PUSH2 0x1A75 JUMP JUMPDEST PUSH1 0x6 SLOAD PUSH1 0x1 PUSH1 0x1 PUSH1 0xA0 SHL SUB AND PUSH1 0x0 SWAP1 DUP2 MSTORE PUSH1 0x1 PUSH1 0x20 MSTORE PUSH1 0x40 SWAP1 KECCAK256 SLOAD PUSH2 0x1A59 SWAP1 DUP3 PUSH2 0x10EA JUMP JUMPDEST PUSH1 0x6 SLOAD PUSH1 0x1 PUSH1 0x1 PUSH1 0xA0 SHL SUB AND PUSH1 0x0 SWAP1 DUP2 MSTORE PUSH1 0x1 PUSH1 0x20 MSTORE PUSH1 0x40 SWAP1 KECCAK256 SSTORE JUMPDEST PUSH1 0x6 SLOAD PUSH1 0x40 MLOAD DUP4 DUP2 MSTORE PUSH1 0x1 PUSH1 0x1 PUSH1 0xA0 SHL SUB SWAP2 DUP3 AND SWAP2 DUP6 AND SWAP1 PUSH1 0x0 DUP1 MLOAD PUSH1 0x20 PUSH2 0x1E0B DUP4 CODECOPY DUP2 MLOAD SWAP2 MSTORE SWAP1 PUSH1 0x20 ADD PUSH2 0xE12 JUMP JUMPDEST PUSH1 0x1 PUSH1 0x1 PUSH1 0xA0 SHL SUB DUP3 AND PUSH2 0x1B05 JUMPI PUSH1 0x40 MLOAD PUSH3 0x461BCD PUSH1 0xE5 SHL DUP2 MSTORE PUSH1 0x20 PUSH1 0x4 DUP3 ADD MSTORE PUSH1 0x21 PUSH1 0x24 DUP3 ADD MSTORE PUSH32 0x45524332303A206275726E2066726F6D20746865207A65726F20616464726573 PUSH1 0x44 DUP3 ADD MSTORE PUSH1 0x73 PUSH1 0xF8 SHL PUSH1 0x64 DUP3 ADD MSTORE PUSH1 0x84 ADD PUSH2 0x55C JUMP JUMPDEST PUSH1 0x0 PUSH2 0x1B0F PUSH2 0x10C7 JUMP JUMPDEST SWAP1 POP PUSH1 0x0 PUSH2 0x1B1D DUP4 DUP4 PUSH2 0x1634 JUMP JUMPDEST PUSH1 0x8 SLOAD SWAP1 SWAP2 POP PUSH2 0x1B2D SWAP1 DUP5 PUSH2 0x16C6 JUMP JUMPDEST PUSH1 0x8 SSTORE PUSH1 0xA SLOAD PUSH2 0x1B3D SWAP1 DUP3 PUSH2 0x16C6 JUMP JUMPDEST PUSH1 0xA SSTORE DUP3 ISZERO PUSH2 0x1B76 JUMPI PUSH1 0x40 MLOAD DUP4 DUP2 MSTORE PUSH1 0x0 SWAP1 PUSH1 0x1 PUSH1 0x1 PUSH1 0xA0 SHL SUB DUP7 AND SWAP1 PUSH1 0x0 DUP1 MLOAD PUSH1 0x20 PUSH2 0x1E0B DUP4 CODECOPY DUP2 MLOAD SWAP2 MSTORE SWAP1 PUSH1 0x20 ADD PUSH1 0x40 MLOAD DUP1 SWAP2 SUB SWAP1 LOG3 JUMPDEST POP POP POP POP JUMP JUMPDEST DUP1 CALLDATALOAD PUSH1 0x1 PUSH1 0x1 PUSH1 0xA0 SHL SUB DUP2 AND DUP2 EQ PUSH2 0x1B93 JUMPI PUSH1 0x0 DUP1 REVERT JUMPDEST SWAP2 SWAP1 POP JUMP JUMPDEST DUP1 CALLDATALOAD DUP1 ISZERO ISZERO DUP2 EQ PUSH2 0x1B93 JUMPI PUSH1 0x0 DUP1 REVERT JUMPDEST PUSH1 0x0 PUSH1 0x20 DUP3 DUP5 SUB SLT ISZERO PUSH2 0x1BB9 JUMPI DUP1 DUP2 REVERT JUMPDEST PUSH2 0x57B DUP3 PUSH2 0x1B7C JUMP JUMPDEST PUSH1 0x0 DUP1 PUSH1 0x40 DUP4 DUP6 SUB SLT ISZERO PUSH2 0x1BD4 JUMPI DUP1 DUP2 REVERT JUMPDEST PUSH2 0x1BDD DUP4 PUSH2 0x1B7C JUMP JUMPDEST SWAP2 POP PUSH2 0x1BEB PUSH1 0x20 DUP5 ADD PUSH2 0x1B7C JUMP JUMPDEST SWAP1 POP SWAP3 POP SWAP3 SWAP1 POP JUMP JUMPDEST PUSH1 0x0 DUP1 PUSH1 0x0 PUSH1 0x60 DUP5 DUP7 SUB SLT ISZERO PUSH2 0x1C08 JUMPI DUP1 DUP2 REVERT JUMPDEST PUSH2 0x1C11 DUP5 PUSH2 0x1B7C JUMP JUMPDEST SWAP3 POP PUSH2 0x1C1F PUSH1 0x20 DUP6 ADD PUSH2 0x1B7C JUMP JUMPDEST SWAP2 POP PUSH1 0x40 DUP5 ADD CALLDATALOAD SWAP1 POP SWAP3 POP SWAP3 POP SWAP3 JUMP JUMPDEST PUSH1 0x0 DUP1 PUSH1 0x40 DUP4 DUP6 SUB SLT ISZERO PUSH2 0x1C41 JUMPI DUP2 DUP3 REVERT JUMPDEST PUSH2 0x1C4A DUP4 PUSH2 0x1B7C JUMP JUMPDEST SWAP2 POP PUSH2 0x1BEB PUSH1 0x20 DUP5 ADD PUSH2 0x1B98 JUMP JUMPDEST PUSH1 0x0 DUP1 PUSH1 0x40 DUP4 DUP6 SUB SLT ISZERO PUSH2 0x1C6A JUMPI DUP2 DUP3 REVERT JUMPDEST PUSH2 0x1C73 DUP4 PUSH2 0x1B7C JUMP JUMPDEST SWAP5 PUSH1 0x20 SWAP4 SWAP1 SWAP4 ADD CALLDATALOAD SWAP4 POP POP POP JUMP JUMPDEST PUSH1 0x0 PUSH1 0x20 DUP3 DUP5 SUB SLT ISZERO PUSH2 0x1C92 JUMPI DUP1 DUP2 REVERT JUMPDEST POP CALLDATALOAD SWAP2 SWAP1 POP JUMP JUMPDEST PUSH1 0x0 DUP1 PUSH1 0x40 DUP4 DUP6 SUB SLT ISZERO PUSH2 0x1CAB JUMPI DUP2 DUP3 REVERT JUMPDEST DUP3 CALLDATALOAD SWAP2 POP PUSH2 0x1BEB PUSH1 0x20 DUP5 ADD PUSH2 0x1B98 JUMP JUMPDEST PUSH1 0x0 PUSH1 0x20 DUP1 DUP4 MSTORE DUP4 MLOAD DUP1 DUP3 DUP6 ADD MSTORE DUP3 JUMPDEST DUP2 DUP2 LT ISZERO PUSH2 0x1CE7 JUMPI DUP6 DUP2 ADD DUP4 ADD MLOAD DUP6 DUP3 ADD PUSH1 0x40 ADD MSTORE DUP3 ADD PUSH2 0x1CCB JUMP JUMPDEST DUP2 DUP2 GT ISZERO PUSH2 0x1CF8 JUMPI DUP4 PUSH1 0x40 DUP4 DUP8 ADD ADD MSTORE JUMPDEST POP PUSH1 0x1F ADD PUSH1 0x1F NOT AND SWAP3 SWAP1 SWAP3 ADD PUSH1 0x40 ADD SWAP4 SWAP3 POP POP POP JUMP JUMPDEST PUSH1 0x20 DUP1 DUP3 MSTORE DUP2 DUP2 ADD MSTORE PUSH32 0x4F776E61626C653A2063616C6C6572206973206E6F7420746865206F776E6572 PUSH1 0x40 DUP3 ADD MSTORE PUSH1 0x60 ADD SWAP1 JUMP JUMPDEST PUSH1 0x0 DUP3 NOT DUP3 GT ISZERO PUSH2 0x1D56 JUMPI PUSH2 0x1D56 PUSH2 0x1DCC JUMP JUMPDEST POP ADD SWAP1 JUMP JUMPDEST PUSH1 0x0 DUP3 PUSH2 0x1D76 JUMPI PUSH4 0x4E487B71 PUSH1 0xE0 SHL DUP2 MSTORE PUSH1 0x12 PUSH1 0x4 MSTORE PUSH1 0x24 DUP2 REVERT JUMPDEST POP DIV SWAP1 JUMP JUMPDEST PUSH1 0x0 DUP2 PUSH1 0x0 NOT DIV DUP4 GT DUP3 ISZERO ISZERO AND ISZERO PUSH2 0x1D95 JUMPI PUSH2 0x1D95 PUSH2 0x1DCC JUMP JUMPDEST POP MUL SWAP1 JUMP JUMPDEST PUSH1 0x0 DUP3 DUP3 LT ISZERO PUSH2 0x1DAC JUMPI PUSH2 0x1DAC PUSH2 0x1DCC JUMP JUMPDEST POP SUB SWAP1 JUMP JUMPDEST PUSH1 0x0 PUSH1 0x0 NOT DUP3 EQ ISZERO PUSH2 0x1DC5 JUMPI PUSH2 0x1DC5 PUSH2 0x1DCC JUMP JUMPDEST POP PUSH1 0x1 ADD SWAP1 JUMP JUMPDEST PUSH4 0x4E487B71 PUSH1 0xE0 SHL PUSH1 0x0 MSTORE PUSH1 0x11 PUSH1 0x4 MSTORE PUSH1 0x24 PUSH1 0x0 REVERT INVALID GASLIMIT MSTORE NUMBER ORIGIN ADDRESS GASPRICE KECCAK256 PUSH21 0x72616E7366657220616D6F756E7420657863656564 PUSH20 0x20616C6C6F77616E6365DDF252AD1BE2C89B69C2 0xB0 PUSH9 0xFC378DAA952BA7F163 0xC4 LOG1 AND 0x28 CREATE2 GAS 0x4D CREATE2 0x23 0xB3 0xEF GASLIMIT MSTORE NUMBER ORIGIN ADDRESS GASPRICE KECCAK256 PUSH5 0x6563726561 PUSH20 0x656420616C6C6F77616E63652062656C6F77207A PUSH6 0x726FA2646970 PUSH7 0x7358221220CF70 LOG2 RETURNDATACOPY MLOAD 0xEE 0xF7 PUSH26 0x5B5B4B732AE0F302A8A39E462C3B31F0B6ACEDD8E2A15D046473 PUSH16 0x6C634300080400330000000000000000 "
		},
		"gasEstimates": {
			"creation": {
				"codeDepositCost": "1562600",
				"executionCost": "infinite",
				"totalCost": "infinite"
			},
			"external": {
				"_bFee()": "1063",
				"_cFee()": "1040",
				"_dFee()": "1040",
				"_previousBFee()": "1039",
				"_previousCFee()": "1040",
				"_previousDFee()": "1106",
				"_previousTFee()": "1085",
				"_tFee()": "1106",
				"allowance(address,address)": "infinite",
				"approve(address,uint256)": "22567",
				"balanceOf(address)": "infinite",
				"decimals()": "272",
				"decreaseAllowance(address,uint256)": "infinite",
				"excludeAccount(address)": "infinite",
				"excludeFromFee(address,bool)": "infinite",
				"excludedFeeAccounts(address)": "1299",
				"includeAccount(address)": "infinite",
				"increaseAllowance(address,uint256)": "23668",
				"isExcluded(address)": "1316",
				"mint(uint256)": "infinite",
				"name()": "infinite",
				"owner()": "1047",
				"reflectionFromToken(uint256,bool)": "infinite",
				"renounceOwnership()": "24254",
				"symbol()": "infinite",
				"tokenFromReflection(uint256)": "infinite",
				"totalFees()": "1072",
				"totalSupply()": "1038",
				"transfer(address,uint256)": "infinite",
				"transferFrom(address,address,uint256)": "infinite",
				"transferOwnership(address)": "24488"
			},
			"internal": {
				"_absorbFee(uint256,uint256)": "infinite",
				"_absorbTransfer(address,address,uint256)": "infinite",
				"_approve(address,address,uint256)": "infinite",
				"_burn(address,uint256)": "infinite",
				"_communicationFee(address,uint256,uint256)": "infinite",
				"_devFee(address,uint256,uint256)": "infinite",
				"_getBurningValues(uint256)": "infinite",
				"_getCurrentSupply()": "infinite",
				"_getRAmountValues(uint256,uint256)": "166",
				"_getRBurningAmountValue(uint256,uint256)": "infinite",
				"_getRDFeeValues(uint256,uint256)": "infinite",
				"_getRFeeValues(uint256,uint256)": "infinite",
				"_getRTransfertAmountValue(uint256,uint256,uint256,uint256,uint256)": "infinite",
				"_getRValues(uint256,uint256,uint256,uint256,uint256)": "infinite",
				"_getRate()": "infinite",
				"_getRcFeeValues(uint256,uint256)": "infinite",
				"_getTDBValues(uint256)": "infinite",
				"_getTDValues(uint256)": "infinite",
				"_getTransfertAmountValues(uint256,uint256,uint256,uint256,uint256)": "infinite",
				"_getValues(uint256)": "infinite",
				"_transfer(address,address,uint256)": "infinite",
				"_transferBothExcluded(address,address,uint256)": "infinite",
				"_transferFromExcluded(address,address,uint256)": "infinite",
				"_transferStandard(address,address,uint256)": "infinite",
				"_transferToExcluded(address,address,uint256)": "infinite",
				"addSupply(uint256)": "infinite",
				"removeFee()": "infinite",
				"restoreFee()": "infinite"
			}
		},
		"methodIdentifiers": {
			"_bFee()": "1fe0371e",
			"_cFee()": "c94656f6",
			"_dFee()": "5345ef04",
			"_previousBFee()": "eca1442d",
			"_previousCFee()": "a0aaee9d",
			"_previousDFee()": "c6312d9f",
			"_previousTFee()": "23636720",
			"_tFee()": "8bf2f981",
			"allowance(address,address)": "dd62ed3e",
			"approve(address,uint256)": "095ea7b3",
			"balanceOf(address)": "70a08231",
			"decimals()": "313ce567",
			"decreaseAllowance(address,uint256)": "a457c2d7",
			"excludeAccount(address)": "f2cc0c18",
			"excludeFromFee(address,bool)": "df8408fe",
			"excludedFeeAccounts(address)": "91b04b2a",
			"includeAccount(address)": "f84354f1",
			"increaseAllowance(address,uint256)": "39509351",
			"isExcluded(address)": "cba0e996",
			"mint(uint256)": "a0712d68",
			"name()": "06fdde03",
			"owner()": "8da5cb5b",
			"reflectionFromToken(uint256,bool)": "4549b039",
			"renounceOwnership()": "715018a6",
			"symbol()": "95d89b41",
			"tokenFromReflection(uint256)": "2d838119",
			"totalFees()": "13114a9d",
			"totalSupply()": "18160ddd",
			"transfer(address,uint256)": "a9059cbb",
			"transferFrom(address,address,uint256)": "23b872dd",
			"transferOwnership(address)": "f2fde38b"
		}
	},
	"abi": [
		{
			"inputs": [],
			"stateMutability": "nonpayable",
			"type": "constructor"
		},
		{
			"anonymous": false,
			"inputs": [
				{
					"indexed": true,
					"internalType": "address",
					"name": "owner",
					"type": "address"
				},
				{
					"indexed": true,
					"internalType": "address",
					"name": "spender",
					"type": "address"
				},
				{
					"indexed": false,
					"internalType": "uint256",
					"name": "value",
					"type": "uint256"
				}
			],
			"name": "Approval",
			"type": "event"
		},
		{
			"anonymous": false,
			"inputs": [
				{
					"indexed": true,
					"internalType": "address",
					"name": "previousOwner",
					"type": "address"
				},
				{
					"indexed": true,
					"internalType": "address",
					"name": "newOwner",
					"type": "address"
				}
			],
			"name": "OwnershipTransferred",
			"type": "event"
		},
		{
			"anonymous": false,
			"inputs": [
				{
					"indexed": true,
					"internalType": "address",
					"name": "from",
					"type": "address"
				},
				{
					"indexed": true,
					"internalType": "address",
					"name": "to",
					"type": "address"
				},
				{
					"indexed": false,
					"internalType": "uint256",
					"name": "value",
					"type": "uint256"
				}
			],
			"name": "Transfer",
			"type": "event"
		},
		{
			"inputs": [],
			"name": "_bFee",
			"outputs": [
				{
					"internalType": "uint256",
					"name": "",
					"type": "uint256"
				}
			],
			"stateMutability": "view",
			"type": "function"
		},
		{
			"inputs": [],
			"name": "_cFee",
			"outputs": [
				{
					"internalType": "uint256",
					"name": "",
					"type": "uint256"
				}
			],
			"stateMutability": "view",
			"type": "function"
		},
		{
			"inputs": [],
			"name": "_dFee",
			"outputs": [
				{
					"internalType": "uint256",
					"name": "",
					"type": "uint256"
				}
			],
			"stateMutability": "view",
			"type": "function"
		},
		{
			"inputs": [],
			"name": "_previousBFee",
			"outputs": [
				{
					"internalType": "uint256",
					"name": "",
					"type": "uint256"
				}
			],
			"stateMutability": "view",
			"type": "function"
		},
		{
			"inputs": [],
			"name": "_previousCFee",
			"outputs": [
				{
					"internalType": "uint256",
					"name": "",
					"type": "uint256"
				}
			],
			"stateMutability": "view",
			"type": "function"
		},
		{
			"inputs": [],
			"name": "_previousDFee",
			"outputs": [
				{
					"internalType": "uint256",
					"name": "",
					"type": "uint256"
				}
			],
			"stateMutability": "view",
			"type": "function"
		},
		{
			"inputs": [],
			"name": "_previousTFee",
			"outputs": [
				{
					"internalType": "uint256",
					"name": "",
					"type": "uint256"
				}
			],
			"stateMutability": "view",
			"type": "function"
		},
		{
			"inputs": [],
			"name": "_tFee",
			"outputs": [
				{
					"internalType": "uint256",
					"name": "",
					"type": "uint256"
				}
			],
			"stateMutability": "view",
			"type": "function"
		},
		{
			"inputs": [
				{
					"internalType": "address",
					"name": "owner",
					"type": "address"
				},
				{
					"internalType": "address",
					"name": "spender",
					"type": "address"
				}
			],
			"name": "allowance",
			"outputs": [
				{
					"internalType": "uint256",
					"name": "",
					"type": "uint256"
				}
			],
			"stateMutability": "view",
			"type": "function"
		},
		{
			"inputs": [
				{
					"internalType": "address",
					"name": "spender",
					"type": "address"
				},
				{
					"internalType": "uint256",
					"name": "amount",
					"type": "uint256"
				}
			],
			"name": "approve",
			"outputs": [
				{
					"internalType": "bool",
					"name": "",
					"type": "bool"
				}
			],
			"stateMutability": "nonpayable",
			"type": "function"
		},
		{
			"inputs": [
				{
					"internalType": "address",
					"name": "account",
					"type": "address"
				}
			],
			"name": "balanceOf",
			"outputs": [
				{
					"internalType": "uint256",
					"name": "",
					"type": "uint256"
				}
			],
			"stateMutability": "view",
			"type": "function"
		},
		{
			"inputs": [],
			"name": "decimals",
			"outputs": [
				{
					"internalType": "uint8",
					"name": "",
					"type": "uint8"
				}
			],
			"stateMutability": "view",
			"type": "function"
		},
		{
			"inputs": [
				{
					"internalType": "address",
					"name": "spender",
					"type": "address"
				},
				{
					"internalType": "uint256",
					"name": "subtractedValue",
					"type": "uint256"
				}
			],
			"name": "decreaseAllowance",
			"outputs": [
				{
					"internalType": "bool",
					"name": "",
					"type": "bool"
				}
			],
			"stateMutability": "nonpayable",
			"type": "function"
		},
		{
			"inputs": [
				{
					"internalType": "address",
					"name": "account",
					"type": "address"
				}
			],
			"name": "excludeAccount",
			"outputs": [],
			"stateMutability": "nonpayable",
			"type": "function"
		},
		{
			"inputs": [
				{
					"internalType": "address",
					"name": "account",
					"type": "address"
				},
				{
					"internalType": "bool",
					"name": "exclude",
					"type": "bool"
				}
			],
			"name": "excludeFromFee",
			"outputs": [],
			"stateMutability": "nonpayable",
			"type": "function"
		},
		{
			"inputs": [
				{
					"internalType": "address",
					"name": "",
					"type": "address"
				}
			],
			"name": "excludedFeeAccounts",
			"outputs": [
				{
					"internalType": "bool",
					"name": "",
					"type": "bool"
				}
			],
			"stateMutability": "view",
			"type": "function"
		},
		{
			"inputs": [
				{
					"internalType": "address",
					"name": "account",
					"type": "address"
				}
			],
			"name": "includeAccount",
			"outputs": [],
			"stateMutability": "nonpayable",
			"type": "function"
		},
		{
			"inputs": [
				{
					"internalType": "address",
					"name": "spender",
					"type": "address"
				},
				{
					"internalType": "uint256",
					"name": "addedValue",
					"type": "uint256"
				}
			],
			"name": "increaseAllowance",
			"outputs": [
				{
					"internalType": "bool",
					"name": "",
					"type": "bool"
				}
			],
			"stateMutability": "nonpayable",
			"type": "function"
		},
		{
			"inputs": [
				{
					"internalType": "address",
					"name": "account",
					"type": "address"
				}
			],
			"name": "isExcluded",
			"outputs": [
				{
					"internalType": "bool",
					"name": "",
					"type": "bool"
				}
			],
			"stateMutability": "view",
			"type": "function"
		},
		{
			"inputs": [
				{
					"internalType": "uint256",
					"name": "tAMount",
					"type": "uint256"
				}
			],
			"name": "mint",
			"outputs": [],
			"stateMutability": "nonpayable",
			"type": "function"
		},
		{
			"inputs": [],
			"name": "name",
			"outputs": [
				{
					"internalType": "string",
					"name": "",
					"type": "string"
				}
			],
			"stateMutability": "view",
			"type": "function"
		},
		{
			"inputs": [],
			"name": "owner",
			"outputs": [
				{
					"internalType": "address",
					"name": "",
					"type": "address"
				}
			],
			"stateMutability": "view",
			"type": "function"
		},
		{
			"inputs": [
				{
					"internalType": "uint256",
					"name": "tAmount",
					"type": "uint256"
				},
				{
					"internalType": "bool",
					"name": "deductTransferFee",
					"type": "bool"
				}
			],
			"name": "reflectionFromToken",
			"outputs": [
				{
					"internalType": "uint256",
					"name": "",
					"type": "uint256"
				}
			],
			"stateMutability": "view",
			"type": "function"
		},
		{
			"inputs": [],
			"name": "renounceOwnership",
			"outputs": [],
			"stateMutability": "nonpayable",
			"type": "function"
		},
		{
			"inputs": [],
			"name": "symbol",
			"outputs": [
				{
					"internalType": "string",
					"name": "",
					"type": "string"
				}
			],
			"stateMutability": "view",
			"type": "function"
		},
		{
			"inputs": [
				{
					"internalType": "uint256",
					"name": "rAmount",
					"type": "uint256"
				}
			],
			"name": "tokenFromReflection",
			"outputs": [
				{
					"internalType": "uint256",
					"name": "",
					"type": "uint256"
				}
			],
			"stateMutability": "view",
			"type": "function"
		},
		{
			"inputs": [],
			"name": "totalFees",
			"outputs": [
				{
					"internalType": "uint256",
					"name": "",
					"type": "uint256"
				}
			],
			"stateMutability": "view",
			"type": "function"
		},
		{
			"inputs": [],
			"name": "totalSupply",
			"outputs": [
				{
					"internalType": "uint256",
					"name": "",
					"type": "uint256"
				}
			],
			"stateMutability": "view",
			"type": "function"
		},
		{
			"inputs": [
				{
					"internalType": "address",
					"name": "recipient",
					"type": "address"
				},
				{
					"internalType": "uint256",
					"name": "amount",
					"type": "uint256"
				}
			],
			"name": "transfer",
			"outputs": [
				{
					"internalType": "bool",
					"name": "",
					"type": "bool"
				}
			],
			"stateMutability": "nonpayable",
			"type": "function"
		},
		{
			"inputs": [
				{
					"internalType": "address",
					"name": "sender",
					"type": "address"
				},
				{
					"internalType": "address",
					"name": "recipient",
					"type": "address"
				},
				{
					"internalType": "uint256",
					"name": "amount",
					"type": "uint256"
				}
			],
			"name": "transferFrom",
			"outputs": [
				{
					"internalType": "bool",
					"name": "",
					"type": "bool"
				}
			],
			"stateMutability": "nonpayable",
			"type": "function"
		},
		{
			"inputs": [
				{
					"internalType": "address",
					"name": "newOwner",
					"type": "address"
				}
			],
			"name": "transferOwnership",
			"outputs": [],
			"stateMutability": "nonpayable",
			"type": "function"
		}
	]
}