{
	"data": {
		"bytecode": {
			"linkReferences": {},
			"object": "608060405260068054736ec37f8fb02a69a12bdef5632cdcf66e25bcc6f36001600160a01b0319918216179091556007805473d38d2c9af3d610735099832d1a5cc30369f36479921691909117905560016008819055693b4ad496106b7f000000600981905562000080906000199062000192602090811b620017df17901c565b6200008c9190620001e2565b620000b2693b4ad496106b7f0000006000196200019260201b620017df1790919060201c565b620000be9190620001be565b600a556013600c55600c54600d556011600e55600e54600f5560146010556010546011556014601255601254601355348015620000fa57600080fd5b50600080546001600160a01b031916339081178255604051909182917f8be0079c531659141344cd1fd0a4f28419497f9722a3daafe3b4186f6b6457e0908290a350600a54336000818152600160209081526040808320949094556008549351938452919290917fddf252ad1be2c89b69c2b068fc378daa952ba7f163c4a11628f55a4df523b3ef910160405180910390a36200020f565b6000620001a08284620001a7565b9392505050565b600082620001b957620001b9620001f9565b500490565b600082821015620001dd57634e487b7160e01b81526011600452602481fd5b500390565b600082620001f457620001f4620001f9565b500690565b634e487b7160e01b600052601260045260246000fd5b612f50806200021f6000396000f3fe608060405234801561001057600080fd5b50600436106102d35760003560e01c80638bf2f98111610186578063c6312d9f116100e3578063e7a324dc11610097578063f2cc0c1811610071578063f2cc0c18146106e3578063f2fde38b146106f6578063f84354f11461070957600080fd5b8063e7a324dc1461065c578063eca1442d14610683578063f1127ed81461068c57600080fd5b8063cba0e996116100c8578063cba0e996146105e4578063dd62ed3e14610610578063df8408fe1461064957600080fd5b8063c6312d9f146105d2578063c94656f6146105db57600080fd5b8063a0aaee9d1161013a578063a9059cbb1161011f578063a9059cbb14610599578063b4b5ea57146105ac578063c3cda520146105bf57600080fd5b8063a0aaee9d1461057d578063a457c2d71461058657600080fd5b806391b04b2a1161016b57806391b04b2a1461050b57806395d89b411461052e578063a0712d681461056a57600080fd5b80638bf2f981146104f15780638da5cb5b146104fa57600080fd5b806339509351116102345780636fcfff45116101e8578063715018a6116101cd578063715018a6146104b6578063782d6fe1146104be5780637ecebe00146104d157600080fd5b80636fcfff451461046857806370a08231146104a357600080fd5b80635345ef04116102195780635345ef0414610406578063587cde1e1461040f5780635c19a95c1461045357600080fd5b806339509351146103e05780634549b039146103f357600080fd5b806320606b701161028b57806323b872dd1161027057806323b872dd146103a05780632d838119146103b3578063313ce567146103c657600080fd5b806320606b7014610370578063236367201461039757600080fd5b806313114a9d116102bc57806313114a9d1461034d57806318160ddd1461035f5780631fe0371e1461036757600080fd5b806306fdde03146102d8578063095ea7b31461032a575b600080fd5b6103146040518060400160405280600781526020017f546561537761700000000000000000000000000000000000000000000000000081525081565b6040516103219190612d2d565b60405180910390f35b61033d610338366004612c2e565b61071c565b6040519015158152602001610321565b600b545b604051908152602001610321565b600854610351565b61035160125481565b6103517f8cad95687ba82c2ce50e74f7b754645e5117c3a5bec8151c0726d5857980a86681565b61035160115481565b61033d6103ae366004612bca565b610733565b6103516103c1366004612cf3565b61079c565b6103ce601281565b60405160ff9091168152602001610321565b61033d6103ee366004612c2e565b610838565b610351610401366004612d0b565b61086e565b610351600c5481565b61043b61041d366004612b7e565b6001600160a01b039081166000908152601560205260409020541690565b6040516001600160a01b039091168152602001610321565b610466610461366004612b7e565b6108f9565b005b61048e610476366004612b7e565b60176020526000908152604090205463ffffffff1681565b60405163ffffffff9091168152602001610321565b6103516104b1366004612b7e565b610906565b610466610965565b6103516104cc366004612c2e565b610a21565b6103516104df366004612b7e565b60186020526000908152604090205481565b61035160105481565b6000546001600160a01b031661043b565b61033d610519366004612b7e565b60146020526000908152604090205460ff1681565b6103146040518060400160405280600481526020017f4d494e540000000000000000000000000000000000000000000000000000000081525081565b610466610578366004612cf3565b610c9c565b610351600f5481565b61033d610594366004612c2e565b610d98565b61033d6105a7366004612c2e565b610de7565b6103516105ba366004612b7e565b610e4e565b6104666105cd366004612c57565b610ec2565b610351600d5481565b610351600e5481565b61033d6105f2366004612b7e565b6001600160a01b031660009081526004602052604090205460ff1690565b61035161061e366004612b98565b6001600160a01b03918216600090815260036020908152604080832093909416825291909152205490565b610466610657366004612c05565b611227565b6103517fe48329057bfd03d55e49b547132e39cffd9c1820ad7b9d4c5307691425d15adf81565b61035160135481565b6106c761069a366004612cb5565b60166020908152600092835260408084209091529082529020805460019091015463ffffffff9091169082565b6040805163ffffffff9093168352602083019190915201610321565b6104666106f1366004612b7e565b6112ac565b610466610704366004612b7e565b611447565b610466610717366004612b7e565b611590565b60006107293384846117eb565b5060015b92915050565b6000610740848484611944565b610792843361078d85604051806060016040528060288152602001612e9a602891396001600160a01b038a1660009081526003602090815260408083203384529091529020549190611c06565b6117eb565b5060019392505050565b6000600a5482111561081b5760405162461bcd60e51b815260206004820152602a60248201527f416d6f756e74206d757374206265206c657373207468616e20746f74616c207260448201527f65666c656374696f6e730000000000000000000000000000000000000000000060648201526084015b60405180910390fd5b6000610825611c32565b905061083183826117df565b9392505050565b3360008181526003602090815260408083206001600160a01b0387168452909152812054909161072991859061078d9086611c55565b60006008548311156108c25760405162461bcd60e51b815260206004820152601f60248201527f416d6f756e74206d757374206265206c657373207468616e20737570706c79006044820152606401610812565b816108e05760006108d284611c61565b5092945061072d9350505050565b60006108eb84611c61565b5091945061072d9350505050565b6109033382611c8e565b50565b6001600160a01b03811660009081526004602052604081205460ff161561094357506001600160a01b031660009081526002602052604090205490565b6001600160a01b03821660009081526001602052604090205461072d9061079c565b6000546001600160a01b031633146109bf5760405162461bcd60e51b815260206004820181905260248201527f4f776e61626c653a2063616c6c6572206973206e6f7420746865206f776e65726044820152606401610812565b600080546040516001600160a01b03909116907f8be0079c531659141344cd1fd0a4f28419497f9722a3daafe3b4186f6b6457e0908390a3600080547fffffffffffffffffffffffff0000000000000000000000000000000000000000169055565b6000438210610a985760405162461bcd60e51b815260206004820152602760248201527f43414b453a3a6765745072696f72566f7465733a206e6f74207965742064657460448201527f65726d696e6564000000000000000000000000000000000000000000000000006064820152608401610812565b6001600160a01b03831660009081526017602052604090205463ffffffff1680610ac657600091505061072d565b6001600160a01b03841660009081526016602052604081208491610aeb600185612e2d565b63ffffffff90811682526020820192909252604001600020541611610b54576001600160a01b038416600090815260166020526040812090610b2e600184612e2d565b63ffffffff1663ffffffff1681526020019081526020016000206001015491505061072d565b6001600160a01b038416600090815260166020908152604080832083805290915290205463ffffffff16831015610b8f57600091505061072d565b600080610b9d600184612e2d565b90505b8163ffffffff168163ffffffff161115610c655760006002610bc28484612e2d565b610bcc9190612dd4565b610bd69083612e2d565b6001600160a01b038816600090815260166020908152604080832063ffffffff8086168552908352928190208151808301909252805490931680825260019093015491810191909152919250871415610c395760200151945061072d9350505050565b805163ffffffff16871115610c5057819350610c5e565b610c5b600183612e2d565b92505b5050610ba0565b506001600160a01b038516600090815260166020908152604080832063ffffffff9094168352929052206001015491505092915050565b6000546001600160a01b03163314610cf65760405162461bcd60e51b815260206004820181905260248201527f4f776e61626c653a2063616c6c6572206973206e6f7420746865206f776e65726044820152606401610812565b600954600854610d069083612d80565b1115610d545760405162461bcd60e51b815260206004820152600d60248201527f63617020657863656564656421000000000000000000000000000000000000006044820152606401610812565b610d5d81611d3b565b60405181815233906000907fddf252ad1be2c89b69c2b068fc378daa952ba7f163c4a11628f55a4df523b3ef9060200160405180910390a350565b6000610729338461078d85604051806060016040528060258152602001612ef6602591393360009081526003602090815260408083206001600160a01b038d1684529091529020549190611c06565b6001600160a01b03821660009081526014602052604081205460ff16151560011415610e2657610e266000600c819055600e8190556010819055601255565b610e31338484611944565b610729600d54600c55600f54600e55601154601055601354601255565b6001600160a01b03811660009081526017602052604081205463ffffffff1680610e79576000610831565b6001600160a01b038316600090815260166020526040812090610e9d600184612e2d565b63ffffffff1663ffffffff168152602001908152602001600020600101549392505050565b604080518082018252600481527f4d494e540000000000000000000000000000000000000000000000000000000060209182015281517f8cad95687ba82c2ce50e74f7b754645e5117c3a5bec8151c0726d5857980a866818301527ffdf81848136595c31bb5f76217767372bc4bf906663038eb38381131ea27ecba81840152466060820152306080808301919091528351808303909101815260a0820184528051908301207fe48329057bfd03d55e49b547132e39cffd9c1820ad7b9d4c5307691425d15adf60c08301526001600160a01b038a1660e08301526101008201899052610120808301899052845180840390910181526101408301909452835193909201929092207f19010000000000000000000000000000000000000000000000000000000000006101608401526101628301829052610182830181905290916000906101a20160408051601f198184030181528282528051602091820120600080855291840180845281905260ff8a169284019290925260608301889052608083018790529092509060019060a0016020604051602081039080840390855afa158015611075573d6000803e3d6000fd5b5050604051601f1901519150506001600160a01b0381166110fe5760405162461bcd60e51b815260206004820152602660248201527f43414b453a3a64656c656761746542795369673a20696e76616c69642073696760448201527f6e617475726500000000000000000000000000000000000000000000000000006064820152608401610812565b6001600160a01b038116600090815260186020526040812080549161112283612e52565b91905055891461119a5760405162461bcd60e51b815260206004820152602260248201527f43414b453a3a64656c656761746542795369673a20696e76616c6964206e6f6e60448201527f63650000000000000000000000000000000000000000000000000000000000006064820152608401610812565b874211156112105760405162461bcd60e51b815260206004820152602660248201527f43414b453a3a64656c656761746542795369673a207369676e6174757265206560448201527f78706972656400000000000000000000000000000000000000000000000000006064820152608401610812565b61121a818b611c8e565b505050505b505050505050565b6000546001600160a01b031633146112815760405162461bcd60e51b815260206004820181905260248201527f4f776e61626c653a2063616c6c6572206973206e6f7420746865206f776e65726044820152606401610812565b6001600160a01b03919091166000908152601460205260409020805460ff1916911515919091179055565b6000546001600160a01b031633146113065760405162461bcd60e51b815260206004820181905260248201527f4f776e61626c653a2063616c6c6572206973206e6f7420746865206f776e65726044820152606401610812565b6001600160a01b03811660009081526004602052604090205460ff161561136f5760405162461bcd60e51b815260206004820152601b60248201527f4163636f756e7420697320616c7265616479206578636c7564656400000000006044820152606401610812565b6001600160a01b038116600090815260016020526040902054156113c9576001600160a01b0381166000908152600160205260409020546113af9061079c565b6001600160a01b0382166000908152600260205260409020555b6001600160a01b03166000818152600460205260408120805460ff191660019081179091556005805491820181559091527f036b6384b5eca791c62761152d0c79bb0604c104a5fb6f4eb0703f3154bb3db00180547fffffffffffffffffffffffff0000000000000000000000000000000000000000169091179055565b6000546001600160a01b031633146114a15760405162461bcd60e51b815260206004820181905260248201527f4f776e61626c653a2063616c6c6572206973206e6f7420746865206f776e65726044820152606401610812565b6001600160a01b03811661151d5760405162461bcd60e51b815260206004820152602660248201527f4f776e61626c653a206e6577206f776e657220697320746865207a65726f206160448201527f64647265737300000000000000000000000000000000000000000000000000006064820152608401610812565b600080546040516001600160a01b03808516939216917f8be0079c531659141344cd1fd0a4f28419497f9722a3daafe3b4186f6b6457e091a3600080547fffffffffffffffffffffffff0000000000000000000000000000000000000000166001600160a01b0392909216919091179055565b6000546001600160a01b031633146115ea5760405162461bcd60e51b815260206004820181905260248201527f4f776e61626c653a2063616c6c6572206973206e6f7420746865206f776e65726044820152606401610812565b6001600160a01b03811660009081526004602052604090205460ff166116525760405162461bcd60e51b815260206004820152601b60248201527f4163636f756e7420697320616c7265616479206578636c7564656400000000006044820152606401610812565b60005b6005548110156117db57816001600160a01b03166005828154811061168a57634e487b7160e01b600052603260045260246000fd5b6000918252602090912001546001600160a01b031614156117c957600580546116b590600190612e16565b815481106116d357634e487b7160e01b600052603260045260246000fd5b600091825260209091200154600580546001600160a01b03909216918390811061170d57634e487b7160e01b600052603260045260246000fd5b600091825260208083209190910180547fffffffffffffffffffffffff0000000000000000000000000000000000000000166001600160a01b039485161790559184168152600282526040808220829055600490925220805460ff19169055600580548061178b57634e487b7160e01b600052603160045260246000fd5b600082815260209020810160001990810180547fffffffffffffffffffffffff00000000000000000000000000000000000000001690550190555050565b806117d381612e52565b915050611655565b5050565b60006108318284612dc0565b6001600160a01b0383166118665760405162461bcd60e51b8152602060048201526024808201527f45524332303a20617070726f76652066726f6d20746865207a65726f2061646460448201527f72657373000000000000000000000000000000000000000000000000000000006064820152608401610812565b6001600160a01b0382166118e25760405162461bcd60e51b815260206004820152602260248201527f45524332303a20617070726f766520746f20746865207a65726f20616464726560448201527f73730000000000000000000000000000000000000000000000000000000000006064820152608401610812565b6001600160a01b0383811660008181526003602090815260408083209487168084529482529182902085905590518481527f8c5be1e5ebec7d5bd14f71427d1e84f3dd0314c0f7b2291e5b200ac8c7c3b92591015b60405180910390a3505050565b6001600160a01b0383166119c05760405162461bcd60e51b815260206004820152602560248201527f45524332303a207472616e736665722066726f6d20746865207a65726f20616460448201527f64726573730000000000000000000000000000000000000000000000000000006064820152608401610812565b6001600160a01b038216611a3c5760405162461bcd60e51b815260206004820152602360248201527f45524332303a207472616e7366657220746f20746865207a65726f206164647260448201527f65737300000000000000000000000000000000000000000000000000000000006064820152608401610812565b60008111611ab25760405162461bcd60e51b815260206004820152602960248201527f5472616e7366657220616d6f756e74206d75737420626520677265617465722060448201527f7468616e207a65726f00000000000000000000000000000000000000000000006064820152608401610812565b6001600160a01b03831660009081526004602052604090205460ff168015611af357506001600160a01b03821660009081526004602052604090205460ff16155b15611b0857611b03838383611da5565b505050565b6001600160a01b03831660009081526004602052604090205460ff16158015611b4957506001600160a01b03821660009081526004602052604090205460ff165b15611b5957611b03838383611e85565b6001600160a01b03831660009081526004602052604090205460ff16158015611b9b57506001600160a01b03821660009081526004602052604090205460ff16155b15611bab57611b03838383611f64565b6001600160a01b03831660009081526004602052604090205460ff168015611beb57506001600160a01b03821660009081526004602052604090205460ff165b15611bfb57611b03838383611fb7565b611b03838383611f64565b60008184841115611c2a5760405162461bcd60e51b81526004016108129190612d2d565b505050900390565b6000806000611c3f61203c565b9092509050611c4e82826117df565b9250505090565b60006108318284612d80565b600080600080600080600080600080611c798b6121f6565b9f939e50919c509a5098509650505050505050565b6001600160a01b0380831660009081526015602052604081205490911690611cb584610906565b6001600160a01b0385811660008181526015602052604080822080547fffffffffffffffffffffffff000000000000000000000000000000000000000016898616908117909155905194955093928616927f3134e8a2e6d97e929a7e54011ea5485d7d196dd5f0ba4d4ef95803e8e3fc257f9190a4611d35828483612240565b50505050565b6000611d45611c32565b90506000611d53838361239f565b600a54909150611d639082611c55565b600a55600854611d739084611c55565b60085533600090815260016020526040902054611d909082611c55565b33600090815260016020526040902055505050565b600080600080611db485611c61565b945094509450945050600080611dcd87878787876123ab565b5050506001600160a01b038b166000908152600260205260409020549193509150611df89088612431565b6001600160a01b038a16600090815260026020908152604080832093909355600190522054611e279083612431565b6001600160a01b03808b1660009081526001602052604080822093909355908a1681522054611e569082611c55565b6001600160a01b038916600090815260016020526040902055611e7a89898961243d565b505050505050505050565b6000806000806000611e9686611c61565b94509450945094509450600080611eb088878787876123ab565b5050506001600160a01b038c166000908152600160205260409020549193509150611edb9083612431565b6001600160a01b03808c16600090815260016020908152604080832094909455918c16815260029091522054611f119088611c55565b6001600160a01b038a16600090815260026020908152604080832093909355600190522054611f409082611c55565b6001600160a01b038a1660009081526001602052604090205561121a8a8a8a61243d565b600080600080611f7385611c61565b945094509450945050600080611f8c87878787876123ab565b5050506001600160a01b038b166000908152600160205260409020549193509150611e279083612431565b6000806000806000611fc886611c61565b94509450945094509450600080611fe288878787876123ab565b5050506001600160a01b038c16600090815260026020526040902054919350915061200d9089612431565b6001600160a01b038b16600090815260026020908152604080832093909355600190522054611edb9083612431565b600a546008546000918291825b6005548110156121c65782600160006005848154811061207957634e487b7160e01b600052603260045260246000fd5b60009182526020808320909101546001600160a01b0316835282019290925260400190205411806120f257508160026000600584815481106120cb57634e487b7160e01b600052603260045260246000fd5b60009182526020808320909101546001600160a01b03168352820192909252604001902054115b1561210857600a54600854945094505050509091565b61215c600160006005848154811061213057634e487b7160e01b600052603260045260246000fd5b60009182526020808320909101546001600160a01b031683528201929092526040019020548490612431565b92506121b2600260006005848154811061218657634e487b7160e01b600052603260045260246000fd5b60009182526020808320909101546001600160a01b031683528201929092526040019020548390612431565b9150806121be81612e52565b915050612049565b50600854600a546121d6916117df565b8210156121ed57600a546008549350935050509091565b90939092509050565b60008060008060008060008061220b896124f6565b925092509250600061221c8a612569565b9050600061222d8b8686868661258d565b949b939a50919850965091945092505050565b816001600160a01b0316836001600160a01b0316141580156122625750600081115b15611b03576001600160a01b03831615612305576001600160a01b03831660009081526017602052604081205463ffffffff1690816122a25760006122e5565b6001600160a01b0385166000908152601660205260408120906122c6600185612e2d565b63ffffffff1663ffffffff168152602001908152602001600020600101545b905060006122f38285612431565b9050612301868484846125b3565b5050505b6001600160a01b03821615611b03576001600160a01b03821660009081526017602052604081205463ffffffff169081612340576000612383565b6001600160a01b038416600090815260166020526040812090612364600185612e2d565b63ffffffff1663ffffffff168152602001908152602001600020600101545b905060006123918285611c55565b905061121f858484846125b3565b60006108318284612df7565b6000806000806000806123bc611c32565b905060006123ca8c8361278b565b905060006123d88c8461278b565b905060006123e68c8561278b565b905060006123f48c8661278b565b905060006124028c8761278b565b90506000612413868686868661258d565b959b5094995092975090955093505050509550955095509550959050565b60006108318284612e16565b600080600080600061244e86611c61565b94509450945094509450600080600061246a89888888886123ab565b945094509450505061247c83886127a0565b6124878b87846127c4565b6124928b86836128f1565b61249c8b85612a1e565b896001600160a01b03168b6001600160a01b03167fddf252ad1be2c89b69c2b068fc378daa952ba7f163c4a11628f55a4df523b3ef8a6040516124e191815260200190565b60405180910390a35050505050505050505050565b60008060008061251d6103e86125176010548861239f90919063ffffffff16565b906117df565b9050600061253c6103e8612517600c548961239f90919063ffffffff16565b9050600061255b6103e8612517600e548a61239f90919063ffffffff16565b929791965091945092505050565b600080610831601254612587612710866117df90919063ffffffff16565b9061239f565b6000806125a8836125a2868189818d8d612431565b90612431565b979650505050505050565b60006125d743604051806060016040528060348152602001612ec260349139612b22565b905060008463ffffffff1611801561263157506001600160a01b038516600090815260166020526040812063ffffffff831691612615600188612e2d565b63ffffffff908116825260208201929092526040016000205416145b1561267a576001600160a01b0385166000908152601660205260408120839161265b600188612e2d565b63ffffffff168152602081019190915260400160002060010155612740565b60408051808201825263ffffffff838116825260208083018681526001600160a01b038a166000908152601683528581208a85168252909252939020915182547fffffffffffffffffffffffffffffffffffffffffffffffffffffffff0000000016911617815590516001918201556126f4908590612d98565b6001600160a01b038616600090815260176020526040902080547fffffffffffffffffffffffffffffffffffffffffffffffffffffffff000000001663ffffffff929092169190911790555b60408051848152602081018490526001600160a01b038716917fdec2bacdd2f05b59de34da9b523dff8be42e5e38e818c82fdb0bae774387a724910160405180910390a25050505050565b600080612798848461239f565b949350505050565b600a546127ad9083612431565b600a55600b546127bd9082611c55565b600b555050565b8115611b03576007546001600160a01b031660009081526004602052604090205460ff161561286e576007546001600160a01b03166000908152600260205260409020546128129083611c55565b600780546001600160a01b03908116600090815260026020908152604080832095909555925490911681526001909152205461284e9082611c55565b6007546001600160a01b03166000908152600160205260409020556128af565b6007546001600160a01b03166000908152600160205260409020546128939082611c55565b6007546001600160a01b03166000908152600160205260409020555b6007546040518381526001600160a01b03918216918516907fddf252ad1be2c89b69c2b068fc378daa952ba7f163c4a11628f55a4df523b3ef90602001611937565b8115611b03576006546001600160a01b031660009081526004602052604090205460ff161561299b576006546001600160a01b031660009081526002602052604090205461293f9083611c55565b600680546001600160a01b03908116600090815260026020908152604080832095909555925490911681526001909152205461297b9082611c55565b6006546001600160a01b03166000908152600160205260409020556129dc565b6006546001600160a01b03166000908152600160205260409020546129c09082611c55565b6006546001600160a01b03166000908152600160205260409020555b6006546040518381526001600160a01b03918216918516907fddf252ad1be2c89b69c2b068fc378daa952ba7f163c4a11628f55a4df523b3ef90602001611937565b6001600160a01b038216612a9a5760405162461bcd60e51b815260206004820152602160248201527f45524332303a206275726e2066726f6d20746865207a65726f2061646472657360448201527f73000000000000000000000000000000000000000000000000000000000000006064820152608401610812565b6000612aa4611c32565b90506000612ab2838361239f565b600854909150612ac29084612431565b600855600a54612ad29082612431565b600a558215611d35576040518381526000906001600160a01b038616907fddf252ad1be2c89b69c2b068fc378daa952ba7f163c4a11628f55a4df523b3ef9060200160405180910390a350505050565b6000816401000000008410612b4a5760405162461bcd60e51b81526004016108129190612d2d565b509192915050565b80356001600160a01b0381168114612b6957600080fd5b919050565b80358015158114612b6957600080fd5b600060208284031215612b8f578081fd5b61083182612b52565b60008060408385031215612baa578081fd5b612bb383612b52565b9150612bc160208401612b52565b90509250929050565b600080600060608486031215612bde578081fd5b612be784612b52565b9250612bf560208501612b52565b9150604084013590509250925092565b60008060408385031215612c17578182fd5b612c2083612b52565b9150612bc160208401612b6e565b60008060408385031215612c40578182fd5b612c4983612b52565b946020939093013593505050565b60008060008060008060c08789031215612c6f578182fd5b612c7887612b52565b95506020870135945060408701359350606087013560ff81168114612c9b578283fd5b9598949750929560808101359460a0909101359350915050565b60008060408385031215612cc7578182fd5b612cd083612b52565b9150602083013563ffffffff81168114612ce8578182fd5b809150509250929050565b600060208284031215612d04578081fd5b5035919050565b60008060408385031215612d1d578182fd5b82359150612bc160208401612b6e565b6000602080835283518082850152825b81811015612d5957858101830151858201604001528201612d3d565b81811115612d6a5783604083870101525b50601f01601f1916929092016040019392505050565b60008219821115612d9357612d93612e6d565b500190565b600063ffffffff808316818516808303821115612db757612db7612e6d565b01949350505050565b600082612dcf57612dcf612e83565b500490565b600063ffffffff80841680612deb57612deb612e83565b92169190910492915050565b6000816000190483118215151615612e1157612e11612e6d565b500290565b600082821015612e2857612e28612e6d565b500390565b600063ffffffff83811690831681811015612e4a57612e4a612e6d565b039392505050565b6000600019821415612e6657612e66612e6d565b5060010190565b634e487b7160e01b600052601160045260246000fd5b634e487b7160e01b600052601260045260246000fdfe45524332303a207472616e7366657220616d6f756e74206578636565647320616c6c6f77616e636543414b453a3a5f7772697465436865636b706f696e743a20626c6f636b206e756d6265722065786365656473203332206269747345524332303a2064656372656173656420616c6c6f77616e63652062656c6f77207a65726fa2646970667358221220659d34f65cbb25a3e50aa2be20fe2ccf53a1466d7ed6de7ecf8935a90606cfb064736f6c63430008040033",
			"opcodes": "PUSH1 0x80 PUSH1 0x40 MSTORE PUSH1 0x6 DUP1 SLOAD PUSH20 0x6EC37F8FB02A69A12BDEF5632CDCF66E25BCC6F3 PUSH1 0x1 PUSH1 0x1 PUSH1 0xA0 SHL SUB NOT SWAP2 DUP3 AND OR SWAP1 SWAP2 SSTORE PUSH1 0x7 DUP1 SLOAD PUSH20 0xD38D2C9AF3D610735099832D1A5CC30369F36479 SWAP3 AND SWAP2 SWAP1 SWAP2 OR SWAP1 SSTORE PUSH1 0x1 PUSH1 0x8 DUP2 SWAP1 SSTORE PUSH10 0x3B4AD496106B7F000000 PUSH1 0x9 DUP2 SWAP1 SSTORE PUSH3 0x80 SWAP1 PUSH1 0x0 NOT SWAP1 PUSH3 0x192 PUSH1 0x20 SWAP1 DUP2 SHL PUSH3 0x17DF OR SWAP1 SHR JUMP JUMPDEST PUSH3 0x8C SWAP2 SWAP1 PUSH3 0x1E2 JUMP JUMPDEST PUSH3 0xB2 PUSH10 0x3B4AD496106B7F000000 PUSH1 0x0 NOT PUSH3 0x192 PUSH1 0x20 SHL PUSH3 0x17DF OR SWAP1 SWAP2 SWAP1 PUSH1 0x20 SHR JUMP JUMPDEST PUSH3 0xBE SWAP2 SWAP1 PUSH3 0x1BE JUMP JUMPDEST PUSH1 0xA SSTORE PUSH1 0x13 PUSH1 0xC SSTORE PUSH1 0xC SLOAD PUSH1 0xD SSTORE PUSH1 0x11 PUSH1 0xE SSTORE PUSH1 0xE SLOAD PUSH1 0xF SSTORE PUSH1 0x14 PUSH1 0x10 SSTORE PUSH1 0x10 SLOAD PUSH1 0x11 SSTORE PUSH1 0x14 PUSH1 0x12 SSTORE PUSH1 0x12 SLOAD PUSH1 0x13 SSTORE CALLVALUE DUP1 ISZERO PUSH3 0xFA JUMPI PUSH1 0x0 DUP1 REVERT JUMPDEST POP PUSH1 0x0 DUP1 SLOAD PUSH1 0x1 PUSH1 0x1 PUSH1 0xA0 SHL SUB NOT AND CALLER SWAP1 DUP2 OR DUP3 SSTORE PUSH1 0x40 MLOAD SWAP1 SWAP2 DUP3 SWAP2 PUSH32 0x8BE0079C531659141344CD1FD0A4F28419497F9722A3DAAFE3B4186F6B6457E0 SWAP1 DUP3 SWAP1 LOG3 POP PUSH1 0xA SLOAD CALLER PUSH1 0x0 DUP2 DUP2 MSTORE PUSH1 0x1 PUSH1 0x20 SWAP1 DUP2 MSTORE PUSH1 0x40 DUP1 DUP4 KECCAK256 SWAP5 SWAP1 SWAP5 SSTORE PUSH1 0x8 SLOAD SWAP4 MLOAD SWAP4 DUP5 MSTORE SWAP2 SWAP3 SWAP1 SWAP2 PUSH32 0xDDF252AD1BE2C89B69C2B068FC378DAA952BA7F163C4A11628F55A4DF523B3EF SWAP2 ADD PUSH1 0x40 MLOAD DUP1 SWAP2 SUB SWAP1 LOG3 PUSH3 0x20F JUMP JUMPDEST PUSH1 0x0 PUSH3 0x1A0 DUP3 DUP5 PUSH3 0x1A7 JUMP JUMPDEST SWAP4 SWAP3 POP POP POP JUMP JUMPDEST PUSH1 0x0 DUP3 PUSH3 0x1B9 JUMPI PUSH3 0x1B9 PUSH3 0x1F9 JUMP JUMPDEST POP DIV SWAP1 JUMP JUMPDEST PUSH1 0x0 DUP3 DUP3 LT ISZERO PUSH3 0x1DD JUMPI PUSH4 0x4E487B71 PUSH1 0xE0 SHL DUP2 MSTORE PUSH1 0x11 PUSH1 0x4 MSTORE PUSH1 0x24 DUP2 REVERT JUMPDEST POP SUB SWAP1 JUMP JUMPDEST PUSH1 0x0 DUP3 PUSH3 0x1F4 JUMPI PUSH3 0x1F4 PUSH3 0x1F9 JUMP JUMPDEST POP MOD SWAP1 JUMP JUMPDEST PUSH4 0x4E487B71 PUSH1 0xE0 SHL PUSH1 0x0 MSTORE PUSH1 0x12 PUSH1 0x4 MSTORE PUSH1 0x24 PUSH1 0x0 REVERT JUMPDEST PUSH2 0x2F50 DUP1 PUSH3 0x21F PUSH1 0x0 CODECOPY PUSH1 0x0 RETURN INVALID PUSH1 0x80 PUSH1 0x40 MSTORE CALLVALUE DUP1 ISZERO PUSH2 0x10 JUMPI PUSH1 0x0 DUP1 REVERT JUMPDEST POP PUSH1 0x4 CALLDATASIZE LT PUSH2 0x2D3 JUMPI PUSH1 0x0 CALLDATALOAD PUSH1 0xE0 SHR DUP1 PUSH4 0x8BF2F981 GT PUSH2 0x186 JUMPI DUP1 PUSH4 0xC6312D9F GT PUSH2 0xE3 JUMPI DUP1 PUSH4 0xE7A324DC GT PUSH2 0x97 JUMPI DUP1 PUSH4 0xF2CC0C18 GT PUSH2 0x71 JUMPI DUP1 PUSH4 0xF2CC0C18 EQ PUSH2 0x6E3 JUMPI DUP1 PUSH4 0xF2FDE38B EQ PUSH2 0x6F6 JUMPI DUP1 PUSH4 0xF84354F1 EQ PUSH2 0x709 JUMPI PUSH1 0x0 DUP1 REVERT JUMPDEST DUP1 PUSH4 0xE7A324DC EQ PUSH2 0x65C JUMPI DUP1 PUSH4 0xECA1442D EQ PUSH2 0x683 JUMPI DUP1 PUSH4 0xF1127ED8 EQ PUSH2 0x68C JUMPI PUSH1 0x0 DUP1 REVERT JUMPDEST DUP1 PUSH4 0xCBA0E996 GT PUSH2 0xC8 JUMPI DUP1 PUSH4 0xCBA0E996 EQ PUSH2 0x5E4 JUMPI DUP1 PUSH4 0xDD62ED3E EQ PUSH2 0x610 JUMPI DUP1 PUSH4 0xDF8408FE EQ PUSH2 0x649 JUMPI PUSH1 0x0 DUP1 REVERT JUMPDEST DUP1 PUSH4 0xC6312D9F EQ PUSH2 0x5D2 JUMPI DUP1 PUSH4 0xC94656F6 EQ PUSH2 0x5DB JUMPI PUSH1 0x0 DUP1 REVERT JUMPDEST DUP1 PUSH4 0xA0AAEE9D GT PUSH2 0x13A JUMPI DUP1 PUSH4 0xA9059CBB GT PUSH2 0x11F JUMPI DUP1 PUSH4 0xA9059CBB EQ PUSH2 0x599 JUMPI DUP1 PUSH4 0xB4B5EA57 EQ PUSH2 0x5AC JUMPI DUP1 PUSH4 0xC3CDA520 EQ PUSH2 0x5BF JUMPI PUSH1 0x0 DUP1 REVERT JUMPDEST DUP1 PUSH4 0xA0AAEE9D EQ PUSH2 0x57D JUMPI DUP1 PUSH4 0xA457C2D7 EQ PUSH2 0x586 JUMPI PUSH1 0x0 DUP1 REVERT JUMPDEST DUP1 PUSH4 0x91B04B2A GT PUSH2 0x16B JUMPI DUP1 PUSH4 0x91B04B2A EQ PUSH2 0x50B JUMPI DUP1 PUSH4 0x95D89B41 EQ PUSH2 0x52E JUMPI DUP1 PUSH4 0xA0712D68 EQ PUSH2 0x56A JUMPI PUSH1 0x0 DUP1 REVERT JUMPDEST DUP1 PUSH4 0x8BF2F981 EQ PUSH2 0x4F1 JUMPI DUP1 PUSH4 0x8DA5CB5B EQ PUSH2 0x4FA JUMPI PUSH1 0x0 DUP1 REVERT JUMPDEST DUP1 PUSH4 0x39509351 GT PUSH2 0x234 JUMPI DUP1 PUSH4 0x6FCFFF45 GT PUSH2 0x1E8 JUMPI DUP1 PUSH4 0x715018A6 GT PUSH2 0x1CD JUMPI DUP1 PUSH4 0x715018A6 EQ PUSH2 0x4B6 JUMPI DUP1 PUSH4 0x782D6FE1 EQ PUSH2 0x4BE JUMPI DUP1 PUSH4 0x7ECEBE00 EQ PUSH2 0x4D1 JUMPI PUSH1 0x0 DUP1 REVERT JUMPDEST DUP1 PUSH4 0x6FCFFF45 EQ PUSH2 0x468 JUMPI DUP1 PUSH4 0x70A08231 EQ PUSH2 0x4A3 JUMPI PUSH1 0x0 DUP1 REVERT JUMPDEST DUP1 PUSH4 0x5345EF04 GT PUSH2 0x219 JUMPI DUP1 PUSH4 0x5345EF04 EQ PUSH2 0x406 JUMPI DUP1 PUSH4 0x587CDE1E EQ PUSH2 0x40F JUMPI DUP1 PUSH4 0x5C19A95C EQ PUSH2 0x453 JUMPI PUSH1 0x0 DUP1 REVERT JUMPDEST DUP1 PUSH4 0x39509351 EQ PUSH2 0x3E0 JUMPI DUP1 PUSH4 0x4549B039 EQ PUSH2 0x3F3 JUMPI PUSH1 0x0 DUP1 REVERT JUMPDEST DUP1 PUSH4 0x20606B70 GT PUSH2 0x28B JUMPI DUP1 PUSH4 0x23B872DD GT PUSH2 0x270 JUMPI DUP1 PUSH4 0x23B872DD EQ PUSH2 0x3A0 JUMPI DUP1 PUSH4 0x2D838119 EQ PUSH2 0x3B3 JUMPI DUP1 PUSH4 0x313CE567 EQ PUSH2 0x3C6 JUMPI PUSH1 0x0 DUP1 REVERT JUMPDEST DUP1 PUSH4 0x20606B70 EQ PUSH2 0x370 JUMPI DUP1 PUSH4 0x23636720 EQ PUSH2 0x397 JUMPI PUSH1 0x0 DUP1 REVERT JUMPDEST DUP1 PUSH4 0x13114A9D GT PUSH2 0x2BC JUMPI DUP1 PUSH4 0x13114A9D EQ PUSH2 0x34D JUMPI DUP1 PUSH4 0x18160DDD EQ PUSH2 0x35F JUMPI DUP1 PUSH4 0x1FE0371E EQ PUSH2 0x367 JUMPI PUSH1 0x0 DUP1 REVERT JUMPDEST DUP1 PUSH4 0x6FDDE03 EQ PUSH2 0x2D8 JUMPI DUP1 PUSH4 0x95EA7B3 EQ PUSH2 0x32A JUMPI JUMPDEST PUSH1 0x0 DUP1 REVERT JUMPDEST PUSH2 0x314 PUSH1 0x40 MLOAD DUP1 PUSH1 0x40 ADD PUSH1 0x40 MSTORE DUP1 PUSH1 0x7 DUP2 MSTORE PUSH1 0x20 ADD PUSH32 0x5465615377617000000000000000000000000000000000000000000000000000 DUP2 MSTORE POP DUP2 JUMP JUMPDEST PUSH1 0x40 MLOAD PUSH2 0x321 SWAP2 SWAP1 PUSH2 0x2D2D JUMP JUMPDEST PUSH1 0x40 MLOAD DUP1 SWAP2 SUB SWAP1 RETURN JUMPDEST PUSH2 0x33D PUSH2 0x338 CALLDATASIZE PUSH1 0x4 PUSH2 0x2C2E JUMP JUMPDEST PUSH2 0x71C JUMP JUMPDEST PUSH1 0x40 MLOAD SWAP1 ISZERO ISZERO DUP2 MSTORE PUSH1 0x20 ADD PUSH2 0x321 JUMP JUMPDEST PUSH1 0xB SLOAD JUMPDEST PUSH1 0x40 MLOAD SWAP1 DUP2 MSTORE PUSH1 0x20 ADD PUSH2 0x321 JUMP JUMPDEST PUSH1 0x8 SLOAD PUSH2 0x351 JUMP JUMPDEST PUSH2 0x351 PUSH1 0x12 SLOAD DUP2 JUMP JUMPDEST PUSH2 0x351 PUSH32 0x8CAD95687BA82C2CE50E74F7B754645E5117C3A5BEC8151C0726D5857980A866 DUP2 JUMP JUMPDEST PUSH2 0x351 PUSH1 0x11 SLOAD DUP2 JUMP JUMPDEST PUSH2 0x33D PUSH2 0x3AE CALLDATASIZE PUSH1 0x4 PUSH2 0x2BCA JUMP JUMPDEST PUSH2 0x733 JUMP JUMPDEST PUSH2 0x351 PUSH2 0x3C1 CALLDATASIZE PUSH1 0x4 PUSH2 0x2CF3 JUMP JUMPDEST PUSH2 0x79C JUMP JUMPDEST PUSH2 0x3CE PUSH1 0x12 DUP2 JUMP JUMPDEST PUSH1 0x40 MLOAD PUSH1 0xFF SWAP1 SWAP2 AND DUP2 MSTORE PUSH1 0x20 ADD PUSH2 0x321 JUMP JUMPDEST PUSH2 0x33D PUSH2 0x3EE CALLDATASIZE PUSH1 0x4 PUSH2 0x2C2E JUMP JUMPDEST PUSH2 0x838 JUMP JUMPDEST PUSH2 0x351 PUSH2 0x401 CALLDATASIZE PUSH1 0x4 PUSH2 0x2D0B JUMP JUMPDEST PUSH2 0x86E JUMP JUMPDEST PUSH2 0x351 PUSH1 0xC SLOAD DUP2 JUMP JUMPDEST PUSH2 0x43B PUSH2 0x41D CALLDATASIZE PUSH1 0x4 PUSH2 0x2B7E JUMP JUMPDEST PUSH1 0x1 PUSH1 0x1 PUSH1 0xA0 SHL SUB SWAP1 DUP2 AND PUSH1 0x0 SWAP1 DUP2 MSTORE PUSH1 0x15 PUSH1 0x20 MSTORE PUSH1 0x40 SWAP1 KECCAK256 SLOAD AND SWAP1 JUMP JUMPDEST PUSH1 0x40 MLOAD PUSH1 0x1 PUSH1 0x1 PUSH1 0xA0 SHL SUB SWAP1 SWAP2 AND DUP2 MSTORE PUSH1 0x20 ADD PUSH2 0x321 JUMP JUMPDEST PUSH2 0x466 PUSH2 0x461 CALLDATASIZE PUSH1 0x4 PUSH2 0x2B7E JUMP JUMPDEST PUSH2 0x8F9 JUMP JUMPDEST STOP JUMPDEST PUSH2 0x48E PUSH2 0x476 CALLDATASIZE PUSH1 0x4 PUSH2 0x2B7E JUMP JUMPDEST PUSH1 0x17 PUSH1 0x20 MSTORE PUSH1 0x0 SWAP1 DUP2 MSTORE PUSH1 0x40 SWAP1 KECCAK256 SLOAD PUSH4 0xFFFFFFFF AND DUP2 JUMP JUMPDEST PUSH1 0x40 MLOAD PUSH4 0xFFFFFFFF SWAP1 SWAP2 AND DUP2 MSTORE PUSH1 0x20 ADD PUSH2 0x321 JUMP JUMPDEST PUSH2 0x351 PUSH2 0x4B1 CALLDATASIZE PUSH1 0x4 PUSH2 0x2B7E JUMP JUMPDEST PUSH2 0x906 JUMP JUMPDEST PUSH2 0x466 PUSH2 0x965 JUMP JUMPDEST PUSH2 0x351 PUSH2 0x4CC CALLDATASIZE PUSH1 0x4 PUSH2 0x2C2E JUMP JUMPDEST PUSH2 0xA21 JUMP JUMPDEST PUSH2 0x351 PUSH2 0x4DF CALLDATASIZE PUSH1 0x4 PUSH2 0x2B7E JUMP JUMPDEST PUSH1 0x18 PUSH1 0x20 MSTORE PUSH1 0x0 SWAP1 DUP2 MSTORE PUSH1 0x40 SWAP1 KECCAK256 SLOAD DUP2 JUMP JUMPDEST PUSH2 0x351 PUSH1 0x10 SLOAD DUP2 JUMP JUMPDEST PUSH1 0x0 SLOAD PUSH1 0x1 PUSH1 0x1 PUSH1 0xA0 SHL SUB AND PUSH2 0x43B JUMP JUMPDEST PUSH2 0x33D PUSH2 0x519 CALLDATASIZE PUSH1 0x4 PUSH2 0x2B7E JUMP JUMPDEST PUSH1 0x14 PUSH1 0x20 MSTORE PUSH1 0x0 SWAP1 DUP2 MSTORE PUSH1 0x40 SWAP1 KECCAK256 SLOAD PUSH1 0xFF AND DUP2 JUMP JUMPDEST PUSH2 0x314 PUSH1 0x40 MLOAD DUP1 PUSH1 0x40 ADD PUSH1 0x40 MSTORE DUP1 PUSH1 0x4 DUP2 MSTORE PUSH1 0x20 ADD PUSH32 0x4D494E5400000000000000000000000000000000000000000000000000000000 DUP2 MSTORE POP DUP2 JUMP JUMPDEST PUSH2 0x466 PUSH2 0x578 CALLDATASIZE PUSH1 0x4 PUSH2 0x2CF3 JUMP JUMPDEST PUSH2 0xC9C JUMP JUMPDEST PUSH2 0x351 PUSH1 0xF SLOAD DUP2 JUMP JUMPDEST PUSH2 0x33D PUSH2 0x594 CALLDATASIZE PUSH1 0x4 PUSH2 0x2C2E JUMP JUMPDEST PUSH2 0xD98 JUMP JUMPDEST PUSH2 0x33D PUSH2 0x5A7 CALLDATASIZE PUSH1 0x4 PUSH2 0x2C2E JUMP JUMPDEST PUSH2 0xDE7 JUMP JUMPDEST PUSH2 0x351 PUSH2 0x5BA CALLDATASIZE PUSH1 0x4 PUSH2 0x2B7E JUMP JUMPDEST PUSH2 0xE4E JUMP JUMPDEST PUSH2 0x466 PUSH2 0x5CD CALLDATASIZE PUSH1 0x4 PUSH2 0x2C57 JUMP JUMPDEST PUSH2 0xEC2 JUMP JUMPDEST PUSH2 0x351 PUSH1 0xD SLOAD DUP2 JUMP JUMPDEST PUSH2 0x351 PUSH1 0xE SLOAD DUP2 JUMP JUMPDEST PUSH2 0x33D PUSH2 0x5F2 CALLDATASIZE PUSH1 0x4 PUSH2 0x2B7E JUMP JUMPDEST PUSH1 0x1 PUSH1 0x1 PUSH1 0xA0 SHL SUB AND PUSH1 0x0 SWAP1 DUP2 MSTORE PUSH1 0x4 PUSH1 0x20 MSTORE PUSH1 0x40 SWAP1 KECCAK256 SLOAD PUSH1 0xFF AND SWAP1 JUMP JUMPDEST PUSH2 0x351 PUSH2 0x61E CALLDATASIZE PUSH1 0x4 PUSH2 0x2B98 JUMP JUMPDEST PUSH1 0x1 PUSH1 0x1 PUSH1 0xA0 SHL SUB SWAP2 DUP3 AND PUSH1 0x0 SWAP1 DUP2 MSTORE PUSH1 0x3 PUSH1 0x20 SWAP1 DUP2 MSTORE PUSH1 0x40 DUP1 DUP4 KECCAK256 SWAP4 SWAP1 SWAP5 AND DUP3 MSTORE SWAP2 SWAP1 SWAP2 MSTORE KECCAK256 SLOAD SWAP1 JUMP JUMPDEST PUSH2 0x466 PUSH2 0x657 CALLDATASIZE PUSH1 0x4 PUSH2 0x2C05 JUMP JUMPDEST PUSH2 0x1227 JUMP JUMPDEST PUSH2 0x351 PUSH32 0xE48329057BFD03D55E49B547132E39CFFD9C1820AD7B9D4C5307691425D15ADF DUP2 JUMP JUMPDEST PUSH2 0x351 PUSH1 0x13 SLOAD DUP2 JUMP JUMPDEST PUSH2 0x6C7 PUSH2 0x69A CALLDATASIZE PUSH1 0x4 PUSH2 0x2CB5 JUMP JUMPDEST PUSH1 0x16 PUSH1 0x20 SWAP1 DUP2 MSTORE PUSH1 0x0 SWAP3 DUP4 MSTORE PUSH1 0x40 DUP1 DUP5 KECCAK256 SWAP1 SWAP2 MSTORE SWAP1 DUP3 MSTORE SWAP1 KECCAK256 DUP1 SLOAD PUSH1 0x1 SWAP1 SWAP2 ADD SLOAD PUSH4 0xFFFFFFFF SWAP1 SWAP2 AND SWAP1 DUP3 JUMP JUMPDEST PUSH1 0x40 DUP1 MLOAD PUSH4 0xFFFFFFFF SWAP1 SWAP4 AND DUP4 MSTORE PUSH1 0x20 DUP4 ADD SWAP2 SWAP1 SWAP2 MSTORE ADD PUSH2 0x321 JUMP JUMPDEST PUSH2 0x466 PUSH2 0x6F1 CALLDATASIZE PUSH1 0x4 PUSH2 0x2B7E JUMP JUMPDEST PUSH2 0x12AC JUMP JUMPDEST PUSH2 0x466 PUSH2 0x704 CALLDATASIZE PUSH1 0x4 PUSH2 0x2B7E JUMP JUMPDEST PUSH2 0x1447 JUMP JUMPDEST PUSH2 0x466 PUSH2 0x717 CALLDATASIZE PUSH1 0x4 PUSH2 0x2B7E JUMP JUMPDEST PUSH2 0x1590 JUMP JUMPDEST PUSH1 0x0 PUSH2 0x729 CALLER DUP5 DUP5 PUSH2 0x17EB JUMP JUMPDEST POP PUSH1 0x1 JUMPDEST SWAP3 SWAP2 POP POP JUMP JUMPDEST PUSH1 0x0 PUSH2 0x740 DUP5 DUP5 DUP5 PUSH2 0x1944 JUMP JUMPDEST PUSH2 0x792 DUP5 CALLER PUSH2 0x78D DUP6 PUSH1 0x40 MLOAD DUP1 PUSH1 0x60 ADD PUSH1 0x40 MSTORE DUP1 PUSH1 0x28 DUP2 MSTORE PUSH1 0x20 ADD PUSH2 0x2E9A PUSH1 0x28 SWAP2 CODECOPY PUSH1 0x1 PUSH1 0x1 PUSH1 0xA0 SHL SUB DUP11 AND PUSH1 0x0 SWAP1 DUP2 MSTORE PUSH1 0x3 PUSH1 0x20 SWAP1 DUP2 MSTORE PUSH1 0x40 DUP1 DUP4 KECCAK256 CALLER DUP5 MSTORE SWAP1 SWAP2 MSTORE SWAP1 KECCAK256 SLOAD SWAP2 SWAP1 PUSH2 0x1C06 JUMP JUMPDEST PUSH2 0x17EB JUMP JUMPDEST POP PUSH1 0x1 SWAP4 SWAP3 POP POP POP JUMP JUMPDEST PUSH1 0x0 PUSH1 0xA SLOAD DUP3 GT ISZERO PUSH2 0x81B JUMPI PUSH1 0x40 MLOAD PUSH3 0x461BCD PUSH1 0xE5 SHL DUP2 MSTORE PUSH1 0x20 PUSH1 0x4 DUP3 ADD MSTORE PUSH1 0x2A PUSH1 0x24 DUP3 ADD MSTORE PUSH32 0x416D6F756E74206D757374206265206C657373207468616E20746F74616C2072 PUSH1 0x44 DUP3 ADD MSTORE PUSH32 0x65666C656374696F6E7300000000000000000000000000000000000000000000 PUSH1 0x64 DUP3 ADD MSTORE PUSH1 0x84 ADD JUMPDEST PUSH1 0x40 MLOAD DUP1 SWAP2 SUB SWAP1 REVERT JUMPDEST PUSH1 0x0 PUSH2 0x825 PUSH2 0x1C32 JUMP JUMPDEST SWAP1 POP PUSH2 0x831 DUP4 DUP3 PUSH2 0x17DF JUMP JUMPDEST SWAP4 SWAP3 POP POP POP JUMP JUMPDEST CALLER PUSH1 0x0 DUP2 DUP2 MSTORE PUSH1 0x3 PUSH1 0x20 SWAP1 DUP2 MSTORE PUSH1 0x40 DUP1 DUP4 KECCAK256 PUSH1 0x1 PUSH1 0x1 PUSH1 0xA0 SHL SUB DUP8 AND DUP5 MSTORE SWAP1 SWAP2 MSTORE DUP2 KECCAK256 SLOAD SWAP1 SWAP2 PUSH2 0x729 SWAP2 DUP6 SWAP1 PUSH2 0x78D SWAP1 DUP7 PUSH2 0x1C55 JUMP JUMPDEST PUSH1 0x0 PUSH1 0x8 SLOAD DUP4 GT ISZERO PUSH2 0x8C2 JUMPI PUSH1 0x40 MLOAD PUSH3 0x461BCD PUSH1 0xE5 SHL DUP2 MSTORE PUSH1 0x20 PUSH1 0x4 DUP3 ADD MSTORE PUSH1 0x1F PUSH1 0x24 DUP3 ADD MSTORE PUSH32 0x416D6F756E74206D757374206265206C657373207468616E20737570706C7900 PUSH1 0x44 DUP3 ADD MSTORE PUSH1 0x64 ADD PUSH2 0x812 JUMP JUMPDEST DUP2 PUSH2 0x8E0 JUMPI PUSH1 0x0 PUSH2 0x8D2 DUP5 PUSH2 0x1C61 JUMP JUMPDEST POP SWAP3 SWAP5 POP PUSH2 0x72D SWAP4 POP POP POP POP JUMP JUMPDEST PUSH1 0x0 PUSH2 0x8EB DUP5 PUSH2 0x1C61 JUMP JUMPDEST POP SWAP2 SWAP5 POP PUSH2 0x72D SWAP4 POP POP POP POP JUMP JUMPDEST PUSH2 0x903 CALLER DUP3 PUSH2 0x1C8E JUMP JUMPDEST POP JUMP JUMPDEST PUSH1 0x1 PUSH1 0x1 PUSH1 0xA0 SHL SUB DUP2 AND PUSH1 0x0 SWAP1 DUP2 MSTORE PUSH1 0x4 PUSH1 0x20 MSTORE PUSH1 0x40 DUP2 KECCAK256 SLOAD PUSH1 0xFF AND ISZERO PUSH2 0x943 JUMPI POP PUSH1 0x1 PUSH1 0x1 PUSH1 0xA0 SHL SUB AND PUSH1 0x0 SWAP1 DUP2 MSTORE PUSH1 0x2 PUSH1 0x20 MSTORE PUSH1 0x40 SWAP1 KECCAK256 SLOAD SWAP1 JUMP JUMPDEST PUSH1 0x1 PUSH1 0x1 PUSH1 0xA0 SHL SUB DUP3 AND PUSH1 0x0 SWAP1 DUP2 MSTORE PUSH1 0x1 PUSH1 0x20 MSTORE PUSH1 0x40 SWAP1 KECCAK256 SLOAD PUSH2 0x72D SWAP1 PUSH2 0x79C JUMP JUMPDEST PUSH1 0x0 SLOAD PUSH1 0x1 PUSH1 0x1 PUSH1 0xA0 SHL SUB AND CALLER EQ PUSH2 0x9BF JUMPI PUSH1 0x40 MLOAD PUSH3 0x461BCD PUSH1 0xE5 SHL DUP2 MSTORE PUSH1 0x20 PUSH1 0x4 DUP3 ADD DUP2 SWAP1 MSTORE PUSH1 0x24 DUP3 ADD MSTORE PUSH32 0x4F776E61626C653A2063616C6C6572206973206E6F7420746865206F776E6572 PUSH1 0x44 DUP3 ADD MSTORE PUSH1 0x64 ADD PUSH2 0x812 JUMP JUMPDEST PUSH1 0x0 DUP1 SLOAD PUSH1 0x40 MLOAD PUSH1 0x1 PUSH1 0x1 PUSH1 0xA0 SHL SUB SWAP1 SWAP2 AND SWAP1 PUSH32 0x8BE0079C531659141344CD1FD0A4F28419497F9722A3DAAFE3B4186F6B6457E0 SWAP1 DUP4 SWAP1 LOG3 PUSH1 0x0 DUP1 SLOAD PUSH32 0xFFFFFFFFFFFFFFFFFFFFFFFF0000000000000000000000000000000000000000 AND SWAP1 SSTORE JUMP JUMPDEST PUSH1 0x0 NUMBER DUP3 LT PUSH2 0xA98 JUMPI PUSH1 0x40 MLOAD PUSH3 0x461BCD PUSH1 0xE5 SHL DUP2 MSTORE PUSH1 0x20 PUSH1 0x4 DUP3 ADD MSTORE PUSH1 0x27 PUSH1 0x24 DUP3 ADD MSTORE PUSH32 0x43414B453A3A6765745072696F72566F7465733A206E6F742079657420646574 PUSH1 0x44 DUP3 ADD MSTORE PUSH32 0x65726D696E656400000000000000000000000000000000000000000000000000 PUSH1 0x64 DUP3 ADD MSTORE PUSH1 0x84 ADD PUSH2 0x812 JUMP JUMPDEST PUSH1 0x1 PUSH1 0x1 PUSH1 0xA0 SHL SUB DUP4 AND PUSH1 0x0 SWAP1 DUP2 MSTORE PUSH1 0x17 PUSH1 0x20 MSTORE PUSH1 0x40 SWAP1 KECCAK256 SLOAD PUSH4 0xFFFFFFFF AND DUP1 PUSH2 0xAC6 JUMPI PUSH1 0x0 SWAP2 POP POP PUSH2 0x72D JUMP JUMPDEST PUSH1 0x1 PUSH1 0x1 PUSH1 0xA0 SHL SUB DUP5 AND PUSH1 0x0 SWAP1 DUP2 MSTORE PUSH1 0x16 PUSH1 0x20 MSTORE PUSH1 0x40 DUP2 KECCAK256 DUP5 SWAP2 PUSH2 0xAEB PUSH1 0x1 DUP6 PUSH2 0x2E2D JUMP JUMPDEST PUSH4 0xFFFFFFFF SWAP1 DUP2 AND DUP3 MSTORE PUSH1 0x20 DUP3 ADD SWAP3 SWAP1 SWAP3 MSTORE PUSH1 0x40 ADD PUSH1 0x0 KECCAK256 SLOAD AND GT PUSH2 0xB54 JUMPI PUSH1 0x1 PUSH1 0x1 PUSH1 0xA0 SHL SUB DUP5 AND PUSH1 0x0 SWAP1 DUP2 MSTORE PUSH1 0x16 PUSH1 0x20 MSTORE PUSH1 0x40 DUP2 KECCAK256 SWAP1 PUSH2 0xB2E PUSH1 0x1 DUP5 PUSH2 0x2E2D JUMP JUMPDEST PUSH4 0xFFFFFFFF AND PUSH4 0xFFFFFFFF AND DUP2 MSTORE PUSH1 0x20 ADD SWAP1 DUP2 MSTORE PUSH1 0x20 ADD PUSH1 0x0 KECCAK256 PUSH1 0x1 ADD SLOAD SWAP2 POP POP PUSH2 0x72D JUMP JUMPDEST PUSH1 0x1 PUSH1 0x1 PUSH1 0xA0 SHL SUB DUP5 AND PUSH1 0x0 SWAP1 DUP2 MSTORE PUSH1 0x16 PUSH1 0x20 SWAP1 DUP2 MSTORE PUSH1 0x40 DUP1 DUP4 KECCAK256 DUP4 DUP1 MSTORE SWAP1 SWAP2 MSTORE SWAP1 KECCAK256 SLOAD PUSH4 0xFFFFFFFF AND DUP4 LT ISZERO PUSH2 0xB8F JUMPI PUSH1 0x0 SWAP2 POP POP PUSH2 0x72D JUMP JUMPDEST PUSH1 0x0 DUP1 PUSH2 0xB9D PUSH1 0x1 DUP5 PUSH2 0x2E2D JUMP JUMPDEST SWAP1 POP JUMPDEST DUP2 PUSH4 0xFFFFFFFF AND DUP2 PUSH4 0xFFFFFFFF AND GT ISZERO PUSH2 0xC65 JUMPI PUSH1 0x0 PUSH1 0x2 PUSH2 0xBC2 DUP5 DUP5 PUSH2 0x2E2D JUMP JUMPDEST PUSH2 0xBCC SWAP2 SWAP1 PUSH2 0x2DD4 JUMP JUMPDEST PUSH2 0xBD6 SWAP1 DUP4 PUSH2 0x2E2D JUMP JUMPDEST PUSH1 0x1 PUSH1 0x1 PUSH1 0xA0 SHL SUB DUP9 AND PUSH1 0x0 SWAP1 DUP2 MSTORE PUSH1 0x16 PUSH1 0x20 SWAP1 DUP2 MSTORE PUSH1 0x40 DUP1 DUP4 KECCAK256 PUSH4 0xFFFFFFFF DUP1 DUP7 AND DUP6 MSTORE SWAP1 DUP4 MSTORE SWAP3 DUP2 SWAP1 KECCAK256 DUP2 MLOAD DUP1 DUP4 ADD SWAP1 SWAP3 MSTORE DUP1 SLOAD SWAP1 SWAP4 AND DUP1 DUP3 MSTORE PUSH1 0x1 SWAP1 SWAP4 ADD SLOAD SWAP2 DUP2 ADD SWAP2 SWAP1 SWAP2 MSTORE SWAP2 SWAP3 POP DUP8 EQ ISZERO PUSH2 0xC39 JUMPI PUSH1 0x20 ADD MLOAD SWAP5 POP PUSH2 0x72D SWAP4 POP POP POP POP JUMP JUMPDEST DUP1 MLOAD PUSH4 0xFFFFFFFF AND DUP8 GT ISZERO PUSH2 0xC50 JUMPI DUP2 SWAP4 POP PUSH2 0xC5E JUMP JUMPDEST PUSH2 0xC5B PUSH1 0x1 DUP4 PUSH2 0x2E2D JUMP JUMPDEST SWAP3 POP JUMPDEST POP POP PUSH2 0xBA0 JUMP JUMPDEST POP PUSH1 0x1 PUSH1 0x1 PUSH1 0xA0 SHL SUB DUP6 AND PUSH1 0x0 SWAP1 DUP2 MSTORE PUSH1 0x16 PUSH1 0x20 SWAP1 DUP2 MSTORE PUSH1 0x40 DUP1 DUP4 KECCAK256 PUSH4 0xFFFFFFFF SWAP1 SWAP5 AND DUP4 MSTORE SWAP3 SWAP1 MSTORE KECCAK256 PUSH1 0x1 ADD SLOAD SWAP2 POP POP SWAP3 SWAP2 POP POP JUMP JUMPDEST PUSH1 0x0 SLOAD PUSH1 0x1 PUSH1 0x1 PUSH1 0xA0 SHL SUB AND CALLER EQ PUSH2 0xCF6 JUMPI PUSH1 0x40 MLOAD PUSH3 0x461BCD PUSH1 0xE5 SHL DUP2 MSTORE PUSH1 0x20 PUSH1 0x4 DUP3 ADD DUP2 SWAP1 MSTORE PUSH1 0x24 DUP3 ADD MSTORE PUSH32 0x4F776E61626C653A2063616C6C6572206973206E6F7420746865206F776E6572 PUSH1 0x44 DUP3 ADD MSTORE PUSH1 0x64 ADD PUSH2 0x812 JUMP JUMPDEST PUSH1 0x9 SLOAD PUSH1 0x8 SLOAD PUSH2 0xD06 SWAP1 DUP4 PUSH2 0x2D80 JUMP JUMPDEST GT ISZERO PUSH2 0xD54 JUMPI PUSH1 0x40 MLOAD PUSH3 0x461BCD PUSH1 0xE5 SHL DUP2 MSTORE PUSH1 0x20 PUSH1 0x4 DUP3 ADD MSTORE PUSH1 0xD PUSH1 0x24 DUP3 ADD MSTORE PUSH32 0x6361702065786365656465642100000000000000000000000000000000000000 PUSH1 0x44 DUP3 ADD MSTORE PUSH1 0x64 ADD PUSH2 0x812 JUMP JUMPDEST PUSH2 0xD5D DUP2 PUSH2 0x1D3B JUMP JUMPDEST PUSH1 0x40 MLOAD DUP2 DUP2 MSTORE CALLER SWAP1 PUSH1 0x0 SWAP1 PUSH32 0xDDF252AD1BE2C89B69C2B068FC378DAA952BA7F163C4A11628F55A4DF523B3EF SWAP1 PUSH1 0x20 ADD PUSH1 0x40 MLOAD DUP1 SWAP2 SUB SWAP1 LOG3 POP JUMP JUMPDEST PUSH1 0x0 PUSH2 0x729 CALLER DUP5 PUSH2 0x78D DUP6 PUSH1 0x40 MLOAD DUP1 PUSH1 0x60 ADD PUSH1 0x40 MSTORE DUP1 PUSH1 0x25 DUP2 MSTORE PUSH1 0x20 ADD PUSH2 0x2EF6 PUSH1 0x25 SWAP2 CODECOPY CALLER PUSH1 0x0 SWAP1 DUP2 MSTORE PUSH1 0x3 PUSH1 0x20 SWAP1 DUP2 MSTORE PUSH1 0x40 DUP1 DUP4 KECCAK256 PUSH1 0x1 PUSH1 0x1 PUSH1 0xA0 SHL SUB DUP14 AND DUP5 MSTORE SWAP1 SWAP2 MSTORE SWAP1 KECCAK256 SLOAD SWAP2 SWAP1 PUSH2 0x1C06 JUMP JUMPDEST PUSH1 0x1 PUSH1 0x1 PUSH1 0xA0 SHL SUB DUP3 AND PUSH1 0x0 SWAP1 DUP2 MSTORE PUSH1 0x14 PUSH1 0x20 MSTORE PUSH1 0x40 DUP2 KECCAK256 SLOAD PUSH1 0xFF AND ISZERO ISZERO PUSH1 0x1 EQ ISZERO PUSH2 0xE26 JUMPI PUSH2 0xE26 PUSH1 0x0 PUSH1 0xC DUP2 SWAP1 SSTORE PUSH1 0xE DUP2 SWAP1 SSTORE PUSH1 0x10 DUP2 SWAP1 SSTORE PUSH1 0x12 SSTORE JUMP JUMPDEST PUSH2 0xE31 CALLER DUP5 DUP5 PUSH2 0x1944 JUMP JUMPDEST PUSH2 0x729 PUSH1 0xD SLOAD PUSH1 0xC SSTORE PUSH1 0xF SLOAD PUSH1 0xE SSTORE PUSH1 0x11 SLOAD PUSH1 0x10 SSTORE PUSH1 0x13 SLOAD PUSH1 0x12 SSTORE JUMP JUMPDEST PUSH1 0x1 PUSH1 0x1 PUSH1 0xA0 SHL SUB DUP2 AND PUSH1 0x0 SWAP1 DUP2 MSTORE PUSH1 0x17 PUSH1 0x20 MSTORE PUSH1 0x40 DUP2 KECCAK256 SLOAD PUSH4 0xFFFFFFFF AND DUP1 PUSH2 0xE79 JUMPI PUSH1 0x0 PUSH2 0x831 JUMP JUMPDEST PUSH1 0x1 PUSH1 0x1 PUSH1 0xA0 SHL SUB DUP4 AND PUSH1 0x0 SWAP1 DUP2 MSTORE PUSH1 0x16 PUSH1 0x20 MSTORE PUSH1 0x40 DUP2 KECCAK256 SWAP1 PUSH2 0xE9D PUSH1 0x1 DUP5 PUSH2 0x2E2D JUMP JUMPDEST PUSH4 0xFFFFFFFF AND PUSH4 0xFFFFFFFF AND DUP2 MSTORE PUSH1 0x20 ADD SWAP1 DUP2 MSTORE PUSH1 0x20 ADD PUSH1 0x0 KECCAK256 PUSH1 0x1 ADD SLOAD SWAP4 SWAP3 POP POP POP JUMP JUMPDEST PUSH1 0x40 DUP1 MLOAD DUP1 DUP3 ADD DUP3 MSTORE PUSH1 0x4 DUP2 MSTORE PUSH32 0x4D494E5400000000000000000000000000000000000000000000000000000000 PUSH1 0x20 SWAP2 DUP3 ADD MSTORE DUP2 MLOAD PUSH32 0x8CAD95687BA82C2CE50E74F7B754645E5117C3A5BEC8151C0726D5857980A866 DUP2 DUP4 ADD MSTORE PUSH32 0xFDF81848136595C31BB5F76217767372BC4BF906663038EB38381131EA27ECBA DUP2 DUP5 ADD MSTORE CHAINID PUSH1 0x60 DUP3 ADD MSTORE ADDRESS PUSH1 0x80 DUP1 DUP4 ADD SWAP2 SWAP1 SWAP2 MSTORE DUP4 MLOAD DUP1 DUP4 SUB SWAP1 SWAP2 ADD DUP2 MSTORE PUSH1 0xA0 DUP3 ADD DUP5 MSTORE DUP1 MLOAD SWAP1 DUP4 ADD KECCAK256 PUSH32 0xE48329057BFD03D55E49B547132E39CFFD9C1820AD7B9D4C5307691425D15ADF PUSH1 0xC0 DUP4 ADD MSTORE PUSH1 0x1 PUSH1 0x1 PUSH1 0xA0 SHL SUB DUP11 AND PUSH1 0xE0 DUP4 ADD MSTORE PUSH2 0x100 DUP3 ADD DUP10 SWAP1 MSTORE PUSH2 0x120 DUP1 DUP4 ADD DUP10 SWAP1 MSTORE DUP5 MLOAD DUP1 DUP5 SUB SWAP1 SWAP2 ADD DUP2 MSTORE PUSH2 0x140 DUP4 ADD SWAP1 SWAP5 MSTORE DUP4 MLOAD SWAP4 SWAP1 SWAP3 ADD SWAP3 SWAP1 SWAP3 KECCAK256 PUSH32 0x1901000000000000000000000000000000000000000000000000000000000000 PUSH2 0x160 DUP5 ADD MSTORE PUSH2 0x162 DUP4 ADD DUP3 SWAP1 MSTORE PUSH2 0x182 DUP4 ADD DUP2 SWAP1 MSTORE SWAP1 SWAP2 PUSH1 0x0 SWAP1 PUSH2 0x1A2 ADD PUSH1 0x40 DUP1 MLOAD PUSH1 0x1F NOT DUP2 DUP5 SUB ADD DUP2 MSTORE DUP3 DUP3 MSTORE DUP1 MLOAD PUSH1 0x20 SWAP2 DUP3 ADD KECCAK256 PUSH1 0x0 DUP1 DUP6 MSTORE SWAP2 DUP5 ADD DUP1 DUP5 MSTORE DUP2 SWAP1 MSTORE PUSH1 0xFF DUP11 AND SWAP3 DUP5 ADD SWAP3 SWAP1 SWAP3 MSTORE PUSH1 0x60 DUP4 ADD DUP9 SWAP1 MSTORE PUSH1 0x80 DUP4 ADD DUP8 SWAP1 MSTORE SWAP1 SWAP3 POP SWAP1 PUSH1 0x1 SWAP1 PUSH1 0xA0 ADD PUSH1 0x20 PUSH1 0x40 MLOAD PUSH1 0x20 DUP2 SUB SWAP1 DUP1 DUP5 SUB SWAP1 DUP6 GAS STATICCALL ISZERO DUP1 ISZERO PUSH2 0x1075 JUMPI RETURNDATASIZE PUSH1 0x0 DUP1 RETURNDATACOPY RETURNDATASIZE PUSH1 0x0 REVERT JUMPDEST POP POP PUSH1 0x40 MLOAD PUSH1 0x1F NOT ADD MLOAD SWAP2 POP POP PUSH1 0x1 PUSH1 0x1 PUSH1 0xA0 SHL SUB DUP2 AND PUSH2 0x10FE JUMPI PUSH1 0x40 MLOAD PUSH3 0x461BCD PUSH1 0xE5 SHL DUP2 MSTORE PUSH1 0x20 PUSH1 0x4 DUP3 ADD MSTORE PUSH1 0x26 PUSH1 0x24 DUP3 ADD MSTORE PUSH32 0x43414B453A3A64656C656761746542795369673A20696E76616C696420736967 PUSH1 0x44 DUP3 ADD MSTORE PUSH32 0x6E61747572650000000000000000000000000000000000000000000000000000 PUSH1 0x64 DUP3 ADD MSTORE PUSH1 0x84 ADD PUSH2 0x812 JUMP JUMPDEST PUSH1 0x1 PUSH1 0x1 PUSH1 0xA0 SHL SUB DUP2 AND PUSH1 0x0 SWAP1 DUP2 MSTORE PUSH1 0x18 PUSH1 0x20 MSTORE PUSH1 0x40 DUP2 KECCAK256 DUP1 SLOAD SWAP2 PUSH2 0x1122 DUP4 PUSH2 0x2E52 JUMP JUMPDEST SWAP2 SWAP1 POP SSTORE DUP10 EQ PUSH2 0x119A JUMPI PUSH1 0x40 MLOAD PUSH3 0x461BCD PUSH1 0xE5 SHL DUP2 MSTORE PUSH1 0x20 PUSH1 0x4 DUP3 ADD MSTORE PUSH1 0x22 PUSH1 0x24 DUP3 ADD MSTORE PUSH32 0x43414B453A3A64656C656761746542795369673A20696E76616C6964206E6F6E PUSH1 0x44 DUP3 ADD MSTORE PUSH32 0x6365000000000000000000000000000000000000000000000000000000000000 PUSH1 0x64 DUP3 ADD MSTORE PUSH1 0x84 ADD PUSH2 0x812 JUMP JUMPDEST DUP8 TIMESTAMP GT ISZERO PUSH2 0x1210 JUMPI PUSH1 0x40 MLOAD PUSH3 0x461BCD PUSH1 0xE5 SHL DUP2 MSTORE PUSH1 0x20 PUSH1 0x4 DUP3 ADD MSTORE PUSH1 0x26 PUSH1 0x24 DUP3 ADD MSTORE PUSH32 0x43414B453A3A64656C656761746542795369673A207369676E61747572652065 PUSH1 0x44 DUP3 ADD MSTORE PUSH32 0x7870697265640000000000000000000000000000000000000000000000000000 PUSH1 0x64 DUP3 ADD MSTORE PUSH1 0x84 ADD PUSH2 0x812 JUMP JUMPDEST PUSH2 0x121A DUP2 DUP12 PUSH2 0x1C8E JUMP JUMPDEST POP POP POP POP JUMPDEST POP POP POP POP POP POP JUMP JUMPDEST PUSH1 0x0 SLOAD PUSH1 0x1 PUSH1 0x1 PUSH1 0xA0 SHL SUB AND CALLER EQ PUSH2 0x1281 JUMPI PUSH1 0x40 MLOAD PUSH3 0x461BCD PUSH1 0xE5 SHL DUP2 MSTORE PUSH1 0x20 PUSH1 0x4 DUP3 ADD DUP2 SWAP1 MSTORE PUSH1 0x24 DUP3 ADD MSTORE PUSH32 0x4F776E61626C653A2063616C6C6572206973206E6F7420746865206F776E6572 PUSH1 0x44 DUP3 ADD MSTORE PUSH1 0x64 ADD PUSH2 0x812 JUMP JUMPDEST PUSH1 0x1 PUSH1 0x1 PUSH1 0xA0 SHL SUB SWAP2 SWAP1 SWAP2 AND PUSH1 0x0 SWAP1 DUP2 MSTORE PUSH1 0x14 PUSH1 0x20 MSTORE PUSH1 0x40 SWAP1 KECCAK256 DUP1 SLOAD PUSH1 0xFF NOT AND SWAP2 ISZERO ISZERO SWAP2 SWAP1 SWAP2 OR SWAP1 SSTORE JUMP JUMPDEST PUSH1 0x0 SLOAD PUSH1 0x1 PUSH1 0x1 PUSH1 0xA0 SHL SUB AND CALLER EQ PUSH2 0x1306 JUMPI PUSH1 0x40 MLOAD PUSH3 0x461BCD PUSH1 0xE5 SHL DUP2 MSTORE PUSH1 0x20 PUSH1 0x4 DUP3 ADD DUP2 SWAP1 MSTORE PUSH1 0x24 DUP3 ADD MSTORE PUSH32 0x4F776E61626C653A2063616C6C6572206973206E6F7420746865206F776E6572 PUSH1 0x44 DUP3 ADD MSTORE PUSH1 0x64 ADD PUSH2 0x812 JUMP JUMPDEST PUSH1 0x1 PUSH1 0x1 PUSH1 0xA0 SHL SUB DUP2 AND PUSH1 0x0 SWAP1 DUP2 MSTORE PUSH1 0x4 PUSH1 0x20 MSTORE PUSH1 0x40 SWAP1 KECCAK256 SLOAD PUSH1 0xFF AND ISZERO PUSH2 0x136F JUMPI PUSH1 0x40 MLOAD PUSH3 0x461BCD PUSH1 0xE5 SHL DUP2 MSTORE PUSH1 0x20 PUSH1 0x4 DUP3 ADD MSTORE PUSH1 0x1B PUSH1 0x24 DUP3 ADD MSTORE PUSH32 0x4163636F756E7420697320616C7265616479206578636C756465640000000000 PUSH1 0x44 DUP3 ADD MSTORE PUSH1 0x64 ADD PUSH2 0x812 JUMP JUMPDEST PUSH1 0x1 PUSH1 0x1 PUSH1 0xA0 SHL SUB DUP2 AND PUSH1 0x0 SWAP1 DUP2 MSTORE PUSH1 0x1 PUSH1 0x20 MSTORE PUSH1 0x40 SWAP1 KECCAK256 SLOAD ISZERO PUSH2 0x13C9 JUMPI PUSH1 0x1 PUSH1 0x1 PUSH1 0xA0 SHL SUB DUP2 AND PUSH1 0x0 SWAP1 DUP2 MSTORE PUSH1 0x1 PUSH1 0x20 MSTORE PUSH1 0x40 SWAP1 KECCAK256 SLOAD PUSH2 0x13AF SWAP1 PUSH2 0x79C JUMP JUMPDEST PUSH1 0x1 PUSH1 0x1 PUSH1 0xA0 SHL SUB DUP3 AND PUSH1 0x0 SWAP1 DUP2 MSTORE PUSH1 0x2 PUSH1 0x20 MSTORE PUSH1 0x40 SWAP1 KECCAK256 SSTORE JUMPDEST PUSH1 0x1 PUSH1 0x1 PUSH1 0xA0 SHL SUB AND PUSH1 0x0 DUP2 DUP2 MSTORE PUSH1 0x4 PUSH1 0x20 MSTORE PUSH1 0x40 DUP2 KECCAK256 DUP1 SLOAD PUSH1 0xFF NOT AND PUSH1 0x1 SWAP1 DUP2 OR SWAP1 SWAP2 SSTORE PUSH1 0x5 DUP1 SLOAD SWAP2 DUP3 ADD DUP2 SSTORE SWAP1 SWAP2 MSTORE PUSH32 0x36B6384B5ECA791C62761152D0C79BB0604C104A5FB6F4EB0703F3154BB3DB0 ADD DUP1 SLOAD PUSH32 0xFFFFFFFFFFFFFFFFFFFFFFFF0000000000000000000000000000000000000000 AND SWAP1 SWAP2 OR SWAP1 SSTORE JUMP JUMPDEST PUSH1 0x0 SLOAD PUSH1 0x1 PUSH1 0x1 PUSH1 0xA0 SHL SUB AND CALLER EQ PUSH2 0x14A1 JUMPI PUSH1 0x40 MLOAD PUSH3 0x461BCD PUSH1 0xE5 SHL DUP2 MSTORE PUSH1 0x20 PUSH1 0x4 DUP3 ADD DUP2 SWAP1 MSTORE PUSH1 0x24 DUP3 ADD MSTORE PUSH32 0x4F776E61626C653A2063616C6C6572206973206E6F7420746865206F776E6572 PUSH1 0x44 DUP3 ADD MSTORE PUSH1 0x64 ADD PUSH2 0x812 JUMP JUMPDEST PUSH1 0x1 PUSH1 0x1 PUSH1 0xA0 SHL SUB DUP2 AND PUSH2 0x151D JUMPI PUSH1 0x40 MLOAD PUSH3 0x461BCD PUSH1 0xE5 SHL DUP2 MSTORE PUSH1 0x20 PUSH1 0x4 DUP3 ADD MSTORE PUSH1 0x26 PUSH1 0x24 DUP3 ADD MSTORE PUSH32 0x4F776E61626C653A206E6577206F776E657220697320746865207A65726F2061 PUSH1 0x44 DUP3 ADD MSTORE PUSH32 0x6464726573730000000000000000000000000000000000000000000000000000 PUSH1 0x64 DUP3 ADD MSTORE PUSH1 0x84 ADD PUSH2 0x812 JUMP JUMPDEST PUSH1 0x0 DUP1 SLOAD PUSH1 0x40 MLOAD PUSH1 0x1 PUSH1 0x1 PUSH1 0xA0 SHL SUB DUP1 DUP6 AND SWAP4 SWAP3 AND SWAP2 PUSH32 0x8BE0079C531659141344CD1FD0A4F28419497F9722A3DAAFE3B4186F6B6457E0 SWAP2 LOG3 PUSH1 0x0 DUP1 SLOAD PUSH32 0xFFFFFFFFFFFFFFFFFFFFFFFF0000000000000000000000000000000000000000 AND PUSH1 0x1 PUSH1 0x1 PUSH1 0xA0 SHL SUB SWAP3 SWAP1 SWAP3 AND SWAP2 SWAP1 SWAP2 OR SWAP1 SSTORE JUMP JUMPDEST PUSH1 0x0 SLOAD PUSH1 0x1 PUSH1 0x1 PUSH1 0xA0 SHL SUB AND CALLER EQ PUSH2 0x15EA JUMPI PUSH1 0x40 MLOAD PUSH3 0x461BCD PUSH1 0xE5 SHL DUP2 MSTORE PUSH1 0x20 PUSH1 0x4 DUP3 ADD DUP2 SWAP1 MSTORE PUSH1 0x24 DUP3 ADD MSTORE PUSH32 0x4F776E61626C653A2063616C6C6572206973206E6F7420746865206F776E6572 PUSH1 0x44 DUP3 ADD MSTORE PUSH1 0x64 ADD PUSH2 0x812 JUMP JUMPDEST PUSH1 0x1 PUSH1 0x1 PUSH1 0xA0 SHL SUB DUP2 AND PUSH1 0x0 SWAP1 DUP2 MSTORE PUSH1 0x4 PUSH1 0x20 MSTORE PUSH1 0x40 SWAP1 KECCAK256 SLOAD PUSH1 0xFF AND PUSH2 0x1652 JUMPI PUSH1 0x40 MLOAD PUSH3 0x461BCD PUSH1 0xE5 SHL DUP2 MSTORE PUSH1 0x20 PUSH1 0x4 DUP3 ADD MSTORE PUSH1 0x1B PUSH1 0x24 DUP3 ADD MSTORE PUSH32 0x4163636F756E7420697320616C7265616479206578636C756465640000000000 PUSH1 0x44 DUP3 ADD MSTORE PUSH1 0x64 ADD PUSH2 0x812 JUMP JUMPDEST PUSH1 0x0 JUMPDEST PUSH1 0x5 SLOAD DUP2 LT ISZERO PUSH2 0x17DB JUMPI DUP2 PUSH1 0x1 PUSH1 0x1 PUSH1 0xA0 SHL SUB AND PUSH1 0x5 DUP3 DUP2 SLOAD DUP2 LT PUSH2 0x168A JUMPI PUSH4 0x4E487B71 PUSH1 0xE0 SHL PUSH1 0x0 MSTORE PUSH1 0x32 PUSH1 0x4 MSTORE PUSH1 0x24 PUSH1 0x0 REVERT JUMPDEST PUSH1 0x0 SWAP2 DUP3 MSTORE PUSH1 0x20 SWAP1 SWAP2 KECCAK256 ADD SLOAD PUSH1 0x1 PUSH1 0x1 PUSH1 0xA0 SHL SUB AND EQ ISZERO PUSH2 0x17C9 JUMPI PUSH1 0x5 DUP1 SLOAD PUSH2 0x16B5 SWAP1 PUSH1 0x1 SWAP1 PUSH2 0x2E16 JUMP JUMPDEST DUP2 SLOAD DUP2 LT PUSH2 0x16D3 JUMPI PUSH4 0x4E487B71 PUSH1 0xE0 SHL PUSH1 0x0 MSTORE PUSH1 0x32 PUSH1 0x4 MSTORE PUSH1 0x24 PUSH1 0x0 REVERT JUMPDEST PUSH1 0x0 SWAP2 DUP3 MSTORE PUSH1 0x20 SWAP1 SWAP2 KECCAK256 ADD SLOAD PUSH1 0x5 DUP1 SLOAD PUSH1 0x1 PUSH1 0x1 PUSH1 0xA0 SHL SUB SWAP1 SWAP3 AND SWAP2 DUP4 SWAP1 DUP2 LT PUSH2 0x170D JUMPI PUSH4 0x4E487B71 PUSH1 0xE0 SHL PUSH1 0x0 MSTORE PUSH1 0x32 PUSH1 0x4 MSTORE PUSH1 0x24 PUSH1 0x0 REVERT JUMPDEST PUSH1 0x0 SWAP2 DUP3 MSTORE PUSH1 0x20 DUP1 DUP4 KECCAK256 SWAP2 SWAP1 SWAP2 ADD DUP1 SLOAD PUSH32 0xFFFFFFFFFFFFFFFFFFFFFFFF0000000000000000000000000000000000000000 AND PUSH1 0x1 PUSH1 0x1 PUSH1 0xA0 SHL SUB SWAP5 DUP6 AND OR SWAP1 SSTORE SWAP2 DUP5 AND DUP2 MSTORE PUSH1 0x2 DUP3 MSTORE PUSH1 0x40 DUP1 DUP3 KECCAK256 DUP3 SWAP1 SSTORE PUSH1 0x4 SWAP1 SWAP3 MSTORE KECCAK256 DUP1 SLOAD PUSH1 0xFF NOT AND SWAP1 SSTORE PUSH1 0x5 DUP1 SLOAD DUP1 PUSH2 0x178B JUMPI PUSH4 0x4E487B71 PUSH1 0xE0 SHL PUSH1 0x0 MSTORE PUSH1 0x31 PUSH1 0x4 MSTORE PUSH1 0x24 PUSH1 0x0 REVERT JUMPDEST PUSH1 0x0 DUP3 DUP2 MSTORE PUSH1 0x20 SWAP1 KECCAK256 DUP2 ADD PUSH1 0x0 NOT SWAP1 DUP2 ADD DUP1 SLOAD PUSH32 0xFFFFFFFFFFFFFFFFFFFFFFFF0000000000000000000000000000000000000000 AND SWAP1 SSTORE ADD SWAP1 SSTORE POP POP JUMP JUMPDEST DUP1 PUSH2 0x17D3 DUP2 PUSH2 0x2E52 JUMP JUMPDEST SWAP2 POP POP PUSH2 0x1655 JUMP JUMPDEST POP POP JUMP JUMPDEST PUSH1 0x0 PUSH2 0x831 DUP3 DUP5 PUSH2 0x2DC0 JUMP JUMPDEST PUSH1 0x1 PUSH1 0x1 PUSH1 0xA0 SHL SUB DUP4 AND PUSH2 0x1866 JUMPI PUSH1 0x40 MLOAD PUSH3 0x461BCD PUSH1 0xE5 SHL DUP2 MSTORE PUSH1 0x20 PUSH1 0x4 DUP3 ADD MSTORE PUSH1 0x24 DUP1 DUP3 ADD MSTORE PUSH32 0x45524332303A20617070726F76652066726F6D20746865207A65726F20616464 PUSH1 0x44 DUP3 ADD MSTORE PUSH32 0x7265737300000000000000000000000000000000000000000000000000000000 PUSH1 0x64 DUP3 ADD MSTORE PUSH1 0x84 ADD PUSH2 0x812 JUMP JUMPDEST PUSH1 0x1 PUSH1 0x1 PUSH1 0xA0 SHL SUB DUP3 AND PUSH2 0x18E2 JUMPI PUSH1 0x40 MLOAD PUSH3 0x461BCD PUSH1 0xE5 SHL DUP2 MSTORE PUSH1 0x20 PUSH1 0x4 DUP3 ADD MSTORE PUSH1 0x22 PUSH1 0x24 DUP3 ADD MSTORE PUSH32 0x45524332303A20617070726F766520746F20746865207A65726F206164647265 PUSH1 0x44 DUP3 ADD MSTORE PUSH32 0x7373000000000000000000000000000000000000000000000000000000000000 PUSH1 0x64 DUP3 ADD MSTORE PUSH1 0x84 ADD PUSH2 0x812 JUMP JUMPDEST PUSH1 0x1 PUSH1 0x1 PUSH1 0xA0 SHL SUB DUP4 DUP2 AND PUSH1 0x0 DUP2 DUP2 MSTORE PUSH1 0x3 PUSH1 0x20 SWAP1 DUP2 MSTORE PUSH1 0x40 DUP1 DUP4 KECCAK256 SWAP5 DUP8 AND DUP1 DUP5 MSTORE SWAP5 DUP3 MSTORE SWAP2 DUP3 SWAP1 KECCAK256 DUP6 SWAP1 SSTORE SWAP1 MLOAD DUP5 DUP2 MSTORE PUSH32 0x8C5BE1E5EBEC7D5BD14F71427D1E84F3DD0314C0F7B2291E5B200AC8C7C3B925 SWAP2 ADD JUMPDEST PUSH1 0x40 MLOAD DUP1 SWAP2 SUB SWAP1 LOG3 POP POP POP JUMP JUMPDEST PUSH1 0x1 PUSH1 0x1 PUSH1 0xA0 SHL SUB DUP4 AND PUSH2 0x19C0 JUMPI PUSH1 0x40 MLOAD PUSH3 0x461BCD PUSH1 0xE5 SHL DUP2 MSTORE PUSH1 0x20 PUSH1 0x4 DUP3 ADD MSTORE PUSH1 0x25 PUSH1 0x24 DUP3 ADD MSTORE PUSH32 0x45524332303A207472616E736665722066726F6D20746865207A65726F206164 PUSH1 0x44 DUP3 ADD MSTORE PUSH32 0x6472657373000000000000000000000000000000000000000000000000000000 PUSH1 0x64 DUP3 ADD MSTORE PUSH1 0x84 ADD PUSH2 0x812 JUMP JUMPDEST PUSH1 0x1 PUSH1 0x1 PUSH1 0xA0 SHL SUB DUP3 AND PUSH2 0x1A3C JUMPI PUSH1 0x40 MLOAD PUSH3 0x461BCD PUSH1 0xE5 SHL DUP2 MSTORE PUSH1 0x20 PUSH1 0x4 DUP3 ADD MSTORE PUSH1 0x23 PUSH1 0x24 DUP3 ADD MSTORE PUSH32 0x45524332303A207472616E7366657220746F20746865207A65726F2061646472 PUSH1 0x44 DUP3 ADD MSTORE PUSH32 0x6573730000000000000000000000000000000000000000000000000000000000 PUSH1 0x64 DUP3 ADD MSTORE PUSH1 0x84 ADD PUSH2 0x812 JUMP JUMPDEST PUSH1 0x0 DUP2 GT PUSH2 0x1AB2 JUMPI PUSH1 0x40 MLOAD PUSH3 0x461BCD PUSH1 0xE5 SHL DUP2 MSTORE PUSH1 0x20 PUSH1 0x4 DUP3 ADD MSTORE PUSH1 0x29 PUSH1 0x24 DUP3 ADD MSTORE PUSH32 0x5472616E7366657220616D6F756E74206D757374206265206772656174657220 PUSH1 0x44 DUP3 ADD MSTORE PUSH32 0x7468616E207A65726F0000000000000000000000000000000000000000000000 PUSH1 0x64 DUP3 ADD MSTORE PUSH1 0x84 ADD PUSH2 0x812 JUMP JUMPDEST PUSH1 0x1 PUSH1 0x1 PUSH1 0xA0 SHL SUB DUP4 AND PUSH1 0x0 SWAP1 DUP2 MSTORE PUSH1 0x4 PUSH1 0x20 MSTORE PUSH1 0x40 SWAP1 KECCAK256 SLOAD PUSH1 0xFF AND DUP1 ISZERO PUSH2 0x1AF3 JUMPI POP PUSH1 0x1 PUSH1 0x1 PUSH1 0xA0 SHL SUB DUP3 AND PUSH1 0x0 SWAP1 DUP2 MSTORE PUSH1 0x4 PUSH1 0x20 MSTORE PUSH1 0x40 SWAP1 KECCAK256 SLOAD PUSH1 0xFF AND ISZERO JUMPDEST ISZERO PUSH2 0x1B08 JUMPI PUSH2 0x1B03 DUP4 DUP4 DUP4 PUSH2 0x1DA5 JUMP JUMPDEST POP POP POP JUMP JUMPDEST PUSH1 0x1 PUSH1 0x1 PUSH1 0xA0 SHL SUB DUP4 AND PUSH1 0x0 SWAP1 DUP2 MSTORE PUSH1 0x4 PUSH1 0x20 MSTORE PUSH1 0x40 SWAP1 KECCAK256 SLOAD PUSH1 0xFF AND ISZERO DUP1 ISZERO PUSH2 0x1B49 JUMPI POP PUSH1 0x1 PUSH1 0x1 PUSH1 0xA0 SHL SUB DUP3 AND PUSH1 0x0 SWAP1 DUP2 MSTORE PUSH1 0x4 PUSH1 0x20 MSTORE PUSH1 0x40 SWAP1 KECCAK256 SLOAD PUSH1 0xFF AND JUMPDEST ISZERO PUSH2 0x1B59 JUMPI PUSH2 0x1B03 DUP4 DUP4 DUP4 PUSH2 0x1E85 JUMP JUMPDEST PUSH1 0x1 PUSH1 0x1 PUSH1 0xA0 SHL SUB DUP4 AND PUSH1 0x0 SWAP1 DUP2 MSTORE PUSH1 0x4 PUSH1 0x20 MSTORE PUSH1 0x40 SWAP1 KECCAK256 SLOAD PUSH1 0xFF AND ISZERO DUP1 ISZERO PUSH2 0x1B9B JUMPI POP PUSH1 0x1 PUSH1 0x1 PUSH1 0xA0 SHL SUB DUP3 AND PUSH1 0x0 SWAP1 DUP2 MSTORE PUSH1 0x4 PUSH1 0x20 MSTORE PUSH1 0x40 SWAP1 KECCAK256 SLOAD PUSH1 0xFF AND ISZERO JUMPDEST ISZERO PUSH2 0x1BAB JUMPI PUSH2 0x1B03 DUP4 DUP4 DUP4 PUSH2 0x1F64 JUMP JUMPDEST PUSH1 0x1 PUSH1 0x1 PUSH1 0xA0 SHL SUB DUP4 AND PUSH1 0x0 SWAP1 DUP2 MSTORE PUSH1 0x4 PUSH1 0x20 MSTORE PUSH1 0x40 SWAP1 KECCAK256 SLOAD PUSH1 0xFF AND DUP1 ISZERO PUSH2 0x1BEB JUMPI POP PUSH1 0x1 PUSH1 0x1 PUSH1 0xA0 SHL SUB DUP3 AND PUSH1 0x0 SWAP1 DUP2 MSTORE PUSH1 0x4 PUSH1 0x20 MSTORE PUSH1 0x40 SWAP1 KECCAK256 SLOAD PUSH1 0xFF AND JUMPDEST ISZERO PUSH2 0x1BFB JUMPI PUSH2 0x1B03 DUP4 DUP4 DUP4 PUSH2 0x1FB7 JUMP JUMPDEST PUSH2 0x1B03 DUP4 DUP4 DUP4 PUSH2 0x1F64 JUMP JUMPDEST PUSH1 0x0 DUP2 DUP5 DUP5 GT ISZERO PUSH2 0x1C2A JUMPI PUSH1 0x40 MLOAD PUSH3 0x461BCD PUSH1 0xE5 SHL DUP2 MSTORE PUSH1 0x4 ADD PUSH2 0x812 SWAP2 SWAP1 PUSH2 0x2D2D JUMP JUMPDEST POP POP POP SWAP1 SUB SWAP1 JUMP JUMPDEST PUSH1 0x0 DUP1 PUSH1 0x0 PUSH2 0x1C3F PUSH2 0x203C JUMP JUMPDEST SWAP1 SWAP3 POP SWAP1 POP PUSH2 0x1C4E DUP3 DUP3 PUSH2 0x17DF JUMP JUMPDEST SWAP3 POP POP POP SWAP1 JUMP JUMPDEST PUSH1 0x0 PUSH2 0x831 DUP3 DUP5 PUSH2 0x2D80 JUMP JUMPDEST PUSH1 0x0 DUP1 PUSH1 0x0 DUP1 PUSH1 0x0 DUP1 PUSH1 0x0 DUP1 PUSH1 0x0 DUP1 PUSH2 0x1C79 DUP12 PUSH2 0x21F6 JUMP JUMPDEST SWAP16 SWAP4 SWAP15 POP SWAP2 SWAP13 POP SWAP11 POP SWAP9 POP SWAP7 POP POP POP POP POP POP POP JUMP JUMPDEST PUSH1 0x1 PUSH1 0x1 PUSH1 0xA0 SHL SUB DUP1 DUP4 AND PUSH1 0x0 SWAP1 DUP2 MSTORE PUSH1 0x15 PUSH1 0x20 MSTORE PUSH1 0x40 DUP2 KECCAK256 SLOAD SWAP1 SWAP2 AND SWAP1 PUSH2 0x1CB5 DUP5 PUSH2 0x906 JUMP JUMPDEST PUSH1 0x1 PUSH1 0x1 PUSH1 0xA0 SHL SUB DUP6 DUP2 AND PUSH1 0x0 DUP2 DUP2 MSTORE PUSH1 0x15 PUSH1 0x20 MSTORE PUSH1 0x40 DUP1 DUP3 KECCAK256 DUP1 SLOAD PUSH32 0xFFFFFFFFFFFFFFFFFFFFFFFF0000000000000000000000000000000000000000 AND DUP10 DUP7 AND SWAP1 DUP2 OR SWAP1 SWAP2 SSTORE SWAP1 MLOAD SWAP5 SWAP6 POP SWAP4 SWAP3 DUP7 AND SWAP3 PUSH32 0x3134E8A2E6D97E929A7E54011EA5485D7D196DD5F0BA4D4EF95803E8E3FC257F SWAP2 SWAP1 LOG4 PUSH2 0x1D35 DUP3 DUP5 DUP4 PUSH2 0x2240 JUMP JUMPDEST POP POP POP POP JUMP JUMPDEST PUSH1 0x0 PUSH2 0x1D45 PUSH2 0x1C32 JUMP JUMPDEST SWAP1 POP PUSH1 0x0 PUSH2 0x1D53 DUP4 DUP4 PUSH2 0x239F JUMP JUMPDEST PUSH1 0xA SLOAD SWAP1 SWAP2 POP PUSH2 0x1D63 SWAP1 DUP3 PUSH2 0x1C55 JUMP JUMPDEST PUSH1 0xA SSTORE PUSH1 0x8 SLOAD PUSH2 0x1D73 SWAP1 DUP5 PUSH2 0x1C55 JUMP JUMPDEST PUSH1 0x8 SSTORE CALLER PUSH1 0x0 SWAP1 DUP2 MSTORE PUSH1 0x1 PUSH1 0x20 MSTORE PUSH1 0x40 SWAP1 KECCAK256 SLOAD PUSH2 0x1D90 SWAP1 DUP3 PUSH2 0x1C55 JUMP JUMPDEST CALLER PUSH1 0x0 SWAP1 DUP2 MSTORE PUSH1 0x1 PUSH1 0x20 MSTORE PUSH1 0x40 SWAP1 KECCAK256 SSTORE POP POP POP JUMP JUMPDEST PUSH1 0x0 DUP1 PUSH1 0x0 DUP1 PUSH2 0x1DB4 DUP6 PUSH2 0x1C61 JUMP JUMPDEST SWAP5 POP SWAP5 POP SWAP5 POP SWAP5 POP POP PUSH1 0x0 DUP1 PUSH2 0x1DCD DUP8 DUP8 DUP8 DUP8 DUP8 PUSH2 0x23AB JUMP JUMPDEST POP POP POP PUSH1 0x1 PUSH1 0x1 PUSH1 0xA0 SHL SUB DUP12 AND PUSH1 0x0 SWAP1 DUP2 MSTORE PUSH1 0x2 PUSH1 0x20 MSTORE PUSH1 0x40 SWAP1 KECCAK256 SLOAD SWAP2 SWAP4 POP SWAP2 POP PUSH2 0x1DF8 SWAP1 DUP9 PUSH2 0x2431 JUMP JUMPDEST PUSH1 0x1 PUSH1 0x1 PUSH1 0xA0 SHL SUB DUP11 AND PUSH1 0x0 SWAP1 DUP2 MSTORE PUSH1 0x2 PUSH1 0x20 SWAP1 DUP2 MSTORE PUSH1 0x40 DUP1 DUP4 KECCAK256 SWAP4 SWAP1 SWAP4 SSTORE PUSH1 0x1 SWAP1 MSTORE KECCAK256 SLOAD PUSH2 0x1E27 SWAP1 DUP4 PUSH2 0x2431 JUMP JUMPDEST PUSH1 0x1 PUSH1 0x1 PUSH1 0xA0 SHL SUB DUP1 DUP12 AND PUSH1 0x0 SWAP1 DUP2 MSTORE PUSH1 0x1 PUSH1 0x20 MSTORE PUSH1 0x40 DUP1 DUP3 KECCAK256 SWAP4 SWAP1 SWAP4 SSTORE SWAP1 DUP11 AND DUP2 MSTORE KECCAK256 SLOAD PUSH2 0x1E56 SWAP1 DUP3 PUSH2 0x1C55 JUMP JUMPDEST PUSH1 0x1 PUSH1 0x1 PUSH1 0xA0 SHL SUB DUP10 AND PUSH1 0x0 SWAP1 DUP2 MSTORE PUSH1 0x1 PUSH1 0x20 MSTORE PUSH1 0x40 SWAP1 KECCAK256 SSTORE PUSH2 0x1E7A DUP10 DUP10 DUP10 PUSH2 0x243D JUMP JUMPDEST POP POP POP POP POP POP POP POP POP JUMP JUMPDEST PUSH1 0x0 DUP1 PUSH1 0x0 DUP1 PUSH1 0x0 PUSH2 0x1E96 DUP7 PUSH2 0x1C61 JUMP JUMPDEST SWAP5 POP SWAP5 POP SWAP5 POP SWAP5 POP SWAP5 POP PUSH1 0x0 DUP1 PUSH2 0x1EB0 DUP9 DUP8 DUP8 DUP8 DUP8 PUSH2 0x23AB JUMP JUMPDEST POP POP POP PUSH1 0x1 PUSH1 0x1 PUSH1 0xA0 SHL SUB DUP13 AND PUSH1 0x0 SWAP1 DUP2 MSTORE PUSH1 0x1 PUSH1 0x20 MSTORE PUSH1 0x40 SWAP1 KECCAK256 SLOAD SWAP2 SWAP4 POP SWAP2 POP PUSH2 0x1EDB SWAP1 DUP4 PUSH2 0x2431 JUMP JUMPDEST PUSH1 0x1 PUSH1 0x1 PUSH1 0xA0 SHL SUB DUP1 DUP13 AND PUSH1 0x0 SWAP1 DUP2 MSTORE PUSH1 0x1 PUSH1 0x20 SWAP1 DUP2 MSTORE PUSH1 0x40 DUP1 DUP4 KECCAK256 SWAP5 SWAP1 SWAP5 SSTORE SWAP2 DUP13 AND DUP2 MSTORE PUSH1 0x2 SWAP1 SWAP2 MSTORE KECCAK256 SLOAD PUSH2 0x1F11 SWAP1 DUP9 PUSH2 0x1C55 JUMP JUMPDEST PUSH1 0x1 PUSH1 0x1 PUSH1 0xA0 SHL SUB DUP11 AND PUSH1 0x0 SWAP1 DUP2 MSTORE PUSH1 0x2 PUSH1 0x20 SWAP1 DUP2 MSTORE PUSH1 0x40 DUP1 DUP4 KECCAK256 SWAP4 SWAP1 SWAP4 SSTORE PUSH1 0x1 SWAP1 MSTORE KECCAK256 SLOAD PUSH2 0x1F40 SWAP1 DUP3 PUSH2 0x1C55 JUMP JUMPDEST PUSH1 0x1 PUSH1 0x1 PUSH1 0xA0 SHL SUB DUP11 AND PUSH1 0x0 SWAP1 DUP2 MSTORE PUSH1 0x1 PUSH1 0x20 MSTORE PUSH1 0x40 SWAP1 KECCAK256 SSTORE PUSH2 0x121A DUP11 DUP11 DUP11 PUSH2 0x243D JUMP JUMPDEST PUSH1 0x0 DUP1 PUSH1 0x0 DUP1 PUSH2 0x1F73 DUP6 PUSH2 0x1C61 JUMP JUMPDEST SWAP5 POP SWAP5 POP SWAP5 POP SWAP5 POP POP PUSH1 0x0 DUP1 PUSH2 0x1F8C DUP8 DUP8 DUP8 DUP8 DUP8 PUSH2 0x23AB JUMP JUMPDEST POP POP POP PUSH1 0x1 PUSH1 0x1 PUSH1 0xA0 SHL SUB DUP12 AND PUSH1 0x0 SWAP1 DUP2 MSTORE PUSH1 0x1 PUSH1 0x20 MSTORE PUSH1 0x40 SWAP1 KECCAK256 SLOAD SWAP2 SWAP4 POP SWAP2 POP PUSH2 0x1E27 SWAP1 DUP4 PUSH2 0x2431 JUMP JUMPDEST PUSH1 0x0 DUP1 PUSH1 0x0 DUP1 PUSH1 0x0 PUSH2 0x1FC8 DUP7 PUSH2 0x1C61 JUMP JUMPDEST SWAP5 POP SWAP5 POP SWAP5 POP SWAP5 POP SWAP5 POP PUSH1 0x0 DUP1 PUSH2 0x1FE2 DUP9 DUP8 DUP8 DUP8 DUP8 PUSH2 0x23AB JUMP JUMPDEST POP POP POP PUSH1 0x1 PUSH1 0x1 PUSH1 0xA0 SHL SUB DUP13 AND PUSH1 0x0 SWAP1 DUP2 MSTORE PUSH1 0x2 PUSH1 0x20 MSTORE PUSH1 0x40 SWAP1 KECCAK256 SLOAD SWAP2 SWAP4 POP SWAP2 POP PUSH2 0x200D SWAP1 DUP10 PUSH2 0x2431 JUMP JUMPDEST PUSH1 0x1 PUSH1 0x1 PUSH1 0xA0 SHL SUB DUP12 AND PUSH1 0x0 SWAP1 DUP2 MSTORE PUSH1 0x2 PUSH1 0x20 SWAP1 DUP2 MSTORE PUSH1 0x40 DUP1 DUP4 KECCAK256 SWAP4 SWAP1 SWAP4 SSTORE PUSH1 0x1 SWAP1 MSTORE KECCAK256 SLOAD PUSH2 0x1EDB SWAP1 DUP4 PUSH2 0x2431 JUMP JUMPDEST PUSH1 0xA SLOAD PUSH1 0x8 SLOAD PUSH1 0x0 SWAP2 DUP3 SWAP2 DUP3 JUMPDEST PUSH1 0x5 SLOAD DUP2 LT ISZERO PUSH2 0x21C6 JUMPI DUP3 PUSH1 0x1 PUSH1 0x0 PUSH1 0x5 DUP5 DUP2 SLOAD DUP2 LT PUSH2 0x2079 JUMPI PUSH4 0x4E487B71 PUSH1 0xE0 SHL PUSH1 0x0 MSTORE PUSH1 0x32 PUSH1 0x4 MSTORE PUSH1 0x24 PUSH1 0x0 REVERT JUMPDEST PUSH1 0x0 SWAP2 DUP3 MSTORE PUSH1 0x20 DUP1 DUP4 KECCAK256 SWAP1 SWAP2 ADD SLOAD PUSH1 0x1 PUSH1 0x1 PUSH1 0xA0 SHL SUB AND DUP4 MSTORE DUP3 ADD SWAP3 SWAP1 SWAP3 MSTORE PUSH1 0x40 ADD SWAP1 KECCAK256 SLOAD GT DUP1 PUSH2 0x20F2 JUMPI POP DUP2 PUSH1 0x2 PUSH1 0x0 PUSH1 0x5 DUP5 DUP2 SLOAD DUP2 LT PUSH2 0x20CB JUMPI PUSH4 0x4E487B71 PUSH1 0xE0 SHL PUSH1 0x0 MSTORE PUSH1 0x32 PUSH1 0x4 MSTORE PUSH1 0x24 PUSH1 0x0 REVERT JUMPDEST PUSH1 0x0 SWAP2 DUP3 MSTORE PUSH1 0x20 DUP1 DUP4 KECCAK256 SWAP1 SWAP2 ADD SLOAD PUSH1 0x1 PUSH1 0x1 PUSH1 0xA0 SHL SUB AND DUP4 MSTORE DUP3 ADD SWAP3 SWAP1 SWAP3 MSTORE PUSH1 0x40 ADD SWAP1 KECCAK256 SLOAD GT JUMPDEST ISZERO PUSH2 0x2108 JUMPI PUSH1 0xA SLOAD PUSH1 0x8 SLOAD SWAP5 POP SWAP5 POP POP POP POP SWAP1 SWAP2 JUMP JUMPDEST PUSH2 0x215C PUSH1 0x1 PUSH1 0x0 PUSH1 0x5 DUP5 DUP2 SLOAD DUP2 LT PUSH2 0x2130 JUMPI PUSH4 0x4E487B71 PUSH1 0xE0 SHL PUSH1 0x0 MSTORE PUSH1 0x32 PUSH1 0x4 MSTORE PUSH1 0x24 PUSH1 0x0 REVERT JUMPDEST PUSH1 0x0 SWAP2 DUP3 MSTORE PUSH1 0x20 DUP1 DUP4 KECCAK256 SWAP1 SWAP2 ADD SLOAD PUSH1 0x1 PUSH1 0x1 PUSH1 0xA0 SHL SUB AND DUP4 MSTORE DUP3 ADD SWAP3 SWAP1 SWAP3 MSTORE PUSH1 0x40 ADD SWAP1 KECCAK256 SLOAD DUP5 SWAP1 PUSH2 0x2431 JUMP JUMPDEST SWAP3 POP PUSH2 0x21B2 PUSH1 0x2 PUSH1 0x0 PUSH1 0x5 DUP5 DUP2 SLOAD DUP2 LT PUSH2 0x2186 JUMPI PUSH4 0x4E487B71 PUSH1 0xE0 SHL PUSH1 0x0 MSTORE PUSH1 0x32 PUSH1 0x4 MSTORE PUSH1 0x24 PUSH1 0x0 REVERT JUMPDEST PUSH1 0x0 SWAP2 DUP3 MSTORE PUSH1 0x20 DUP1 DUP4 KECCAK256 SWAP1 SWAP2 ADD SLOAD PUSH1 0x1 PUSH1 0x1 PUSH1 0xA0 SHL SUB AND DUP4 MSTORE DUP3 ADD SWAP3 SWAP1 SWAP3 MSTORE PUSH1 0x40 ADD SWAP1 KECCAK256 SLOAD DUP4 SWAP1 PUSH2 0x2431 JUMP JUMPDEST SWAP2 POP DUP1 PUSH2 0x21BE DUP2 PUSH2 0x2E52 JUMP JUMPDEST SWAP2 POP POP PUSH2 0x2049 JUMP JUMPDEST POP PUSH1 0x8 SLOAD PUSH1 0xA SLOAD PUSH2 0x21D6 SWAP2 PUSH2 0x17DF JUMP JUMPDEST DUP3 LT ISZERO PUSH2 0x21ED JUMPI PUSH1 0xA SLOAD PUSH1 0x8 SLOAD SWAP4 POP SWAP4 POP POP POP SWAP1 SWAP2 JUMP JUMPDEST SWAP1 SWAP4 SWAP1 SWAP3 POP SWAP1 POP JUMP JUMPDEST PUSH1 0x0 DUP1 PUSH1 0x0 DUP1 PUSH1 0x0 DUP1 PUSH1 0x0 DUP1 PUSH2 0x220B DUP10 PUSH2 0x24F6 JUMP JUMPDEST SWAP3 POP SWAP3 POP SWAP3 POP PUSH1 0x0 PUSH2 0x221C DUP11 PUSH2 0x2569 JUMP JUMPDEST SWAP1 POP PUSH1 0x0 PUSH2 0x222D DUP12 DUP7 DUP7 DUP7 DUP7 PUSH2 0x258D JUMP JUMPDEST SWAP5 SWAP12 SWAP4 SWAP11 POP SWAP2 SWAP9 POP SWAP7 POP SWAP2 SWAP5 POP SWAP3 POP POP POP JUMP JUMPDEST DUP2 PUSH1 0x1 PUSH1 0x1 PUSH1 0xA0 SHL SUB AND DUP4 PUSH1 0x1 PUSH1 0x1 PUSH1 0xA0 SHL SUB AND EQ ISZERO DUP1 ISZERO PUSH2 0x2262 JUMPI POP PUSH1 0x0 DUP2 GT JUMPDEST ISZERO PUSH2 0x1B03 JUMPI PUSH1 0x1 PUSH1 0x1 PUSH1 0xA0 SHL SUB DUP4 AND ISZERO PUSH2 0x2305 JUMPI PUSH1 0x1 PUSH1 0x1 PUSH1 0xA0 SHL SUB DUP4 AND PUSH1 0x0 SWAP1 DUP2 MSTORE PUSH1 0x17 PUSH1 0x20 MSTORE PUSH1 0x40 DUP2 KECCAK256 SLOAD PUSH4 0xFFFFFFFF AND SWAP1 DUP2 PUSH2 0x22A2 JUMPI PUSH1 0x0 PUSH2 0x22E5 JUMP JUMPDEST PUSH1 0x1 PUSH1 0x1 PUSH1 0xA0 SHL SUB DUP6 AND PUSH1 0x0 SWAP1 DUP2 MSTORE PUSH1 0x16 PUSH1 0x20 MSTORE PUSH1 0x40 DUP2 KECCAK256 SWAP1 PUSH2 0x22C6 PUSH1 0x1 DUP6 PUSH2 0x2E2D JUMP JUMPDEST PUSH4 0xFFFFFFFF AND PUSH4 0xFFFFFFFF AND DUP2 MSTORE PUSH1 0x20 ADD SWAP1 DUP2 MSTORE PUSH1 0x20 ADD PUSH1 0x0 KECCAK256 PUSH1 0x1 ADD SLOAD JUMPDEST SWAP1 POP PUSH1 0x0 PUSH2 0x22F3 DUP3 DUP6 PUSH2 0x2431 JUMP JUMPDEST SWAP1 POP PUSH2 0x2301 DUP7 DUP5 DUP5 DUP5 PUSH2 0x25B3 JUMP JUMPDEST POP POP POP JUMPDEST PUSH1 0x1 PUSH1 0x1 PUSH1 0xA0 SHL SUB DUP3 AND ISZERO PUSH2 0x1B03 JUMPI PUSH1 0x1 PUSH1 0x1 PUSH1 0xA0 SHL SUB DUP3 AND PUSH1 0x0 SWAP1 DUP2 MSTORE PUSH1 0x17 PUSH1 0x20 MSTORE PUSH1 0x40 DUP2 KECCAK256 SLOAD PUSH4 0xFFFFFFFF AND SWAP1 DUP2 PUSH2 0x2340 JUMPI PUSH1 0x0 PUSH2 0x2383 JUMP JUMPDEST PUSH1 0x1 PUSH1 0x1 PUSH1 0xA0 SHL SUB DUP5 AND PUSH1 0x0 SWAP1 DUP2 MSTORE PUSH1 0x16 PUSH1 0x20 MSTORE PUSH1 0x40 DUP2 KECCAK256 SWAP1 PUSH2 0x2364 PUSH1 0x1 DUP6 PUSH2 0x2E2D JUMP JUMPDEST PUSH4 0xFFFFFFFF AND PUSH4 0xFFFFFFFF AND DUP2 MSTORE PUSH1 0x20 ADD SWAP1 DUP2 MSTORE PUSH1 0x20 ADD PUSH1 0x0 KECCAK256 PUSH1 0x1 ADD SLOAD JUMPDEST SWAP1 POP PUSH1 0x0 PUSH2 0x2391 DUP3 DUP6 PUSH2 0x1C55 JUMP JUMPDEST SWAP1 POP PUSH2 0x121F DUP6 DUP5 DUP5 DUP5 PUSH2 0x25B3 JUMP JUMPDEST PUSH1 0x0 PUSH2 0x831 DUP3 DUP5 PUSH2 0x2DF7 JUMP JUMPDEST PUSH1 0x0 DUP1 PUSH1 0x0 DUP1 PUSH1 0x0 DUP1 PUSH2 0x23BC PUSH2 0x1C32 JUMP JUMPDEST SWAP1 POP PUSH1 0x0 PUSH2 0x23CA DUP13 DUP4 PUSH2 0x278B JUMP JUMPDEST SWAP1 POP PUSH1 0x0 PUSH2 0x23D8 DUP13 DUP5 PUSH2 0x278B JUMP JUMPDEST SWAP1 POP PUSH1 0x0 PUSH2 0x23E6 DUP13 DUP6 PUSH2 0x278B JUMP JUMPDEST SWAP1 POP PUSH1 0x0 PUSH2 0x23F4 DUP13 DUP7 PUSH2 0x278B JUMP JUMPDEST SWAP1 POP PUSH1 0x0 PUSH2 0x2402 DUP13 DUP8 PUSH2 0x278B JUMP JUMPDEST SWAP1 POP PUSH1 0x0 PUSH2 0x2413 DUP7 DUP7 DUP7 DUP7 DUP7 PUSH2 0x258D JUMP JUMPDEST SWAP6 SWAP12 POP SWAP5 SWAP10 POP SWAP3 SWAP8 POP SWAP1 SWAP6 POP SWAP4 POP POP POP POP SWAP6 POP SWAP6 POP SWAP6 POP SWAP6 POP SWAP6 SWAP1 POP JUMP JUMPDEST PUSH1 0x0 PUSH2 0x831 DUP3 DUP5 PUSH2 0x2E16 JUMP JUMPDEST PUSH1 0x0 DUP1 PUSH1 0x0 DUP1 PUSH1 0x0 PUSH2 0x244E DUP7 PUSH2 0x1C61 JUMP JUMPDEST SWAP5 POP SWAP5 POP SWAP5 POP SWAP5 POP SWAP5 POP PUSH1 0x0 DUP1 PUSH1 0x0 PUSH2 0x246A DUP10 DUP9 DUP9 DUP9 DUP9 PUSH2 0x23AB JUMP JUMPDEST SWAP5 POP SWAP5 POP SWAP5 POP POP POP PUSH2 0x247C DUP4 DUP9 PUSH2 0x27A0 JUMP JUMPDEST PUSH2 0x2487 DUP12 DUP8 DUP5 PUSH2 0x27C4 JUMP JUMPDEST PUSH2 0x2492 DUP12 DUP7 DUP4 PUSH2 0x28F1 JUMP JUMPDEST PUSH2 0x249C DUP12 DUP6 PUSH2 0x2A1E JUMP JUMPDEST DUP10 PUSH1 0x1 PUSH1 0x1 PUSH1 0xA0 SHL SUB AND DUP12 PUSH1 0x1 PUSH1 0x1 PUSH1 0xA0 SHL SUB AND PUSH32 0xDDF252AD1BE2C89B69C2B068FC378DAA952BA7F163C4A11628F55A4DF523B3EF DUP11 PUSH1 0x40 MLOAD PUSH2 0x24E1 SWAP2 DUP2 MSTORE PUSH1 0x20 ADD SWAP1 JUMP JUMPDEST PUSH1 0x40 MLOAD DUP1 SWAP2 SUB SWAP1 LOG3 POP POP POP POP POP POP POP POP POP POP POP JUMP JUMPDEST PUSH1 0x0 DUP1 PUSH1 0x0 DUP1 PUSH2 0x251D PUSH2 0x3E8 PUSH2 0x2517 PUSH1 0x10 SLOAD DUP9 PUSH2 0x239F SWAP1 SWAP2 SWAP1 PUSH4 0xFFFFFFFF AND JUMP JUMPDEST SWAP1 PUSH2 0x17DF JUMP JUMPDEST SWAP1 POP PUSH1 0x0 PUSH2 0x253C PUSH2 0x3E8 PUSH2 0x2517 PUSH1 0xC SLOAD DUP10 PUSH2 0x239F SWAP1 SWAP2 SWAP1 PUSH4 0xFFFFFFFF AND JUMP JUMPDEST SWAP1 POP PUSH1 0x0 PUSH2 0x255B PUSH2 0x3E8 PUSH2 0x2517 PUSH1 0xE SLOAD DUP11 PUSH2 0x239F SWAP1 SWAP2 SWAP1 PUSH4 0xFFFFFFFF AND JUMP JUMPDEST SWAP3 SWAP8 SWAP2 SWAP7 POP SWAP2 SWAP5 POP SWAP3 POP POP POP JUMP JUMPDEST PUSH1 0x0 DUP1 PUSH2 0x831 PUSH1 0x12 SLOAD PUSH2 0x2587 PUSH2 0x2710 DUP7 PUSH2 0x17DF SWAP1 SWAP2 SWAP1 PUSH4 0xFFFFFFFF AND JUMP JUMPDEST SWAP1 PUSH2 0x239F JUMP JUMPDEST PUSH1 0x0 DUP1 PUSH2 0x25A8 DUP4 PUSH2 0x25A2 DUP7 DUP2 DUP10 DUP2 DUP14 DUP14 PUSH2 0x2431 JUMP JUMPDEST SWAP1 PUSH2 0x2431 JUMP JUMPDEST SWAP8 SWAP7 POP POP POP POP POP POP POP JUMP JUMPDEST PUSH1 0x0 PUSH2 0x25D7 NUMBER PUSH1 0x40 MLOAD DUP1 PUSH1 0x60 ADD PUSH1 0x40 MSTORE DUP1 PUSH1 0x34 DUP2 MSTORE PUSH1 0x20 ADD PUSH2 0x2EC2 PUSH1 0x34 SWAP2 CODECOPY PUSH2 0x2B22 JUMP JUMPDEST SWAP1 POP PUSH1 0x0 DUP5 PUSH4 0xFFFFFFFF AND GT DUP1 ISZERO PUSH2 0x2631 JUMPI POP PUSH1 0x1 PUSH1 0x1 PUSH1 0xA0 SHL SUB DUP6 AND PUSH1 0x0 SWAP1 DUP2 MSTORE PUSH1 0x16 PUSH1 0x20 MSTORE PUSH1 0x40 DUP2 KECCAK256 PUSH4 0xFFFFFFFF DUP4 AND SWAP2 PUSH2 0x2615 PUSH1 0x1 DUP9 PUSH2 0x2E2D JUMP JUMPDEST PUSH4 0xFFFFFFFF SWAP1 DUP2 AND DUP3 MSTORE PUSH1 0x20 DUP3 ADD SWAP3 SWAP1 SWAP3 MSTORE PUSH1 0x40 ADD PUSH1 0x0 KECCAK256 SLOAD AND EQ JUMPDEST ISZERO PUSH2 0x267A JUMPI PUSH1 0x1 PUSH1 0x1 PUSH1 0xA0 SHL SUB DUP6 AND PUSH1 0x0 SWAP1 DUP2 MSTORE PUSH1 0x16 PUSH1 0x20 MSTORE PUSH1 0x40 DUP2 KECCAK256 DUP4 SWAP2 PUSH2 0x265B PUSH1 0x1 DUP9 PUSH2 0x2E2D JUMP JUMPDEST PUSH4 0xFFFFFFFF AND DUP2 MSTORE PUSH1 0x20 DUP2 ADD SWAP2 SWAP1 SWAP2 MSTORE PUSH1 0x40 ADD PUSH1 0x0 KECCAK256 PUSH1 0x1 ADD SSTORE PUSH2 0x2740 JUMP JUMPDEST PUSH1 0x40 DUP1 MLOAD DUP1 DUP3 ADD DUP3 MSTORE PUSH4 0xFFFFFFFF DUP4 DUP2 AND DUP3 MSTORE PUSH1 0x20 DUP1 DUP4 ADD DUP7 DUP2 MSTORE PUSH1 0x1 PUSH1 0x1 PUSH1 0xA0 SHL SUB DUP11 AND PUSH1 0x0 SWAP1 DUP2 MSTORE PUSH1 0x16 DUP4 MSTORE DUP6 DUP2 KECCAK256 DUP11 DUP6 AND DUP3 MSTORE SWAP1 SWAP3 MSTORE SWAP4 SWAP1 KECCAK256 SWAP2 MLOAD DUP3 SLOAD PUSH32 0xFFFFFFFFFFFFFFFFFFFFFFFFFFFFFFFFFFFFFFFFFFFFFFFFFFFFFFFF00000000 AND SWAP2 AND OR DUP2 SSTORE SWAP1 MLOAD PUSH1 0x1 SWAP2 DUP3 ADD SSTORE PUSH2 0x26F4 SWAP1 DUP6 SWAP1 PUSH2 0x2D98 JUMP JUMPDEST PUSH1 0x1 PUSH1 0x1 PUSH1 0xA0 SHL SUB DUP7 AND PUSH1 0x0 SWAP1 DUP2 MSTORE PUSH1 0x17 PUSH1 0x20 MSTORE PUSH1 0x40 SWAP1 KECCAK256 DUP1 SLOAD PUSH32 0xFFFFFFFFFFFFFFFFFFFFFFFFFFFFFFFFFFFFFFFFFFFFFFFFFFFFFFFF00000000 AND PUSH4 0xFFFFFFFF SWAP3 SWAP1 SWAP3 AND SWAP2 SWAP1 SWAP2 OR SWAP1 SSTORE JUMPDEST PUSH1 0x40 DUP1 MLOAD DUP5 DUP2 MSTORE PUSH1 0x20 DUP2 ADD DUP5 SWAP1 MSTORE PUSH1 0x1 PUSH1 0x1 PUSH1 0xA0 SHL SUB DUP8 AND SWAP2 PUSH32 0xDEC2BACDD2F05B59DE34DA9B523DFF8BE42E5E38E818C82FDB0BAE774387A724 SWAP2 ADD PUSH1 0x40 MLOAD DUP1 SWAP2 SUB SWAP1 LOG2 POP POP POP POP POP JUMP JUMPDEST PUSH1 0x0 DUP1 PUSH2 0x2798 DUP5 DUP5 PUSH2 0x239F JUMP JUMPDEST SWAP5 SWAP4 POP POP POP POP JUMP JUMPDEST PUSH1 0xA SLOAD PUSH2 0x27AD SWAP1 DUP4 PUSH2 0x2431 JUMP JUMPDEST PUSH1 0xA SSTORE PUSH1 0xB SLOAD PUSH2 0x27BD SWAP1 DUP3 PUSH2 0x1C55 JUMP JUMPDEST PUSH1 0xB SSTORE POP POP JUMP JUMPDEST DUP2 ISZERO PUSH2 0x1B03 JUMPI PUSH1 0x7 SLOAD PUSH1 0x1 PUSH1 0x1 PUSH1 0xA0 SHL SUB AND PUSH1 0x0 SWAP1 DUP2 MSTORE PUSH1 0x4 PUSH1 0x20 MSTORE PUSH1 0x40 SWAP1 KECCAK256 SLOAD PUSH1 0xFF AND ISZERO PUSH2 0x286E JUMPI PUSH1 0x7 SLOAD PUSH1 0x1 PUSH1 0x1 PUSH1 0xA0 SHL SUB AND PUSH1 0x0 SWAP1 DUP2 MSTORE PUSH1 0x2 PUSH1 0x20 MSTORE PUSH1 0x40 SWAP1 KECCAK256 SLOAD PUSH2 0x2812 SWAP1 DUP4 PUSH2 0x1C55 JUMP JUMPDEST PUSH1 0x7 DUP1 SLOAD PUSH1 0x1 PUSH1 0x1 PUSH1 0xA0 SHL SUB SWAP1 DUP2 AND PUSH1 0x0 SWAP1 DUP2 MSTORE PUSH1 0x2 PUSH1 0x20 SWAP1 DUP2 MSTORE PUSH1 0x40 DUP1 DUP4 KECCAK256 SWAP6 SWAP1 SWAP6 SSTORE SWAP3 SLOAD SWAP1 SWAP2 AND DUP2 MSTORE PUSH1 0x1 SWAP1 SWAP2 MSTORE KECCAK256 SLOAD PUSH2 0x284E SWAP1 DUP3 PUSH2 0x1C55 JUMP JUMPDEST PUSH1 0x7 SLOAD PUSH1 0x1 PUSH1 0x1 PUSH1 0xA0 SHL SUB AND PUSH1 0x0 SWAP1 DUP2 MSTORE PUSH1 0x1 PUSH1 0x20 MSTORE PUSH1 0x40 SWAP1 KECCAK256 SSTORE PUSH2 0x28AF JUMP JUMPDEST PUSH1 0x7 SLOAD PUSH1 0x1 PUSH1 0x1 PUSH1 0xA0 SHL SUB AND PUSH1 0x0 SWAP1 DUP2 MSTORE PUSH1 0x1 PUSH1 0x20 MSTORE PUSH1 0x40 SWAP1 KECCAK256 SLOAD PUSH2 0x2893 SWAP1 DUP3 PUSH2 0x1C55 JUMP JUMPDEST PUSH1 0x7 SLOAD PUSH1 0x1 PUSH1 0x1 PUSH1 0xA0 SHL SUB AND PUSH1 0x0 SWAP1 DUP2 MSTORE PUSH1 0x1 PUSH1 0x20 MSTORE PUSH1 0x40 SWAP1 KECCAK256 SSTORE JUMPDEST PUSH1 0x7 SLOAD PUSH1 0x40 MLOAD DUP4 DUP2 MSTORE PUSH1 0x1 PUSH1 0x1 PUSH1 0xA0 SHL SUB SWAP2 DUP3 AND SWAP2 DUP6 AND SWAP1 PUSH32 0xDDF252AD1BE2C89B69C2B068FC378DAA952BA7F163C4A11628F55A4DF523B3EF SWAP1 PUSH1 0x20 ADD PUSH2 0x1937 JUMP JUMPDEST DUP2 ISZERO PUSH2 0x1B03 JUMPI PUSH1 0x6 SLOAD PUSH1 0x1 PUSH1 0x1 PUSH1 0xA0 SHL SUB AND PUSH1 0x0 SWAP1 DUP2 MSTORE PUSH1 0x4 PUSH1 0x20 MSTORE PUSH1 0x40 SWAP1 KECCAK256 SLOAD PUSH1 0xFF AND ISZERO PUSH2 0x299B JUMPI PUSH1 0x6 SLOAD PUSH1 0x1 PUSH1 0x1 PUSH1 0xA0 SHL SUB AND PUSH1 0x0 SWAP1 DUP2 MSTORE PUSH1 0x2 PUSH1 0x20 MSTORE PUSH1 0x40 SWAP1 KECCAK256 SLOAD PUSH2 0x293F SWAP1 DUP4 PUSH2 0x1C55 JUMP JUMPDEST PUSH1 0x6 DUP1 SLOAD PUSH1 0x1 PUSH1 0x1 PUSH1 0xA0 SHL SUB SWAP1 DUP2 AND PUSH1 0x0 SWAP1 DUP2 MSTORE PUSH1 0x2 PUSH1 0x20 SWAP1 DUP2 MSTORE PUSH1 0x40 DUP1 DUP4 KECCAK256 SWAP6 SWAP1 SWAP6 SSTORE SWAP3 SLOAD SWAP1 SWAP2 AND DUP2 MSTORE PUSH1 0x1 SWAP1 SWAP2 MSTORE KECCAK256 SLOAD PUSH2 0x297B SWAP1 DUP3 PUSH2 0x1C55 JUMP JUMPDEST PUSH1 0x6 SLOAD PUSH1 0x1 PUSH1 0x1 PUSH1 0xA0 SHL SUB AND PUSH1 0x0 SWAP1 DUP2 MSTORE PUSH1 0x1 PUSH1 0x20 MSTORE PUSH1 0x40 SWAP1 KECCAK256 SSTORE PUSH2 0x29DC JUMP JUMPDEST PUSH1 0x6 SLOAD PUSH1 0x1 PUSH1 0x1 PUSH1 0xA0 SHL SUB AND PUSH1 0x0 SWAP1 DUP2 MSTORE PUSH1 0x1 PUSH1 0x20 MSTORE PUSH1 0x40 SWAP1 KECCAK256 SLOAD PUSH2 0x29C0 SWAP1 DUP3 PUSH2 0x1C55 JUMP JUMPDEST PUSH1 0x6 SLOAD PUSH1 0x1 PUSH1 0x1 PUSH1 0xA0 SHL SUB AND PUSH1 0x0 SWAP1 DUP2 MSTORE PUSH1 0x1 PUSH1 0x20 MSTORE PUSH1 0x40 SWAP1 KECCAK256 SSTORE JUMPDEST PUSH1 0x6 SLOAD PUSH1 0x40 MLOAD DUP4 DUP2 MSTORE PUSH1 0x1 PUSH1 0x1 PUSH1 0xA0 SHL SUB SWAP2 DUP3 AND SWAP2 DUP6 AND SWAP1 PUSH32 0xDDF252AD1BE2C89B69C2B068FC378DAA952BA7F163C4A11628F55A4DF523B3EF SWAP1 PUSH1 0x20 ADD PUSH2 0x1937 JUMP JUMPDEST PUSH1 0x1 PUSH1 0x1 PUSH1 0xA0 SHL SUB DUP3 AND PUSH2 0x2A9A JUMPI PUSH1 0x40 MLOAD PUSH3 0x461BCD PUSH1 0xE5 SHL DUP2 MSTORE PUSH1 0x20 PUSH1 0x4 DUP3 ADD MSTORE PUSH1 0x21 PUSH1 0x24 DUP3 ADD MSTORE PUSH32 0x45524332303A206275726E2066726F6D20746865207A65726F20616464726573 PUSH1 0x44 DUP3 ADD MSTORE PUSH32 0x7300000000000000000000000000000000000000000000000000000000000000 PUSH1 0x64 DUP3 ADD MSTORE PUSH1 0x84 ADD PUSH2 0x812 JUMP JUMPDEST PUSH1 0x0 PUSH2 0x2AA4 PUSH2 0x1C32 JUMP JUMPDEST SWAP1 POP PUSH1 0x0 PUSH2 0x2AB2 DUP4 DUP4 PUSH2 0x239F JUMP JUMPDEST PUSH1 0x8 SLOAD SWAP1 SWAP2 POP PUSH2 0x2AC2 SWAP1 DUP5 PUSH2 0x2431 JUMP JUMPDEST PUSH1 0x8 SSTORE PUSH1 0xA SLOAD PUSH2 0x2AD2 SWAP1 DUP3 PUSH2 0x2431 JUMP JUMPDEST PUSH1 0xA SSTORE DUP3 ISZERO PUSH2 0x1D35 JUMPI PUSH1 0x40 MLOAD DUP4 DUP2 MSTORE PUSH1 0x0 SWAP1 PUSH1 0x1 PUSH1 0x1 PUSH1 0xA0 SHL SUB DUP7 AND SWAP1 PUSH32 0xDDF252AD1BE2C89B69C2B068FC378DAA952BA7F163C4A11628F55A4DF523B3EF SWAP1 PUSH1 0x20 ADD PUSH1 0x40 MLOAD DUP1 SWAP2 SUB SWAP1 LOG3 POP POP POP POP JUMP JUMPDEST PUSH1 0x0 DUP2 PUSH5 0x100000000 DUP5 LT PUSH2 0x2B4A JUMPI PUSH1 0x40 MLOAD PUSH3 0x461BCD PUSH1 0xE5 SHL DUP2 MSTORE PUSH1 0x4 ADD PUSH2 0x812 SWAP2 SWAP1 PUSH2 0x2D2D JUMP JUMPDEST POP SWAP2 SWAP3 SWAP2 POP POP JUMP JUMPDEST DUP1 CALLDATALOAD PUSH1 0x1 PUSH1 0x1 PUSH1 0xA0 SHL SUB DUP2 AND DUP2 EQ PUSH2 0x2B69 JUMPI PUSH1 0x0 DUP1 REVERT JUMPDEST SWAP2 SWAP1 POP JUMP JUMPDEST DUP1 CALLDATALOAD DUP1 ISZERO ISZERO DUP2 EQ PUSH2 0x2B69 JUMPI PUSH1 0x0 DUP1 REVERT JUMPDEST PUSH1 0x0 PUSH1 0x20 DUP3 DUP5 SUB SLT ISZERO PUSH2 0x2B8F JUMPI DUP1 DUP2 REVERT JUMPDEST PUSH2 0x831 DUP3 PUSH2 0x2B52 JUMP JUMPDEST PUSH1 0x0 DUP1 PUSH1 0x40 DUP4 DUP6 SUB SLT ISZERO PUSH2 0x2BAA JUMPI DUP1 DUP2 REVERT JUMPDEST PUSH2 0x2BB3 DUP4 PUSH2 0x2B52 JUMP JUMPDEST SWAP2 POP PUSH2 0x2BC1 PUSH1 0x20 DUP5 ADD PUSH2 0x2B52 JUMP JUMPDEST SWAP1 POP SWAP3 POP SWAP3 SWAP1 POP JUMP JUMPDEST PUSH1 0x0 DUP1 PUSH1 0x0 PUSH1 0x60 DUP5 DUP7 SUB SLT ISZERO PUSH2 0x2BDE JUMPI DUP1 DUP2 REVERT JUMPDEST PUSH2 0x2BE7 DUP5 PUSH2 0x2B52 JUMP JUMPDEST SWAP3 POP PUSH2 0x2BF5 PUSH1 0x20 DUP6 ADD PUSH2 0x2B52 JUMP JUMPDEST SWAP2 POP PUSH1 0x40 DUP5 ADD CALLDATALOAD SWAP1 POP SWAP3 POP SWAP3 POP SWAP3 JUMP JUMPDEST PUSH1 0x0 DUP1 PUSH1 0x40 DUP4 DUP6 SUB SLT ISZERO PUSH2 0x2C17 JUMPI DUP2 DUP3 REVERT JUMPDEST PUSH2 0x2C20 DUP4 PUSH2 0x2B52 JUMP JUMPDEST SWAP2 POP PUSH2 0x2BC1 PUSH1 0x20 DUP5 ADD PUSH2 0x2B6E JUMP JUMPDEST PUSH1 0x0 DUP1 PUSH1 0x40 DUP4 DUP6 SUB SLT ISZERO PUSH2 0x2C40 JUMPI DUP2 DUP3 REVERT JUMPDEST PUSH2 0x2C49 DUP4 PUSH2 0x2B52 JUMP JUMPDEST SWAP5 PUSH1 0x20 SWAP4 SWAP1 SWAP4 ADD CALLDATALOAD SWAP4 POP POP POP JUMP JUMPDEST PUSH1 0x0 DUP1 PUSH1 0x0 DUP1 PUSH1 0x0 DUP1 PUSH1 0xC0 DUP8 DUP10 SUB SLT ISZERO PUSH2 0x2C6F JUMPI DUP2 DUP3 REVERT JUMPDEST PUSH2 0x2C78 DUP8 PUSH2 0x2B52 JUMP JUMPDEST SWAP6 POP PUSH1 0x20 DUP8 ADD CALLDATALOAD SWAP5 POP PUSH1 0x40 DUP8 ADD CALLDATALOAD SWAP4 POP PUSH1 0x60 DUP8 ADD CALLDATALOAD PUSH1 0xFF DUP2 AND DUP2 EQ PUSH2 0x2C9B JUMPI DUP3 DUP4 REVERT JUMPDEST SWAP6 SWAP9 SWAP5 SWAP8 POP SWAP3 SWAP6 PUSH1 0x80 DUP2 ADD CALLDATALOAD SWAP5 PUSH1 0xA0 SWAP1 SWAP2 ADD CALLDATALOAD SWAP4 POP SWAP2 POP POP JUMP JUMPDEST PUSH1 0x0 DUP1 PUSH1 0x40 DUP4 DUP6 SUB SLT ISZERO PUSH2 0x2CC7 JUMPI DUP2 DUP3 REVERT JUMPDEST PUSH2 0x2CD0 DUP4 PUSH2 0x2B52 JUMP JUMPDEST SWAP2 POP PUSH1 0x20 DUP4 ADD CALLDATALOAD PUSH4 0xFFFFFFFF DUP2 AND DUP2 EQ PUSH2 0x2CE8 JUMPI DUP2 DUP3 REVERT JUMPDEST DUP1 SWAP2 POP POP SWAP3 POP SWAP3 SWAP1 POP JUMP JUMPDEST PUSH1 0x0 PUSH1 0x20 DUP3 DUP5 SUB SLT ISZERO PUSH2 0x2D04 JUMPI DUP1 DUP2 REVERT JUMPDEST POP CALLDATALOAD SWAP2 SWAP1 POP JUMP JUMPDEST PUSH1 0x0 DUP1 PUSH1 0x40 DUP4 DUP6 SUB SLT ISZERO PUSH2 0x2D1D JUMPI DUP2 DUP3 REVERT JUMPDEST DUP3 CALLDATALOAD SWAP2 POP PUSH2 0x2BC1 PUSH1 0x20 DUP5 ADD PUSH2 0x2B6E JUMP JUMPDEST PUSH1 0x0 PUSH1 0x20 DUP1 DUP4 MSTORE DUP4 MLOAD DUP1 DUP3 DUP6 ADD MSTORE DUP3 JUMPDEST DUP2 DUP2 LT ISZERO PUSH2 0x2D59 JUMPI DUP6 DUP2 ADD DUP4 ADD MLOAD DUP6 DUP3 ADD PUSH1 0x40 ADD MSTORE DUP3 ADD PUSH2 0x2D3D JUMP JUMPDEST DUP2 DUP2 GT ISZERO PUSH2 0x2D6A JUMPI DUP4 PUSH1 0x40 DUP4 DUP8 ADD ADD MSTORE JUMPDEST POP PUSH1 0x1F ADD PUSH1 0x1F NOT AND SWAP3 SWAP1 SWAP3 ADD PUSH1 0x40 ADD SWAP4 SWAP3 POP POP POP JUMP JUMPDEST PUSH1 0x0 DUP3 NOT DUP3 GT ISZERO PUSH2 0x2D93 JUMPI PUSH2 0x2D93 PUSH2 0x2E6D JUMP JUMPDEST POP ADD SWAP1 JUMP JUMPDEST PUSH1 0x0 PUSH4 0xFFFFFFFF DUP1 DUP4 AND DUP2 DUP6 AND DUP1 DUP4 SUB DUP3 GT ISZERO PUSH2 0x2DB7 JUMPI PUSH2 0x2DB7 PUSH2 0x2E6D JUMP JUMPDEST ADD SWAP5 SWAP4 POP POP POP POP JUMP JUMPDEST PUSH1 0x0 DUP3 PUSH2 0x2DCF JUMPI PUSH2 0x2DCF PUSH2 0x2E83 JUMP JUMPDEST POP DIV SWAP1 JUMP JUMPDEST PUSH1 0x0 PUSH4 0xFFFFFFFF DUP1 DUP5 AND DUP1 PUSH2 0x2DEB JUMPI PUSH2 0x2DEB PUSH2 0x2E83 JUMP JUMPDEST SWAP3 AND SWAP2 SWAP1 SWAP2 DIV SWAP3 SWAP2 POP POP JUMP JUMPDEST PUSH1 0x0 DUP2 PUSH1 0x0 NOT DIV DUP4 GT DUP3 ISZERO ISZERO AND ISZERO PUSH2 0x2E11 JUMPI PUSH2 0x2E11 PUSH2 0x2E6D JUMP JUMPDEST POP MUL SWAP1 JUMP JUMPDEST PUSH1 0x0 DUP3 DUP3 LT ISZERO PUSH2 0x2E28 JUMPI PUSH2 0x2E28 PUSH2 0x2E6D JUMP JUMPDEST POP SUB SWAP1 JUMP JUMPDEST PUSH1 0x0 PUSH4 0xFFFFFFFF DUP4 DUP2 AND SWAP1 DUP4 AND DUP2 DUP2 LT ISZERO PUSH2 0x2E4A JUMPI PUSH2 0x2E4A PUSH2 0x2E6D JUMP JUMPDEST SUB SWAP4 SWAP3 POP POP POP JUMP JUMPDEST PUSH1 0x0 PUSH1 0x0 NOT DUP3 EQ ISZERO PUSH2 0x2E66 JUMPI PUSH2 0x2E66 PUSH2 0x2E6D JUMP JUMPDEST POP PUSH1 0x1 ADD SWAP1 JUMP JUMPDEST PUSH4 0x4E487B71 PUSH1 0xE0 SHL PUSH1 0x0 MSTORE PUSH1 0x11 PUSH1 0x4 MSTORE PUSH1 0x24 PUSH1 0x0 REVERT JUMPDEST PUSH4 0x4E487B71 PUSH1 0xE0 SHL PUSH1 0x0 MSTORE PUSH1 0x12 PUSH1 0x4 MSTORE PUSH1 0x24 PUSH1 0x0 REVERT INVALID GASLIMIT MSTORE NUMBER ORIGIN ADDRESS GASPRICE KECCAK256 PUSH21 0x72616E7366657220616D6F756E7420657863656564 PUSH20 0x20616C6C6F77616E636543414B453A3A5F777269 PUSH21 0x65436865636B706F696E743A20626C6F636B206E75 PUSH14 0x6265722065786365656473203332 KECCAK256 PUSH3 0x697473 GASLIMIT MSTORE NUMBER ORIGIN ADDRESS GASPRICE KECCAK256 PUSH5 0x6563726561 PUSH20 0x656420616C6C6F77616E63652062656C6F77207A PUSH6 0x726FA2646970 PUSH7 0x7358221220659D CALLVALUE 0xF6 0x5C 0xBB 0x25 LOG3 0xE5 EXP LOG2 0xBE KECCAK256 INVALID 0x2C 0xCF MSTORE8 LOG1 CHAINID PUSH14 0x7ED6DE7ECF8935A90606CFB06473 PUSH16 0x6C634300080400330000000000000000 "
		},
		"gasEstimates": {
			"creation": {
				"codeDepositCost": "2422400",
				"executionCost": "infinite",
				"totalCost": "infinite"
			},
			"external": {
				"DELEGATION_TYPEHASH()": "262",
				"DOMAIN_TYPEHASH()": "264",
				"_bFee()": "1108",
				"_cFee()": "1085",
				"_dFee()": "1063",
				"_previousBFee()": "1084",
				"_previousCFee()": "1063",
				"_previousDFee()": "1063",
				"_previousTFee()": "1086",
				"_tFee()": "1064",
				"allowance(address,address)": "infinite",
				"approve(address,uint256)": "22590",
				"balanceOf(address)": "infinite",
				"checkpoints(address,uint32)": "2325",
				"decimals()": "316",
				"decreaseAllowance(address,uint256)": "infinite",
				"delegate(address)": "infinite",
				"delegateBySig(address,uint256,uint256,uint8,bytes32,bytes32)": "infinite",
				"delegates(address)": "1357",
				"excludeAccount(address)": "infinite",
				"excludeFromFee(address,bool)": "infinite",
				"excludedFeeAccounts(address)": "1299",
				"getCurrentVotes(address)": "infinite",
				"getPriorVotes(address,uint256)": "infinite",
				"includeAccount(address)": "infinite",
				"increaseAllowance(address,uint256)": "23647",
				"isExcluded(address)": "1316",
				"mint(uint256)": "infinite",
				"name()": "infinite",
				"nonces(address)": "1330",
				"numCheckpoints(address)": "1302",
				"owner()": "1122",
				"reflectionFromToken(uint256,bool)": "infinite",
				"renounceOwnership()": "24217",
				"symbol()": "infinite",
				"tokenFromReflection(uint256)": "infinite",
				"totalFees()": "1050",
				"totalSupply()": "1083",
				"transfer(address,uint256)": "infinite",
				"transferFrom(address,address,uint256)": "infinite",
				"transferOwnership(address)": "24473"
			},
			"internal": {
				"_delegate(address,address)": "infinite",
				"_moveDelegates(address,address,uint256)": "infinite",
				"_writeCheckpoint(address,uint32,uint256,uint256)": "infinite",
				"getChainId()": "infinite",
				"safe32(uint256,string memory)": "infinite"
			}
		},
		"methodIdentifiers": {
			"DELEGATION_TYPEHASH()": "e7a324dc",
			"DOMAIN_TYPEHASH()": "20606b70",
			"_bFee()": "1fe0371e",
			"_cFee()": "c94656f6",
			"_dFee()": "5345ef04",
			"_previousBFee()": "eca1442d",
			"_previousCFee()": "a0aaee9d",
			"_previousDFee()": "c6312d9f",
			"_previousTFee()": "23636720",
			"_tFee()": "8bf2f981",
			"allowance(address,address)": "dd62ed3e",
			"approve(address,uint256)": "095ea7b3",
			"balanceOf(address)": "70a08231",
			"checkpoints(address,uint32)": "f1127ed8",
			"decimals()": "313ce567",
			"decreaseAllowance(address,uint256)": "a457c2d7",
			"delegate(address)": "5c19a95c",
			"delegateBySig(address,uint256,uint256,uint8,bytes32,bytes32)": "c3cda520",
			"delegates(address)": "587cde1e",
			"excludeAccount(address)": "f2cc0c18",
			"excludeFromFee(address,bool)": "df8408fe",
			"excludedFeeAccounts(address)": "91b04b2a",
			"getCurrentVotes(address)": "b4b5ea57",
			"getPriorVotes(address,uint256)": "782d6fe1",
			"includeAccount(address)": "f84354f1",
			"increaseAllowance(address,uint256)": "39509351",
			"isExcluded(address)": "cba0e996",
			"mint(uint256)": "a0712d68",
			"name()": "06fdde03",
			"nonces(address)": "7ecebe00",
			"numCheckpoints(address)": "6fcfff45",
			"owner()": "8da5cb5b",
			"reflectionFromToken(uint256,bool)": "4549b039",
			"renounceOwnership()": "715018a6",
			"symbol()": "95d89b41",
			"tokenFromReflection(uint256)": "2d838119",
			"totalFees()": "13114a9d",
			"totalSupply()": "18160ddd",
			"transfer(address,uint256)": "a9059cbb",
			"transferFrom(address,address,uint256)": "23b872dd",
			"transferOwnership(address)": "f2fde38b"
		}
	},
	"abi": [
		{
			"anonymous": false,
			"inputs": [
				{
					"indexed": true,
					"internalType": "address",
					"name": "owner",
					"type": "address"
				},
				{
					"indexed": true,
					"internalType": "address",
					"name": "spender",
					"type": "address"
				},
				{
					"indexed": false,
					"internalType": "uint256",
					"name": "value",
					"type": "uint256"
				}
			],
			"name": "Approval",
			"type": "event"
		},
		{
			"anonymous": false,
			"inputs": [
				{
					"indexed": true,
					"internalType": "address",
					"name": "delegator",
					"type": "address"
				},
				{
					"indexed": true,
					"internalType": "address",
					"name": "fromDelegate",
					"type": "address"
				},
				{
					"indexed": true,
					"internalType": "address",
					"name": "toDelegate",
					"type": "address"
				}
			],
			"name": "DelegateChanged",
			"type": "event"
		},
		{
			"anonymous": false,
			"inputs": [
				{
					"indexed": true,
					"internalType": "address",
					"name": "delegate",
					"type": "address"
				},
				{
					"indexed": false,
					"internalType": "uint256",
					"name": "previousBalance",
					"type": "uint256"
				},
				{
					"indexed": false,
					"internalType": "uint256",
					"name": "newBalance",
					"type": "uint256"
				}
			],
			"name": "DelegateVotesChanged",
			"type": "event"
		},
		{
			"anonymous": false,
			"inputs": [
				{
					"indexed": true,
					"internalType": "address",
					"name": "previousOwner",
					"type": "address"
				},
				{
					"indexed": true,
					"internalType": "address",
					"name": "newOwner",
					"type": "address"
				}
			],
			"name": "OwnershipTransferred",
			"type": "event"
		},
		{
			"anonymous": false,
			"inputs": [
				{
					"indexed": true,
					"internalType": "address",
					"name": "from",
					"type": "address"
				},
				{
					"indexed": true,
					"internalType": "address",
					"name": "to",
					"type": "address"
				},
				{
					"indexed": false,
					"internalType": "uint256",
					"name": "value",
					"type": "uint256"
				}
			],
			"name": "Transfer",
			"type": "event"
		},
		{
			"inputs": [],
			"name": "DELEGATION_TYPEHASH",
			"outputs": [
				{
					"internalType": "bytes32",
					"name": "",
					"type": "bytes32"
				}
			],
			"stateMutability": "view",
			"type": "function"
		},
		{
			"inputs": [],
			"name": "DOMAIN_TYPEHASH",
			"outputs": [
				{
					"internalType": "bytes32",
					"name": "",
					"type": "bytes32"
				}
			],
			"stateMutability": "view",
			"type": "function"
		},
		{
			"inputs": [],
			"name": "_bFee",
			"outputs": [
				{
					"internalType": "uint256",
					"name": "",
					"type": "uint256"
				}
			],
			"stateMutability": "view",
			"type": "function"
		},
		{
			"inputs": [],
			"name": "_cFee",
			"outputs": [
				{
					"internalType": "uint256",
					"name": "",
					"type": "uint256"
				}
			],
			"stateMutability": "view",
			"type": "function"
		},
		{
			"inputs": [],
			"name": "_dFee",
			"outputs": [
				{
					"internalType": "uint256",
					"name": "",
					"type": "uint256"
				}
			],
			"stateMutability": "view",
			"type": "function"
		},
		{
			"inputs": [],
			"name": "_previousBFee",
			"outputs": [
				{
					"internalType": "uint256",
					"name": "",
					"type": "uint256"
				}
			],
			"stateMutability": "view",
			"type": "function"
		},
		{
			"inputs": [],
			"name": "_previousCFee",
			"outputs": [
				{
					"internalType": "uint256",
					"name": "",
					"type": "uint256"
				}
			],
			"stateMutability": "view",
			"type": "function"
		},
		{
			"inputs": [],
			"name": "_previousDFee",
			"outputs": [
				{
					"internalType": "uint256",
					"name": "",
					"type": "uint256"
				}
			],
			"stateMutability": "view",
			"type": "function"
		},
		{
			"inputs": [],
			"name": "_previousTFee",
			"outputs": [
				{
					"internalType": "uint256",
					"name": "",
					"type": "uint256"
				}
			],
			"stateMutability": "view",
			"type": "function"
		},
		{
			"inputs": [],
			"name": "_tFee",
			"outputs": [
				{
					"internalType": "uint256",
					"name": "",
					"type": "uint256"
				}
			],
			"stateMutability": "view",
			"type": "function"
		},
		{
			"inputs": [
				{
					"internalType": "address",
					"name": "owner",
					"type": "address"
				},
				{
					"internalType": "address",
					"name": "spender",
					"type": "address"
				}
			],
			"name": "allowance",
			"outputs": [
				{
					"internalType": "uint256",
					"name": "",
					"type": "uint256"
				}
			],
			"stateMutability": "view",
			"type": "function"
		},
		{
			"inputs": [
				{
					"internalType": "address",
					"name": "spender",
					"type": "address"
				},
				{
					"internalType": "uint256",
					"name": "amount",
					"type": "uint256"
				}
			],
			"name": "approve",
			"outputs": [
				{
					"internalType": "bool",
					"name": "",
					"type": "bool"
				}
			],
			"stateMutability": "nonpayable",
			"type": "function"
		},
		{
			"inputs": [
				{
					"internalType": "address",
					"name": "account",
					"type": "address"
				}
			],
			"name": "balanceOf",
			"outputs": [
				{
					"internalType": "uint256",
					"name": "",
					"type": "uint256"
				}
			],
			"stateMutability": "view",
			"type": "function"
		},
		{
			"inputs": [
				{
					"internalType": "address",
					"name": "",
					"type": "address"
				},
				{
					"internalType": "uint32",
					"name": "",
					"type": "uint32"
				}
			],
			"name": "checkpoints",
			"outputs": [
				{
					"internalType": "uint32",
					"name": "fromBlock",
					"type": "uint32"
				},
				{
					"internalType": "uint256",
					"name": "votes",
					"type": "uint256"
				}
			],
			"stateMutability": "view",
			"type": "function"
		},
		{
			"inputs": [],
			"name": "decimals",
			"outputs": [
				{
					"internalType": "uint8",
					"name": "",
					"type": "uint8"
				}
			],
			"stateMutability": "view",
			"type": "function"
		},
		{
			"inputs": [
				{
					"internalType": "address",
					"name": "spender",
					"type": "address"
				},
				{
					"internalType": "uint256",
					"name": "subtractedValue",
					"type": "uint256"
				}
			],
			"name": "decreaseAllowance",
			"outputs": [
				{
					"internalType": "bool",
					"name": "",
					"type": "bool"
				}
			],
			"stateMutability": "nonpayable",
			"type": "function"
		},
		{
			"inputs": [
				{
					"internalType": "address",
					"name": "delegatee",
					"type": "address"
				}
			],
			"name": "delegate",
			"outputs": [],
			"stateMutability": "nonpayable",
			"type": "function"
		},
		{
			"inputs": [
				{
					"internalType": "address",
					"name": "delegatee",
					"type": "address"
				},
				{
					"internalType": "uint256",
					"name": "nonce",
					"type": "uint256"
				},
				{
					"internalType": "uint256",
					"name": "expiry",
					"type": "uint256"
				},
				{
					"internalType": "uint8",
					"name": "v",
					"type": "uint8"
				},
				{
					"internalType": "bytes32",
					"name": "r",
					"type": "bytes32"
				},
				{
					"internalType": "bytes32",
					"name": "s",
					"type": "bytes32"
				}
			],
			"name": "delegateBySig",
			"outputs": [],
			"stateMutability": "nonpayable",
			"type": "function"
		},
		{
			"inputs": [
				{
					"internalType": "address",
					"name": "delegator",
					"type": "address"
				}
			],
			"name": "delegates",
			"outputs": [
				{
					"internalType": "address",
					"name": "",
					"type": "address"
				}
			],
			"stateMutability": "view",
			"type": "function"
		},
		{
			"inputs": [
				{
					"internalType": "address",
					"name": "account",
					"type": "address"
				}
			],
			"name": "excludeAccount",
			"outputs": [],
			"stateMutability": "nonpayable",
			"type": "function"
		},
		{
			"inputs": [
				{
					"internalType": "address",
					"name": "account",
					"type": "address"
				},
				{
					"internalType": "bool",
					"name": "exclude",
					"type": "bool"
				}
			],
			"name": "excludeFromFee",
			"outputs": [],
			"stateMutability": "nonpayable",
			"type": "function"
		},
		{
			"inputs": [
				{
					"internalType": "address",
					"name": "",
					"type": "address"
				}
			],
			"name": "excludedFeeAccounts",
			"outputs": [
				{
					"internalType": "bool",
					"name": "",
					"type": "bool"
				}
			],
			"stateMutability": "view",
			"type": "function"
		},
		{
			"inputs": [
				{
					"internalType": "address",
					"name": "account",
					"type": "address"
				}
			],
			"name": "getCurrentVotes",
			"outputs": [
				{
					"internalType": "uint256",
					"name": "",
					"type": "uint256"
				}
			],
			"stateMutability": "view",
			"type": "function"
		},
		{
			"inputs": [
				{
					"internalType": "address",
					"name": "account",
					"type": "address"
				},
				{
					"internalType": "uint256",
					"name": "blockNumber",
					"type": "uint256"
				}
			],
			"name": "getPriorVotes",
			"outputs": [
				{
					"internalType": "uint256",
					"name": "",
					"type": "uint256"
				}
			],
			"stateMutability": "view",
			"type": "function"
		},
		{
			"inputs": [
				{
					"internalType": "address",
					"name": "account",
					"type": "address"
				}
			],
			"name": "includeAccount",
			"outputs": [],
			"stateMutability": "nonpayable",
			"type": "function"
		},
		{
			"inputs": [
				{
					"internalType": "address",
					"name": "spender",
					"type": "address"
				},
				{
					"internalType": "uint256",
					"name": "addedValue",
					"type": "uint256"
				}
			],
			"name": "increaseAllowance",
			"outputs": [
				{
					"internalType": "bool",
					"name": "",
					"type": "bool"
				}
			],
			"stateMutability": "nonpayable",
			"type": "function"
		},
		{
			"inputs": [
				{
					"internalType": "address",
					"name": "account",
					"type": "address"
				}
			],
			"name": "isExcluded",
			"outputs": [
				{
					"internalType": "bool",
					"name": "",
					"type": "bool"
				}
			],
			"stateMutability": "view",
			"type": "function"
		},
		{
			"inputs": [
				{
					"internalType": "uint256",
					"name": "tAMount",
					"type": "uint256"
				}
			],
			"name": "mint",
			"outputs": [],
			"stateMutability": "nonpayable",
			"type": "function"
		},
		{
			"inputs": [],
			"name": "name",
			"outputs": [
				{
					"internalType": "string",
					"name": "",
					"type": "string"
				}
			],
			"stateMutability": "view",
			"type": "function"
		},
		{
			"inputs": [
				{
					"internalType": "address",
					"name": "",
					"type": "address"
				}
			],
			"name": "nonces",
			"outputs": [
				{
					"internalType": "uint256",
					"name": "",
					"type": "uint256"
				}
			],
			"stateMutability": "view",
			"type": "function"
		},
		{
			"inputs": [
				{
					"internalType": "address",
					"name": "",
					"type": "address"
				}
			],
			"name": "numCheckpoints",
			"outputs": [
				{
					"internalType": "uint32",
					"name": "",
					"type": "uint32"
				}
			],
			"stateMutability": "view",
			"type": "function"
		},
		{
			"inputs": [],
			"name": "owner",
			"outputs": [
				{
					"internalType": "address",
					"name": "",
					"type": "address"
				}
			],
			"stateMutability": "view",
			"type": "function"
		},
		{
			"inputs": [
				{
					"internalType": "uint256",
					"name": "tAmount",
					"type": "uint256"
				},
				{
					"internalType": "bool",
					"name": "deductTransferFee",
					"type": "bool"
				}
			],
			"name": "reflectionFromToken",
			"outputs": [
				{
					"internalType": "uint256",
					"name": "",
					"type": "uint256"
				}
			],
			"stateMutability": "view",
			"type": "function"
		},
		{
			"inputs": [],
			"name": "renounceOwnership",
			"outputs": [],
			"stateMutability": "nonpayable",
			"type": "function"
		},
		{
			"inputs": [],
			"name": "symbol",
			"outputs": [
				{
					"internalType": "string",
					"name": "",
					"type": "string"
				}
			],
			"stateMutability": "view",
			"type": "function"
		},
		{
			"inputs": [
				{
					"internalType": "uint256",
					"name": "rAmount",
					"type": "uint256"
				}
			],
			"name": "tokenFromReflection",
			"outputs": [
				{
					"internalType": "uint256",
					"name": "",
					"type": "uint256"
				}
			],
			"stateMutability": "view",
			"type": "function"
		},
		{
			"inputs": [],
			"name": "totalFees",
			"outputs": [
				{
					"internalType": "uint256",
					"name": "",
					"type": "uint256"
				}
			],
			"stateMutability": "view",
			"type": "function"
		},
		{
			"inputs": [],
			"name": "totalSupply",
			"outputs": [
				{
					"internalType": "uint256",
					"name": "",
					"type": "uint256"
				}
			],
			"stateMutability": "view",
			"type": "function"
		},
		{
			"inputs": [
				{
					"internalType": "address",
					"name": "recipient",
					"type": "address"
				},
				{
					"internalType": "uint256",
					"name": "amount",
					"type": "uint256"
				}
			],
			"name": "transfer",
			"outputs": [
				{
					"internalType": "bool",
					"name": "",
					"type": "bool"
				}
			],
			"stateMutability": "nonpayable",
			"type": "function"
		},
		{
			"inputs": [
				{
					"internalType": "address",
					"name": "sender",
					"type": "address"
				},
				{
					"internalType": "address",
					"name": "recipient",
					"type": "address"
				},
				{
					"internalType": "uint256",
					"name": "amount",
					"type": "uint256"
				}
			],
			"name": "transferFrom",
			"outputs": [
				{
					"internalType": "bool",
					"name": "",
					"type": "bool"
				}
			],
			"stateMutability": "nonpayable",
			"type": "function"
		},
		{
			"inputs": [
				{
					"internalType": "address",
					"name": "newOwner",
					"type": "address"
				}
			],
			"name": "transferOwnership",
			"outputs": [],
			"stateMutability": "nonpayable",
			"type": "function"
		}
	]
}